:100000000C9462000C948A000C948A000C948A0070
:100010000C948A000C948A000C94C4160C948A00E8
:100020000C948A000C948A000C948A000C948A0028
:100030000C948A000C948A000C948A000C948A0018
:100040000C94480C0C948A000C94B80C0C94920CF0
:100050000C948A000C948A000C948A000C948A00F8
:100060000C94290B0C948A00000000002400270047
:100070002A0000000000250028002B0000000000DE
:1000800023002600290004040404040404040202DA
:100090000202020203030303030301020408102007
:1000A0004080010204081020010204081020000012
:1000B0000008000201000003040700000000000027
:1000C0000000E51611241FBECFEFD8E0DEBFCDBF84
:1000D00011E0A0E0B1E0EEE7FAE302C005900D9276
:1000E000A239B107D9F723E0A2E9B1E001C01D921E
:1000F000AD3FB207E1F710E0C2E6D0E004C02197BF
:10010000FE010E94D51AC136D107C9F70E9478179F
:100110000C943D1D0C94000020911A02260F3327E9
:10012000331F21323105ECF420916502FC0190E08F
:1001300080E0243069F082E00895A0911A022191B4
:10014000AC0148505E4FA40FB52FB11D2C93019602
:10015000861798F380911A02680F60931A0280E064
:10016000089581E00895089508950895E0916C023E
:1001700080916B02E81730F4F0E0E359FD4F808185
:1001800090E008958FEF9FEF089590916C02809119
:100190006B022FEF3FEF981748F4E92FF0E0E35997
:1001A000FD4F208130E09F5F90936C02C90108955C
:1001B00080916B0290916C02891B990B0895CF92EC
:1001C000DF92EF92FF920F931F93CF93DF937C0107
:1001D000CB018A012091E902222389F0EB016B0116
:1001E000C40ED51ECC15DD0569F06991D701ED91DE
:1001F000FC910190F081E02DC7010995F3CF642FA8
:100200000E948C00C801DF91CF911F910F91FF9048
:10021000EF90DF90CF900895CF93DF931F92CDB7EB
:10022000DEB769832091E9022223F9F02091E602EA
:10023000203258F021E030E0FC013383228390E04B
:1002400080E00F90DF91CF9108958091E702E82F31
:10025000F0E0E952FE4F998190838F5F8093E7022F
:100260008093E60281E090E0ECCF61E0CE01019660
:100270000E948C00F7CFDC01ED91FC910190F081A0
:10028000E02D0994FC01538D448D252F30E0842FFF
:1002900090E0821B930B541710F0CF9608950197AE
:1002A0000895FC01918D828D981761F0A28DAE0F9B
:1002B000BF2FB11D5D968C91928D9F5F9F73928F22
:1002C00090E008958FEF9FEF0895FC01918D828D4E
:1002D000981731F0828DE80FF11D858D90E008951B
:1002E0008FEF9FEF0895FC01918D228D892F90E073
:1002F000805C9F4F821B91098F7399270895FC01A1
:10030000A48DA80FB92FB11DA35ABF4F2C91848D76
:1003100090E001968F739927848FA689B7892C93D3
:10032000A089B1898C91837080648C93938D848D26
:10033000981306C00288F389E02D80818F7D808329
:100340000895EF92FF920F931F93CF93DF93EC01E9
:1003500081E0888F9B8D8C8D98131AC0E889F9896C
:10036000808185FF15C09FB7F894EE89FF8960836F
:10037000E889F98980818370806480839FBF81E0F0
:1003800090E0DF91CF911F910F91FF90EF90089532
:10039000F62E0B8D10E00F5F1F4F0F731127E02E0D
:1003A0008C8D8E110CC00FB607FCFACFE889F98945
:1003B000808185FFF5CFCE010E947F01F1CFEB8DCB
:1003C000EC0FFD2FF11DE35AFF4FF0829FB7F89419
:1003D0000B8FEA89FB8980818062CFCFCF93DF9337
:1003E000EC01888D8823B9F0AA89BB89E889F9894D
:1003F0008C9185FD03C0808186FD0DC00FB607FC82
:10040000F7CF8C9185FFF2CF808185FFEDCFCE01B4
:100410000E947F01E9CFDF91CF9108958AEE92E0AB
:100420000E94730121E0892B09F420E0822F0895B6
:100430000E940E0281110C940000089580E090E06B
:10044000892B11F00C9418020895833081F028F460
:10045000813099F08230A9F008958730A9F0883072
:10046000C9F08430B1F4809180008F7D03C0809109
:1004700080008F7780938000089584B58F7784BD46
:10048000089584B58F7DFBCF8091B0008F778093E6
:10049000B00008958091B0008F7DF9CFCF93DF93A6
:1004A000282F30E0F901E255FF4F8491F901E6561B
:1004B000FF4FD491F901EA57FF4FC491CC23A1F02B
:1004C00081110E942502EC2FF0E0EE0FFF1FE4588F
:1004D000FF4FA591B491EC91ED2381E090E009F4F8
:1004E00080E0DF91CF91089580E090E0FACF1F93F4
:1004F000CF93DF93282F30E0F901E255FF4F84912D
:10050000F901E656FF4FD491F901EA57FF4FC49124
:10051000CC23A9F0162F81110E942502EC2FF0E0C8
:10052000EE0FFF1FEE58FF4FA591B4918FB7F894CF
:10053000EC91111108C0D095DE23DC938FBFDF91C1
:10054000CF911F910895DE2BF8CF1092650281E0C4
:100550008093640210925F0261E082E10E94770260
:1005600061E083E10E947702E9EBF0E080818E7F19
:10057000808380818D7F808388E48093B80085E4C8
:100580008093BC000895CF93DF9391E09093F7019F
:100590008823B9F0C091B800D091BA008091BC0016
:1005A0008A7B8093BC0060E082E10E94770260E079
:1005B00083E10E9477020E94A502D093BA00C09303
:1005C000B800DF91CF910895CF93DF9390E0FC01C5
:1005D000E656FF4F24918A579F4FFC018491882350
:1005E000C9F090E0880F991FFC01E859FF4FA591D1
:1005F000B491FC01EE58FF4FC591D49161110DC02B
:100600009FB7F8948C91209582238C93888128231E
:1006100028839FBFDF91CF910895623051F49FB737
:10062000F8943C91822F809583238C93E8812E2B24
:10063000EFCF8FB7F894EC912E2B2C938FBFEACF8E
:10064000CF92DF92EF92FF920F931F93CF93DF939E
:10065000EC01E62E98E0F92E0BE811E061E08881CC
:100660000E94E402C8010197F1F7CE2CD12C60E082
:10067000E0FE61E089810E94E402C8010197F1F780
:1006800060E088810E94E402C8010197F1F7D594E7
:10069000C794EC2CFA94F110E1CF61E088810E94BC
:1006A000E40260E089810E94E402C8010197F1F749
:1006B00060E088810E94E402C8010197F1F7898116
:1006C0000E944E02F82E811104C061E089810E94CF
:1006D000E4020BE811E0C8010197F1F761E08881BD
:1006E0000E94E402C8010197F1F781E0F11001C016
:1006F00080E0DF91CF911F910F91FF90EF90DF90FD
:10070000CF9008950F931F93CF93DF938C0161E0F7
:10071000FC0181810E94E402CBE8D1E0CE01019787
:10072000F1F760E0F80180810E94E402CE010197B8
:10073000F1F760E0F80181810E94E4022197F1F76E
:10074000DF91CF911F910F91089561E0FC018181AC
:100750000E94E4028BE891E00197F1F70895EF928F
:10076000FF920F931F93CF93DF93EC017B010E94C5
:10077000A50360E4CE010E942003CE010E94820303
:10078000CE010E94A50360ECCE010E9420038701E8
:1007900084E0E80EF11CF80161918F01CE010E9406
:1007A00020030E151F05B9F7CE010E948203CE016A
:1007B0000E94A5036A816F706058CE010E942003D9
:1007C000CE01DF91CF911F910F91FF90EF900C948C
:1007D0008203BF92CF92DF92EF92FF920F931F930B
:1007E000CF93DF9300D000D0CDB7DEB76C01F62FEA
:1007F000B72E0DE311E09E012F5F3F4F7901E1E03D
:10080000D8017E916E918D018F2F9B2D0E94C11A70
:100810006115710549F4EE2329F08E2D821B40E00D
:10082000833059F44FE309C06F70E62FF0E0EB5DC1
:10083000FE4F4081F82FB92EE0E0D7014D937D01A6
:10084000B1E005331B07E1F6B901C6010E94AF0311
:100850000F900F900F900F90DF91CF911F910F91FC
:10086000FF90EF90DF90CF90BF9008953FB7F8943E
:100870008091D3019091D401A091D501B091D6017E
:1008800026B5A89B05C02F3F19F00196A11DB11DEB
:100890003FBFBA2FA92F982F8827BC01CD01620F27
:1008A000711D811D911D42E0660F771F881F991FE2
:1008B0004A95D1F70895CF92DF92EF92FF920F936E
:1008C0001F93CF93DF93D091E60281E0D13208F0FD
:1008D0009CC0C091E8020E9436046B017C018091AB
:1008E000650281116CC082E08093650281E0809393
:1008F00064028FEF8093630210926202D0936102D0
:10090000A7EDB1E0EFE3F2E080E0D8138DC01092E4
:10091000600280916002CC0FC82BC093600280916E
:100920005F02813009F084C010925F020E94360499
:100930006B017C01809160028093BB008091670213
:1009400090916802A0916902B0916A02892B8A2B6A
:100950008B2BA1F00E94360400916702109168026F
:100960002091690230916A026C197D098E099F09F4
:10097000061717072807390708F442C08091BC0002
:1009800083FDD8CF85EC8093BC000E9436046B01B8
:100990007C0180916502823009F44CC08091630231
:1009A0008F3F09F469C080916302803209F466C008
:1009B00080916302803309F463C084E026C0809193
:1009C000670290916802A0916902B0916A02892B36
:1009D0008A2B8B2B09F483CF0E9436040091670287
:1009E000109168022091690230916A026C197D09A8
:1009F0008E099F09061717072807390708F06FCFD8
:100A0000809166020E94C30285E01092E702109274
:100A1000E6021092E902DF91CF911F910F91FF90B2
:100A2000EF90DF90CF9008959D9191938F5F6DCF60
:100A300085EEA9CF8091670290916802A09169022A
:100A4000B0916A02892B8A2B8B2B09F4A2CF0E94CA
:100A5000360400916702109168022091690230917A
:100A60006A026C197D098E099F0906171707280766
:100A7000390708F08ECFC4CF80E0C7CF82E0C5CF62
:100A800083E0C3CFCF92DF92EF92FF921F93CF9379
:100A9000DF93182FC3E9D3E078876F832FE931E024
:100AA000DB010E94DB1A24EB30E040E050E00E94C2
:100AB0005E1A69017A018FE5C80ED11CE11CF11C98
:100AC00089819A81288131E03093E9022093E802FC
:100AD0001092E7021092E602A4E01A9FB0011124DE
:100AE0006A5F7F4FDC01ED91FC910190F081E02D78
:100AF000099570E060E089819A810E943B0170E075
:100B000060E089819A810E943B01B60189819A81C6
:100B10000E943B016D2D70E089819A810E943B010A
:100B200089819A81DF91CF911F91FF90EF90DF90A3
:100B3000CF900C945B041F93CF93DF93162FC3E9E0
:100B4000D3E0A981BA81988121E02093E9029093B2
:100B5000E8021092E7021092E602ED91FC911197E3
:100B60000190F081E02D682FCD01099589819A814E
:100B7000DC01ED91FC910190F081E02D612F099550
:100B800089819A81DF91CF911F910C945B048F92A0
:100B90009F92AF92BF92CF92DF92EF92FF924B0162
:100BA0005C010E9436046B017C010E9436046C19C2
:100BB0007D098E099F09683E734081059105A8F360
:100BC00021E0821A9108A108B10888EEC80E83E0DE
:100BD000D81EE11CF11C81149104A104B10429F771
:100BE000FF90EF90DF90CF90BF90AF909F908F904D
:100BF00008952FB7F8946091CF017091D001809142
:100C0000D1019091D2012FBF0895AF92BF92CF92A0
:100C1000DF92EF92FF920F931F93CF93DF936C01BC
:100C20007B018B01040F151FEB015E01AE18BF089D
:100C3000C017D10759F06991D601ED91FC9101904F
:100C4000F081E02DC6010995892B79F7C501DF9167
:100C5000CF911F910F91FF90EF90DF90CF90BF90B9
:100C6000AF90089590E080E008951F93CF93DF93B5
:100C700000D000D0CDB7DEB719821A821B821C8249
:100C8000FB019E012F5F3F4FAB014C5F5F4FB901EE
:100C9000A191AA2361F00A2E000CBB0BA653BF4FF3
:100CA0001C91D9011D939D01E417F50789F70E9456
:100CB000AF030F900F900F900F90DF91CF911F9186
:100CC0000895CF93DF9300D000D0CDB7DEB7FC01FD
:100CD00019821A821B821C82978197709860928376
:100CE000BE016F5F7F4FCF010E94AF0390E080E0B5
:100CF0000F900F900F900F90DF91CF910895CF92AA
:100D0000DF92EF92FF92CF93DF93EC016A017B01B8
:100D10008D819E81892B11F588810E944E02892B3D
:100D2000E9F489819A81AB81BC814E96A11DB11DE8
:100D3000C816D906EA06FB0688F081E090E09E839B
:100D40008D830E94F90569837A838B839C83DF916D
:100D5000CF91FF90EF90DF90CF9008958D819E818D
:100D60000197A1F08D819E81029789F789819A81EF
:100D7000AB81BC818A569F4FAF4FBF4FC816D90673
:100D8000EA06FB0620F31E821D82DBCF88810E94CB
:100D90004E02019739F789819A81AB81BC814E96C9
:100DA000A11DB11DC816D906EA06FB06D8F282E0DD
:100DB00090E0C5CFCF93DF93EC0162E088810E9481
:100DC000E40219821A821B821C8290E080E0DF918B
:100DD000CF910895CF92DF92EF92FF920E94F90592
:100DE0006B017C01BC01A60182EF93E00E947F06AB
:100DF000B701A6018BEE93E00E947F06B701A60122
:100E000084EE93E00E947F06B701A6018DED93E08A
:100E10000E947F06B701A60186ED93E00E947F063F
:100E2000B701A6018FEC93E00E947F06B701A601EF
:100E300088EC93E00E947F06B701A60181EC93E065
:100E40000E947F06B701A6018AEB93E00E947F060D
:100E5000B701A60183EB93E00E947F06B701A601CC
:100E60008CEA93E0FF90EF90DF90CF900C947F0698
:100E7000CF93C091A5016C2F70E090E080E00E94BC
:100E8000091C60939F037093A0038093A103909328
:100E9000A2036C2F70E08CE993E0CF910C94E903EE
:100EA000CF93C0919B016C2F70E090E080E00E9496
:100EB000091C6093A7037093A8038093A9039093E0
:100EC000AA036C2F70E084EA93E0CF910C94E903BD
:100ED000CF93C5E070E060E08C2F0E944205CF5FA9
:100EE000CA30C1F7CF910895CF93C0E070E060E0C1
:100EF0008C2F0E944205CF5FC530C1F7CF91089576
:100F00008F929F92AF92BF92CF92DF92EF92FF9219
:100F10000F931F93CF936B017C0120E030E040E8FA
:100F20005FE30E94631B87FDE1C020E030EC4AE5EF
:100F300055E4C701B6010E94BB1C18163CF4C12C35
:100F400030ECD32E3AE5E32E35E4F32E6091960390
:100F50007091970380919803909199030E94091CC6
:100F60004B015C0120E030E040E855E4C701B601E8
:100F70000E94C01C9B01AC01C501B4010E94681B0A
:100F800020E030E040E05FE30E94F71A20E030E02C
:100F900040E85FE30E94F61A6B017C0120E030E03C
:100FA00040E450E40E94631B87FDA7C020E030E0CE
:100FB0004FE753E4C701B6010E94BB1C181634F476
:100FC000C12CD12C9FE7E92E93E4F92EC701B6017D
:100FD0000E94DA1BF62E8091940390919503209144
:100FE000930331E03093E9022093E8021092E70284
:100FF0001092E602DC01ED91FC910190F081E02D70
:1010000060E0099580919403909195030E945B04A0
:10101000C09193030E9436044B015C0180916502EC
:10102000811171C081E080936502809364029FEF1B
:1010300090936302109262021092610280936002A8
:1010400080916002CC0FC82BC093600280915F0238
:10105000813009F0B2C010925F020E9436044B0149
:101060005C01809160028093BB0080916702909147
:101070006802A0916902B0916A02892B8A2B8B2B9E
:10108000A1F00E943604009167021091680220913D
:10109000690230916A02681979098A099B09061761
:1010A00017072807390708F44FC08091BC0083FD5B
:1010B000D8CF85EC8093BC000E9436044B015C01C4
:1010C00080916502813009F47AC0809162028111B9
:1010D00098C080916202EFE3F2E0ADE6B2E090E00A
:1010E0009817B9F121912D939F5FFACFC12CD12C84
:1010F00020E8E22E2FE3F22E29CFC12CD12C80E460
:10110000E82EFE2C63CF8091670290916802A09137
:101110006902B0916A02892B8A2B8B2B09F47ECF4E
:101120000E943604009167021091680220916902C2
:1011300030916A02681979098A099B09061717070D
:101140002807390708F06ACF809166020E94C3021F
:1011500080E010926C0280936B02809194039091D6
:101160009503DC01ED91FC910284F385E02D099556
:10117000C82F682F6F76606180E00E949B056F2DFD
:101180008EEF0E949B056C2F80E00E949B0565E01E
:1011900070E080E090E00E94C7056C2F606A80E0FC
:1011A000CF911F910F91FF90EF90DF90CF90BF9064
:1011B000AF909F908F900C949B0585EE7BCF809194
:1011C000670290916802A0916902B0916A02892B2E
:1011D0008A2B8B2B09F474CF0E943604009167028E
:1011E000109168022091690230916A0268197909A8
:1011F0008A099B09061717072807390708F060CFE7
:10120000A3CF81E068CF85ED8093BC008091670219
:1012100090916802A0916902B0916A020796A11D9F
:10122000B11D23E0B695A795979587952A95D1F797
:101230002091BC0024FD03C01092650208954091E6
:101240006702509168026091690270916A02452BB1
:10125000462B472B69F30097A105B10541F025E323
:101260002A95F1F700000197A109B109E1CF80911A
:1012700066020C94C3020F931F93CF9382EF93E007
:101280000E94DA068BEE93E00E94DA0684EE93E089
:101290000E94DA068DED93E00E94DA0686ED93E077
:1012A0000E94DA068FEC93E00E94DA0688EC93E065
:1012B0000E94DA0681EC93E00E94DA068AEB93E062
:1012C0000E94DA0683EB93E00E94DA068CEA93E050
:1012D0000E94DA0684EA93E00E9461068CE993E0BA
:1012E0000E94610610926C0210926B021092E7024B
:1012F0001092E6020E94A50283EB90E090931902FF
:101300008093180284EB90E090931D0280931C025E
:1013100060E880E00E949B056AE070E080E090E079
:101320000E94C70560E070E08AE794E40E948007AD
:1013300080E498E7ADE7B1E080939603909397033C
:10134000A0939803B093990360E070E088E492E47E
:101350000E9480070E9450070E943807C0E070E09A
:1013600060E08C2F0E944205CF5FCA30C1F710E0C9
:1013700000E022E040E850E061E671E08EE79AE0AC
:101380000E94311422E040E850E06EE671E08FECFC
:1013900099E00E943114CF911F910F910895CF933E
:1013A000DF9300D000D0CDB7DEB785E0C82ED12CBA
:1013B000E12CF12C1092A5018091B1039091B20320
:1013C000892B19F40E94EA06F7CF0E9438070E9481
:1013D000F9056093A1017093A2018093A3019093FA
:1013E000A4010E94F9058090A1019090A201A09013
:1013F000A301B090A401681979098A099B09603694
:101400007A4E8105910508F05AC00E94EA060E94B2
:1014100068070E94061AA70196010E945E1ADC0165
:10142000CB010596A11DB11D80939C016AE570E07A
:101430000E9442050E94F9054B015C0180929D01CA
:1014400090929E01A0929F01B092A0010E94F90586
:10145000681979098A099B09683E734081059105DD
:1014600078F480919C0181110EC08091D4039091F9
:10147000D503019759F78091A5018F5F8093A5014E
:101480000E943807AECF813029F48091CD0390912E
:10149000CE03EFCF823029F48091C6039091C70329
:1014A000E8CF833029F48091BF039091C003E1CF4E
:1014B000843061F68091B8039091B903DACF0E942D
:1014C000680790919B018091A501891760F41982AA
:1014D0001A821B821C82BE016F5F7F4F8CE993E0F2
:1014E0000E94AF0367CF6BE771E0981710F06FE7CA
:1014F00071E08CE993E00E9435065CCFCF93DF93D7
:1015000000D000D0CDB7DEB785E0882E912CA12C7D
:10151000B12C10929B018091B1039091B203892B61
:1015200019F40E94EA06F7CF0E9450070E94F905BD
:101530006093A1017093A2018093A3019093A401F1
:101540000E94F905C090A101D090A201E090A301F2
:10155000F090A4016C197D098E099F0960367A4EBE
:101560008105910508F056C00E94EA060E947407A2
:101570000E94061AA50194010E945E1A862F6093AC
:1015800096016AE570E00E9442050E94F9056B0130
:101590007C01C0929701D0929801E0929901F0925B
:1015A0009A010E94F9056C197D098E099F09683E10
:1015B00073408105910578F48091960181110EC0E8
:1015C0008091F7039091F803019759F780919B015F
:1015D0008F5F80939B010E945007B2CF813029F426
:1015E0008091F0039091F103EFCF823029F4809144
:1015F000E9039091EA03E8CF833029F48091E20374
:101600009091E303E1CF843061F68091DB03909108
:10161000DC03DACF0E94740790919B018091A501B1
:101620006BE771E0891780F0981760F419821A82CD
:101630001B821C82BE016F5F7F4F84EA93E00E9491
:10164000AF0367CF6FE771E084EA93E00E9435064D
:1016500060CF1F920F920FB60F9211242F933F93DA
:101660004F935F936F937F938F939F93AF93BF93AA
:10167000EF93FF938091B900887F803609F44AC0C8
:10168000F0F5883209F4A7C018F5803109F49BC041
:10169000B8F4882309F4F9C0883009F494C0FF91A4
:1016A000EF91BF91AF919F918F917F916F915F91DA
:1016B0004F913F912F910F900FBE0F901F90189553
:1016C000883109F488C0803251F78093630214C0D6
:1016D000803409F49DC040F48033B9F38833F9F6BF
:1016E0008093630285ECB0C0803509F485C08835ED
:1016F00009F496C0883499F60E940309D0CF88393E
:1017000009F48CC038F5883729F050F4883611F088
:10171000803729F683E08093650210923E0257C01D
:10172000883809F47BC0803919F0803809F0B7CFC8
:1017300080913E02803208F071C0E0913E0281E06B
:101740008E0F80933E028091BB00F0E0E25EFD4F81
:1017500080833DC0803B39F0E0F4803A09F479C0E1
:10176000883A09F09CCF84E08093650210921B02B6
:1017700010921A02E0911802F091190209958091D5
:101780001A0281110FC081E080931A021092F801B1
:1017900009C0803C09F4A6CF883C09F4A3CF883B5C
:1017A00009F07DCFE0911B0281E08E0F80931B0238
:1017B000F0E0E850FE4F80818093BB0090911B02C7
:1017C00080911A0229C0809160028093BB0085EC51
:1017D0008093BC0064CF909162028091610298175F
:1017E00058F5E091620281E08E0F80936202F0E092
:1017F000E15CFD4F8081E9CFE091620281E08E0FD4
:10180000809362028091BB00F0E0E15CFD4F808339
:1018100090916202809161029817C8F285E8D8CF52
:10182000E091620281E08E0F809362028091BB00A2
:10183000F0E0E15CFD4F80838091640281115CCF18
:1018400081E080935F0284EA8093BC00109265027D
:1018500026CF85EC8093BC001092650280913E02F9
:10186000803230F4E0913E02F0E0E25EFD4F108203
:1018700060913E0270E0E0911C02F0911D028EE149
:1018800092E0099510923E020ACF1092630234CF83
:101890001F920F920FB60F9211242F933F938F93A5
:1018A0009F93AF93BF938091CF019091D001A0916E
:1018B000D101B091D2013091CE0123E0230F2D3719
:1018C00058F50196A11DB11D2093CE018093CF0143
:1018D0009093D001A093D101B093D2018091D30114
:1018E0009091D401A091D501B091D6010196A11D8E
:1018F000B11D8093D3019093D401A093D501B093EF
:10190000D601BF91AF919F918F913F912F910F90F1
:101910000FBE0F901F90189526E8230F0296A11D69
:10192000B11DD2CF1F920F920FB60F9211242F9399
:101930003F934F935F936F937F938F939F93AF9357
:10194000BF93EF93FF938AEE92E00E947F01FF9195
:10195000EF91BF91AF919F918F917F916F915F9127
:101960004F913F912F910F900FBE0F901F901895A0
:101970001F920F920FB60F9211242F938F939F9364
:10198000EF93FF93E091FA02F091FB028081E091E6
:101990000003F091010382FD1BC09081809103033D
:1019A0008F5F8F7320910403821741F0E09103034E
:1019B000F0E0E651FD4F958F80930303FF91EF9187
:1019C0009F918F912F910F900FBE0F901F901895A0
:1019D0008081F4CF0FB6F8940F92FC01928D0F9096
:1019E0000FBE81E0911180E00895E0918F02F091A7
:1019F00090028081811107C08FEF9FEF9093CB0100
:101A00008093CA010895E0918F02F09190020580C1
:101A1000F681E02D80819181F1CFCF93DF93FC019E
:101A2000A085B1858281938124813581EC013D833C
:101A30002C83C481D5819B838A8311968D919C913F
:101A400012978E179F0721F41296DC93CE9311976D
:101A5000118610868C9181508C938C91DF91CF915F
:101A600008950F931F93CF93DF938C01FB01808127
:101A70009181D80113968F3F9807F1F4E801AF8167
:101A8000B88512968D919C91139793838283EC0174
:101A9000FD83EC83B583A4831396FC93EE93129796
:101AA00011870087F80180818F5F8083DF91CF915C
:101AB0001F910F910895D90112962D913C91139782
:101AC000E9014881598184179507A8F7DACFFC010D
:101AD0000396928381832FEF3FEF34832383968392
:101AE00085839087878310820895FC0173836283C6
:101AF000918780874617570790F0421B530B8485C8
:101B0000958548175907C8F4BF016E5F7F4F8091D4
:101B1000AE019091AF010E94310D80E0089542170F
:101B2000530718F46217730740F4BF016E5F7F4FCD
:101B30008091B0019091B101EECF81E00895EF92D4
:101B4000FF920F931F93CF93DF93EC018B017A01E8
:101B50006C857D85600F711F9801A701CE010E94E1
:101B6000750D811107C0DF91CF911F910F91FF90EB
:101B7000EF9008958C859D85080F191FE889F989D4
:101B8000CE010995E5CFEF92FF920F931F93CF936C
:101B9000DF938C017B01E091B001F091B1010580F0
:101BA000F681E02DC681D781CE0102960E940D0DEF
:101BB0008A8982FF0FC0A701B801CE010E949F0D44
:101BC000E889F989CE01DF91CF911F910F91FF90A4
:101BD000EF9009948E7F8A8BF3CFE091B001F09162
:101BE000B101808181110DC08091AE019091AF0152
:101BF0009093B1018093B001F093AF01E093AE01F7
:101C000008950580F681E02D6FEF7FEF808191814F
:101C10000E94C30DE2CFFF920F931F93CF93DF93E8
:101C2000EC01F62E0091C8011091C901809192013A
:101C30009091930102960E940D0DCF3FDC07E9F5CC
:101C4000FF20D9F1E0919202F0919302A0919201CC
:101C5000B09193011596FC93EE931497A091920185
:101C6000B09193018481958117969C938E931697DA
:101C70008091920190919301A481B581029613966F
:101C80009C938E931297809192019091930102966A
:101C900095838483E0919201F091930181E992E030
:101CA00093878287809191028F5F80939102DF9169
:101CB000CF911F910F91FF900895C00FD11FE09118
:101CC0009201F0919301D383C2836091920170914C
:101CD0009301C017D10768F480918D0290918E0214
:101CE0006E5F7F4FDF91CF911F910F91FF900C940A
:101CF000310D80918F02909190026E5F7F4F0E9414
:101D0000310D8091CA019091CB01C817D90778F69F
:101D1000D093CB01C093CA01CACFCF93DF93DC012C
:101D20001596ED91FC910680F781E02DA489B58987
:101D30008685978520893189EC013D832C83C08974
:101D4000D1899B838A83CF010C9611962D913C916A
:101D500012972817390721F41296DC93CE93119726
:101D6000158A148A2C9121502C932091AC012111B9
:101D700057C0A285B3858481958126813781EC0186
:101D80003D832C83C681D7819B838A83CF010296B2
:101D900011962D913C9112972817390721F412962C
:101DA000DC93CE931197138612862C9121502C939D
:101DB000C6892091E2022C1710F4C093E20229E0B8
:101DC0002C9FE0011124C254DD4F0980DA81C02D1F
:101DD000D583C4834C815D8157834683AC81BD81AB
:101DE00013969C938E9312979D838C83A689A29FB2
:101DF000D0011124A254BD4FB387A2878C918F5F6D
:101E00008C93A0919201B0919301968956968C91F2
:101E1000891730F581E08093AD01DF91CF9108956E
:101E2000A091A402B091A502B787A68714962D9120
:101E30003C911597318B208B1496CD91DC911597A1
:101E40009B838A8315969C938E93149783EA92E0E2
:101E5000958B848B8091A3028F5F8093A302D1CF57
:101E600080E0DBCFEF92FF920F931F93CF93DF932E
:101E7000EC010FB6F8940F921E8D7C0181E1E80E03
:101E8000F11C01E01116D4F08FEF8E8F0F900FBE72
:101E90000FB6F8940F921D8D7E0188E0E80EF11CBC
:101EA00001E01116B4F08FEF8D8F0F900FBEDF9110
:101EB000CF911F910F91FF90EF900895898988230A
:101EC00019F3C7010E948D0E81110093AD011150CD
:101ED000D9CF8885882339F3C7010E948D0E8111DF
:101EE0000093AD011150DDCF0FB6F8940F928091A1
:101EF000C8019091C9010F900FBE08958091AC0167
:101F00008F5F8093AC0108950F920FB6F8940F92F3
:101F10001F9211242F923F924F925F926F927F9265
:101F20008F929F92AF92BF92CF92DF92EF92FF92E9
:101F30000F931F932F933F934F935F936F937F93D1
:101F40008F939F93AF93BF93CF93DF93EF93FF93C1
:101F5000A0919201B09193010DB60D920EB60D9223
:101F60008091AC01882321F081E08093AD015DC0B8
:101F70001092AD01A0919201B0919301E091920174
:101F8000F09193012D913C918789908D8217930751
:101F9000A8F080919201909193018091920190918B
:101FA0009301259A2D9A2FEF87EA91E621508040E0
:101FB0009040E1F700C000001D9AF5CF2091E202A9
:101FC00089E001C02150422F50E0849FF001859F9D
:101FD000F00D1124E254FD4F9081992399F3A181D2
:101FE000B28112966D917C9172836183289FC001AA
:101FF00011248F539D4F6817790721F485819681AD
:102000009283818389E0849FF001859FF00D1124E4
:10201000E254FD4F0180F281E02D868197819093FB
:102020009301809392012093E202A0919201B091DA
:102030009301CD91CDBFDD91DEBFFF91EF91DF9197
:10204000CF91BF91AF919F918F917F916F915F9150
:102050004F913F912F911F910F91FF90EF90DF9043
:10206000CF90BF90AF909F908F907F906F905F9038
:102070004F903F902F901F900F900FBE0F9008959C
:102080008F929F92BF92CF92DF92EF92FF920F9327
:102090001F93CF93DF930FB6F8940F928091AC010A
:1020A00081508093AC018091AC01882379F080E06D
:1020B0000F900FBEDF91CF911F910F91FF90EF9086
:1020C000DF90CF90BF909F908F9008958091E50210
:1020D000882369F3E090A802F090A902F0E0E0E024
:1020E00039E041E08091A30281115EC0EF2B11F035
:1020F0000E94F50CE090AA01F090AB01E114F1040C
:1021000009F47DC189E0D82ECC24C3940FEF1FEFD2
:102110008091AC01811161C1C091C801D091C90108
:102120004E018FEF881A980A9092C9018092C801D7
:1021300081149104B9F480918F02909190022091C2
:102140008D0230918E023093900220938F029093F3
:102150008E0280938D028091A9018F5F8093A901E7
:102160000E94F50C8091CA019091CB01B12C881688
:10217000990608F026C1E0919201F0919301E68959
:10218000DE9EF0011124E254FD4F8081823010F078
:10219000BB24B3948091AD01811103C0BB2009F42D
:1021A00025C1C092AD0122C1D7011696ED91FC91D7
:1021B000A489B5896685778580899189EB019D839E
:1021C0008C8380899189EC017B836A83BF01645F82
:1021D0007F4F11960D911C9112970617170721F446
:1021E00012969C938E931197158A148A8C91815024
:1021F0008C93A285B3858481958166817781EC017A
:102200007D836C8366817781EB019B838A83CF0119
:10221000029611960D911C9112970817190721F437
:1022200012967C936E931197138612862C912150EF
:102230002C93A6892091E2022A1710F4A093E202BF
:102240003A9FD0011124A254BD4F11960D90BC911C
:10225000A02DB583A48314966D917C9115977783F7
:10226000668314966D917C911597EB019B838A830D
:1022700015969C938E9314979689939FD001112461
:10228000A254BD4FB387A2878C918F5F8C93A0918E
:102290009201B091930156968C91891708F022CF44
:1022A0004093AD011FCFE0918F02F0919002058025
:1022B000F681E02D0680F781E02D828193818816DA
:1022C000990628F49093CB018093CA0154CFC2851C
:1022D000D3858481958126813781DC0115963C93D5
:1022E0002E93149726813781D90113969C938E9350
:1022F0001297CF01029649815A814817590711F464
:102300003A83298313861286288121502883A48941
:10231000B5891097F9F02685378540895189E901FB
:102320005D834C8340895189EA013B832A8311965E
:102330006D917C9112979F01245F3F4F6217730745
:1023400021F412965C934E931197158A148A2C915E
:1023500021502C93A6892091E2022A1710F4A09311
:10236000E202DA9ED0011124A254BD4F11960D90C5
:10237000BC91A02DB583A48314962D913C91159703
:102380003783268314962D913C911597E9019B8301
:102390008A8315969C938E93149796899D9DD00160
:1023A0001124A254BD4FB387A2878C918F5F8C9369
:1023B000E0919201F09193018689891710F4BB2472
:1023C000B394E0918F02F0919002808181116BCFE4
:1023D0001093CB010093CA01CECE8091AA019091B7
:1023E000AB0101969093AB018093AA01D1E0ED1A65
:1023F000F10809F08DCE1092AB011092AA018091E4
:10240000AD01882309F453CE0E94840F81E050CEA1
:102410000F920FB6F8940F921F9211242F923F92B1
:102420004F925F926F927F928F929F92AF92BF92E4
:10243000CF92DF92EF92FF920F931F932F933F93D0
:102440004F935F936F937F938F939F93AF93BF93BC
:10245000CF93DF93EF93FF93A0919201B0919301FB
:102460000DB60D920EB60D9213BE8091AC01811186
:10247000F9C08091C8019091C90101969093C9015A
:102480008093C801009781F520918F0230919002CE
:1024900040918D0250918E025093900240938F0292
:1024A00030938E0220938D022091A9012F5F2093FB
:1024B000A901E0918F02F09190022081211107C0C3
:1024C0002FEF3FEF3093CB012093CA010DC0E09175
:1024D0008F02F09190020580F681E02D20813181FC
:1024E0003093CB012093CA012091CA013091CB01D6
:1024F0008217930710F420E0A1C020E039E0D32E2A
:10250000E0918F02F09190023081311107C08FEF7E
:102510009FEF9093CB018093CA0190C0E0918F020E
:10252000F09190020580F681E02D0680F781E02D84
:10253000428153818417950728F45093CB0140932F
:10254000CA017CC0A285B3854481558166817781AB
:10255000EA017D836C8366817781EB015B834A832B
:10256000AF014E5F5F4F11960D911C9112970417AA
:10257000150721F412967C936E9311971386128699
:102580003C9131503C93A489B5891097F9F0668548
:10259000778500891189EB011D830C8300891189DE
:1025A000E8017B836A831196ED90FC901297BF013E
:1025B000645F7F4FE616F70621F412961C930E9384
:1025C0001197158A148A3C9131503C93A689309119
:1025D000E2023A1710F4A093E202DA9ED00111242D
:1025E000A254BD4F11960D90BC91A02DB583A4832C
:1025F00014966D917C9115977783668314966D91EF
:102600007C911597EB015B834A8315965C934E93FF
:10261000149746894D9DD0011124A254BD4FB38714
:10262000A2873C913F5F3C93E0919201F09193012E
:102630003689341708F064CF21E062CFE09192012F
:10264000F0919301E689D9E0ED9FF0011124E25465
:10265000FD4F8081823008F021E08091AD01811131
:102660000EC00AC08091AA019091AB01019690938F
:10267000AB018093AA0168C0222309F465C0809150
:10268000AC01882321F081E08093AD015DC0109200
:10269000AD01A0919201B0919301E0919201F0916E
:1026A00093012D913C918789908D82179307A8F013
:1026B0008091920190919301809192019091930168
:1026C000259A2D9A2FEF87EA91E62150804090407D
:1026D000E1F700C000001D9AF5CF2091E20289E0E9
:1026E00001C02150422F50E0849FF001859FF00DE2
:1026F0001124E254FD4F9081992399F3A181B28175
:1027000012966D917C9172836183289FC001112480
:102710008F539D4F6817790721F4858196819283A5
:10272000818389E0849FF001859FF00D1124E2549C
:10273000FD4F0180F281E02D868197819093930176
:10274000809392012093E202A0919201B0919301B3
:10275000CD91CDBFDD91DEBFFF91EF91DF91CF91A4
:10276000BF91AF919F918F917F916F915F914F91A9
:102770003F912F911F910F91FF90EF90DF90CF909D
:10278000BF90AF909F908F907F906F905F904F9091
:102790003F902F901F900F900FBE0F900895CF93F2
:1027A000DF93009751F0EC010E947E0FCE010E9452
:1027B0003119DF91CF910C944010DF91CF910895A2
:1027C00000E010E08091A60181110CC08091BE0252
:1027D000823010F00E94840F0115110599F30E94B8
:1027E0001802F0CF0FB6F8940F92E0919F02F0918B
:1027F000A002C681D781CE0102960E940D0D809164
:10280000E50281508093E5028091A601815080937A
:10281000A6010F900FBE8F89988D0E94CF13CE0115
:102820000E94CF13CFCFCF93DF93EC010E947E0F96
:10283000CE010E949518EC010E944010209769F487
:10284000259A2D9A2FEF80E792E02150804090400A
:10285000E1F700C000001D9AF5CFCE01DF91CF91C6
:1028600008957F928F929F92AF92BF92CF92DF9204
:10287000EF92FF920F931F93CF93DF93982EA92E81
:10288000762E872E7A01B22ECA010E9413146C0193
:10289000892B09F4EDC088E290E00E941314EC014A
:1028A000892B09F4E2C088E2DE011D928A95E9F7DE
:1028B000D88ECF8AA70165EA70E0C6010E94361D56
:1028C000B1E0EB1AF108EF89F88DEE0DFF1D672DD1
:1028D000782DCE0149969B01285F3F4FDB014D913A
:1028E000BD01DC014D93CD01AB0141505109DA012D
:1028F0004C91442319F06217730781F718A2BE8A1E
:10290000B9A21B861A861D8A1C8AD987C88784E0CB
:1029100090E08B1991099D878C87DB8BCA8B908205
:10292000DF011197AC9211971C92119780E88C935C
:1029300011971C9257971C9211971C92B397F98389
:10294000E8830115110519F0F801D183C0830FB692
:10295000F8940F928091E5028F5F8093E502809159
:10296000920190919301892B09F091C0D09393012A
:10297000C09392018091E502813081F58EEB92E067
:102980000E94670D87EC92E00E94670D80ED92E057
:102990000E94670D89ED92E00E94670D85EB92E041
:1029A0000E94670D8CEA92E00E94670D83EA92E034
:1029B0000E94670D8AE992E00E94670D81E992E02A
:1029C0000E94670D85EB92E09093900280938F02B6
:1029D0008CEA92E090938E0280938D028091E302C4
:1029E0008F5F8093E302AE898091E2028A1710F430
:1029F000A093E20229E02A9FD0011124A254BD4FE6
:102A000011960D90BC91A02DBD83AC8314968D9131
:102A10009C9115979F838E831496ED91FC91159749
:102A2000CE0102969383828315969C938E9314977E
:102A3000EE89E29FF0011124E254FD4FFB87EA8703
:102A400080818F5F80830F900FBE8091E402882386
:102A500051F0E0919201F091930196898E89981737
:102A600010F40E94840F81E004C0C6010E94CF13BD
:102A70008FEFDF91CF911F910F91FF90EF90DF903B
:102A8000CF90BF90AF909F908F907F90089580914E
:102A9000E4028111A3CFE0919201F0919301968914
:102AA0008E89891708F49ACFD0939301C09392012D
:102AB00095CFCF93DF9300D000D01F92CDB7DEB774
:102AC000E091B001F091B1011081F12CE12C1123C2
:102AD00029F00580F681E02DE080F1800E947E0FD4
:102AE0000E94740F6C018091A7019091A801C816F3
:102AF000D90608F085C00E94ED0DD092A801C092C1
:102B0000A7010E9440100091C6011091C7010FB6A5
:102B1000F8940F92D8015A96FC905A97FF2009F426
:102B200030C15C964C915C97442301F150E01696BD
:102B30008D919C911797840F951F17969C938E9358
:102B4000169714962D913C9115978217930738F09C
:102B50008D919C91119717969C938E931697F801DF
:102B600066817781CE0101960E942D1DFA94D801CD
:102B70005A96FC925A9718968C91882339F0C8017E
:102B800008960E948D0E81110E94840F0F900FBE37
:102B9000D980D7FCB8CF0C811D81D8011A968D91B0
:102BA0009C91892B21F0C80102960E940D0D0E9474
:102BB000740F7C018091A7019091A801E816F90695
:102BC00010F40E94ED0DF092A801E092A701EFEF42
:102BD000ED0DE93008F097CF0E2E000CFF0BE950F9
:102BE000FA4ED80152968C9152970C94D51A7A16B7
:102BF0007A16BD16A516B7167A167A16BD16A5163C
:102C0000D092A801C092A701112351F0CE14DF0485
:102C100070F00E944010B601C7010E94C30D73CF2F
:102C2000E091AE01F091AF01808161E0811160E03F
:102C30000091C6011091C7010FB6F8940F92D80108
:102C40005D968C915D978F3F11F45D961C92F80113
:102C5000868D8F3F09F4168E0F900FBED8015A96BD
:102C60008C915A9781113CC05296ED91FC91A091A4
:102C70009201B09193011F96FC93EE931E97A09141
:102C80009201B09193018481958151969C938E938A
:102C900050978091920190919301A481B5810C96F7
:102CA00013969C938E931297809192019091930129
:102CB0000C9695838483E0919201F0919301C80171
:102CC0004196958B848BF80181898F5F818BC70139
:102CD0008C199D09662311F08FEF9FEF0E940B0E58
:102CE000C8010E94320F0E94401081110CCF0E9437
:102CF000840F09CF8160F801828BCA80DB806485F4
:102D000075856C0D7D1D9601A701C8010E94750D8A
:102D1000882309F4F8CED80152968C91529782FFFD
:102D200010C01C966D917C916C0D7D1DA701C80192
:102D30000E949F0DD8015096ED91FC91C801099514
:102D4000E2CE8E7FF801828BF5CF816052968C9314
:102D500052976A817B811D967C936E931C976E0DB2
:102D60007F1D9701A701C8010E94750DCCCE81FD82
:102D700004C0C8010E94CF13C6CE8E7FF801828B9B
:102D8000C2CE0F900FBE9CCE0E9408121895CF9312
:102D9000DF93EC01862F6883498360E00E94E402A0
:102DA00060E089810E94E40260E088810E947702ED
:102DB00060E089810E9477021B821C821D821E8234
:102DC00087E08F83DF91CF910895CF93DF93C7E89A
:102DD000D3E01B821A8288EE93E0A0E0B0E08C83FF
:102DE0009D83AE83BF8321E431E039832883EAEEFB
:102DF000F2E01382128284839583A683B78383E5EE
:102E000091E09183808385EC90E09587848784ECC2
:102E100090E09787868780EC90E0918B808B81ECA7
:102E200090E0938B828B82EC90E0958B848B86EC88
:102E300090E0978B868B118E128E138E148EE2EF9C
:102E4000F3E082E0808316821582EBEEF3E083E00C
:102E5000808316821582E4EEF3E084E0808316829C
:102E60001582EDEDF3E085E0808316821582E6EDB4
:102E7000F3E086E0808316821582EFECF3E087E0D2
:102E8000808316821582E8ECF3E088E08083168266
:102E90001582E1ECF3E089E0808316821582EAEB8B
:102EA000F3E08AE0808316821582E3EBF3E08BE0A7
:102EB000808316821582ECEAF3E08CE08083168230
:102EC00015824FE06EE084EA93E00E94C71641E16C
:102ED00060E18CE993E00E94C716E3E9F3E080E447
:102EE0008083D283C18310861782DF91CF910895AA
:102EF000789484B5826084BD84B5816084BD85B5D5
:102F0000826085BD85B5816085BD80916E008160E0
:102F100080936E0010928100809181008260809386
:102F20008100809181008160809381008091800088
:102F30008160809380008091B10084608093B100B3
:102F40008091B00081608093B00080917A008460AD
:102F500080937A0080917A00826080937A008091D9
:102F60007A00816080937A0080917A0080688093F3
:102F70007A001092C10020910501309106018FEF77
:102F800098E0821B930B90930201809301010E94B1
:102F90003B090CEC11E020E040EC50E064E871E00B
:102FA00080EE93E10E943114813009F0B3C00FB676
:102FB000F8940F928091C6019091C701892B09F076
:102FC0004FC08BEB91E00E94670D82EB91E00E9475
:102FD000670D8BEB91E09093B1018093B00182EB90
:102FE00091E09093AF018093AE0181E590E00E9463
:102FF0001314EC01009781F14F96998388838AE03E
:103000008B8F85E08C8F0FB6F8940F928881998111
:103010002B8D4C8DBC01249F600D711D11247D836F
:103020006C831A8E9B838A832150330B429FB0019D
:10303000439F700D1124860F971F9F838E838FEF00
:103040008D8F8E8FCE0108960E94670DCE0141961E
:103050000E94670D0F900FBED093C701C093C601A9
:103060000F900FBE8091C6019091C701892B09F482
:1030700051C004EC11E023E045E550E069E871E05F
:1030800089E595E10E943114813009F043C0F8943C
:103090002FEF3FEF3093CB012093CA018093E402DE
:1030A0001092C9011092C801A89588E190EC0FB662
:1030B000F894A895809360000FBE90936000A09153
:1030C0009201B0919301CD91CDBFDD91DEBFFF9113
:1030D000EF91DF91CF91BF91AF919F918F917F91B0
:1030E0006F915F914F913F912F911F910F91FF90A1
:1030F000EF90DF90CF90BF90AF909F908F907F9098
:103100006F905F904F903F902F901F900F900FBE49
:103110000F900895809100010E943B09C0E0D0E02B
:103120002097F1F30E941802FBCF0F931F93CF93C8
:10313000DF938230910510F482E090E0E091FB0390
:10314000F091FC0330E020E0B0E0A0E0309799F48B
:103150002115310509F44AC0281B390B24303105EB
:10316000D8F58A819B816115710589F1FB019383F3
:103170008283FE0111C04081518102811381481771
:103180005907E0F04817590799F4109761F0129623
:103190000C93129713961C933296CF01DF91CF9127
:1031A0001F910F9108950093FB031093FC03F4CF3C
:1031B0002115310551F04217530738F0A901DB0101
:1031C0009A01BD01DF01F801C1CFEF01F9CF909362
:1031D000FC038093FB03CDCFFE01E20FF31F81932D
:1031E00091932250310939832883D7CF2091F90355
:1031F0003091FA03232B41F4209103013091040113
:103200003093FA032093F9032091010130910201D8
:103210002115310541F42DB73EB74091050150917C
:103220000601241B350BE091F903F091FA03E21734
:10323000F307A0F42E1B3F0B2817390778F0AC01D9
:103240004E5F5F4F2417350748F04E0F5F1F5093B6
:10325000FA034093F903819391939FCFF0E0E0E06C
:103260009CCFCF93DF930097E9F0FC013297138254
:103270001282A091FB03B091FC03ED0130E020E04D
:103280001097A1F420813181820F931F2091F903BF
:103290003091FA032817390709F061C0F093FA0357
:1032A000E093F903DF91CF910895EA01CE17DF078C
:1032B000E8F54A815B819E0141155105B1F7E901AD
:1032C000FB83EA8349915991C40FD51FEC17FD0781
:1032D00061F4808191810296840F951FE9019983A1
:1032E0008883828193819B838A83F0E0E0E0129659
:1032F0008D919C9113970097B9F52D913C91119761
:10330000CD010296820F931F2091F9033091FA03A9
:103310002817390739F6309751F51092FC031092AF
:10332000FB03B093FA03A093F903BCCFD383C2830A
:1033300040815181840F951FC817D90761F44E5FF2
:103340005F4F88819981480F591F518340838A813B
:103350009B81938382832115310509F0B0CFF093CF
:10336000FC03E093FB039ECFFD01DC01C0CF138281
:103370001282D7CF8F929F92AF92BF92CF92DF925D
:10338000EF92FF92CF93DF93EC01688179818A817C
:103390009B81611571058105910521F464E279ED48
:1033A0008BE597E02DE133EF41E050E00E945E1A9B
:1033B00049015A019B01AC01A7EAB1E40E947D1AC0
:1033C0006B017C01ACEEB4EFA50194010E948B1A55
:1033D000C60ED71EE81EF91EF7FE06C081E0C81A09
:1033E000D108E10880E8F80AC882D982EA82FB8223
:1033F000C701B6019F77DF91CF91FF90EF90DF90EB
:10340000CF90BF90AF909F908F9008958F929F9292
:10341000AF92BF92CF92DF92EF92FF92609107013D
:10342000709108018091090190910A01611571055F
:103430008105910521F464E279ED8BE597E02DE1BA
:1034400033EF41E050E00E945E1A49015A019B01AE
:10345000AC01A7EAB1E40E947D1A6B017C01ACEEDD
:10346000B4EFA50194010E948B1AC60ED71EE81E68
:10347000F91EF7FE06C081E0C81AD108E10880E80D
:10348000F80AC0920701D0920801E0920901F09277
:103490000A01C701B6019F77FF90EF90DF90CF90B0
:1034A000BF90AF909F908F900895609307017093A5
:1034B00008018093090190930A010895052E97FB56
:1034C0001EF400940E94751A57FD07D00E94901AAE
:1034D00007FC03D04EF40C94751A50954095309526
:1034E00021953F4F4F4F5F4F089590958095709570
:1034F00061957F4F8F4F9F4F08950E94B21AA59FED
:10350000900DB49F900DA49F800D911D11240895DE
:10351000B7FF0C947D1A0E947D1A821B930B0895AD
:10352000A1E21A2EAA1BBB1BFD010DC0AA1FBB1FC7
:10353000EE1FFF1FA217B307E407F50720F0A21B39
:10354000B30BE40BF50B661F771F881F991F1A94A6
:1035500069F760957095809590959B01AC01BD01D0
:10356000CF010895A29FB001B39FC001A39F700D2A
:10357000811D1124911DB29F700D811D1124911D7B
:10358000089597FB072E16F4009407D077FD09D015
:103590000E94E21A07FC05D03EF4909581959F4F5A
:1035A0000895709561957F4F0895EE0FFF1F059068
:1035B000F491E02D09940E94B21AB7FF0895821B7E
:1035C000930B0895AA1BBB1B51E107C0AA1FBB1F89
:1035D000A617B70710F0A61BB70B881F991F5A959F
:1035E000A9F780959095BC01CD0108955058BB274F
:1035F000AA270E940E1B0C94811C0E94731C38F099
:103600000E947A1C20F039F49F3F19F426F40C94A0
:10361000701C0EF4E095E7FB0C946A1CE92F0E94E5
:10362000921C58F3BA17620773078407950720F0B6
:1036300079F4A6F50C94B41C0EF4E0950B2EBA2F79
:10364000A02D0B01B90190010C01CA01A0011124A8
:10365000FF27591B99F0593F50F4503E68F11A1654
:10366000F040A22F232F342F4427585FF3CF4695E5
:1036700037952795A795F0405395C9F77EF41F1607
:10368000BA0B620B730B840BBAF09150A1F0FF0FD1
:10369000BB1F661F771F881FC2F70EC0BA0F621FBD
:1036A000731F841F48F4879577956795B795F795AD
:1036B0009E3F08F0B0CF9395880F08F09927EE0F42
:1036C0009795879508950E94461C08F481E0089517
:1036D0000E947C1B0C94811C0E947A1C58F00E9452
:1036E000731C40F029F45F3F29F00C946A1C5111BF
:1036F0000C94B51C0C94701C0E94921C68F39923C6
:10370000B1F3552391F3951B550BBB27AA276217DD
:103710007307840738F09F5F5F4F220F331F441FEA
:10372000AA1FA9F335D00E2E3AF0E0E832D091501E
:103730005040E695001CCAF72BD0FE2F29D0660F0B
:10374000771F881FBB1F261737074807AB07B0E84E
:1037500009F0BB0B802DBF01FF2793585F4F3AF054
:103760009E3F510578F00C946A1C0C94B51C5F3F89
:10377000E4F3983ED4F3869577956795B795F795DA
:103780009F5FC9F7880F911D9695879597F90895C2
:10379000E1E0660F771F881FBB1F6217730784075E
:1037A000BA0720F0621B730B840BBA0BEE1F88F76D
:1037B000E09508950E949A1C88F09F5798F0B92FC1
:1037C0009927B751B0F0E1F0660F771F881F991F56
:1037D0001AF0BA95C9F714C0B13091F00E94B41C28
:1037E000B1E008950C94B41C672F782F8827B85F38
:1037F00039F0B93FCCF3869577956795B395D9F7AE
:103800003EF490958095709561957F4F8F4F9F4FB7
:103810000895E89409C097FB3EF4909580957095C3
:1038200061957F4F8F4F9F4F9923A9F0F92F96E90C
:10383000BB279395F695879577956795B795F11181
:10384000F8CFFAF4BB0F11F460FF1BC06F5F7F4F1E
:103850008F4F9F4F16C0882311F096E911C0772330
:1038600021F09EE8872F762F05C0662371F096E839
:10387000862F70E060E02AF09A95660F771F881F08
:10388000DAF7880F9695879597F90895990F0008AC
:10389000550FAA0BE0E8FEEF16161706E807F90722
:1038A000C0F012161306E407F50798F0621B730BBD
:1038B000840B950B39F40A2661F0232B242B252B3E
:1038C00021F408950A2609F4A140A6958FEF811DE1
:1038D000811D089597F99F6780E870E060E0089582
:1038E0009FEF80EC089500240A9416161706180618
:1038F0000906089500240A941216130614060506F4
:103900000895092E0394000C11F4882352F0BB0F84
:1039100040F4BF2B11F460FF04C06F5F7F4F8F4FE7
:103920009F4F089557FD9058440F551F59F05F3F22
:1039300071F04795880F97FB991F61F09F3F79F0D1
:1039400087950895121613061406551FF2CF469553
:10395000F1DF08C0161617061806991FF1CF8695D5
:103960007105610508940895E894BB2766277727B9
:10397000CB0197F908950E94461C08F48FEF089533
:103980000E94D31C0C94811C0E94731C38F00E946E
:103990007A1C20F0952311F00C946A1C0C94701C76
:1039A00011240C94B51C0E94921C70F3959FC1F3D6
:1039B000950F50E0551F629FF001729FBB27F00DDD
:1039C000B11D639FAA27F00DB11DAA1F649F662732
:1039D000B00DA11D661F829F2227B00DA11D621F81
:1039E000739FB00DA11D621F839FA00D611D221F3B
:1039F000749F3327A00D611D231F849F600D211D1F
:103A0000822F762F6A2F11249F5750409AF0F1F0A1
:103A100088234AF0EE0FFF1FBB1F661F771F881F0A
:103A200091505040A9F79E3F510580F00C946A1CBC
:103A30000C94B51C5F3FE4F3983ED4F386957795DC
:103A40006795B795F795E7959F5FC1F7FE2B880FB0
:103A5000911D9695879597F90895FB01DC0102C0A9
:103A600001900D9241505040D8F70895DC0101C0FB
:0E3A70006D9341505040E0F70895F894FFCF59
:103A7E00030000FD03800001000000777C395E79B1
:103A8E00713D76060E763800543F7367506D783E62
:103A9E003E00766E5B3F065B4F666D7D077F6F77F0
:103AAE007C395E797101000A006400E803000000B1
:103ABE00000C01DF003206B500D800C500B60000CC
:103ACE00000000A10105064201EE017301510165DE
:103ADE0001706C61796572315F7461736B00706C2B
:103AEE0061796572325F7461736B0057494E0044A1
:103AFE005241570049444C4500546D722053766331
:023B0E000000B5
:00000001FF
