:100000000C9462000C948A000C948A000C948A0070
:100010000C948A000C948A000C948A000C948A0038
:100020000C948A000C948A000C948A000C948A0028
:100030000C948A000C948A000C948A000C948A0018
:100040000C94EB0C0C948A000C945B0D0C94350D05
:100050000C948A000C948A000C948A000C948A00F8
:100060000C94CC0B0C948A000000000024002700A4
:100070002A0000000000250028002B0000000000DE
:1000800023002600290004040404040404040202DA
:100090000202020203030303030301020408102007
:1000A0004080010204081020010204081020000012
:1000B0000008000201000003040700000000000027
:1000C0000000AB0D11241FBECFEFD8E0DEBFCDBFC7
:1000D00011E0A0E0B1E0EEE1F6E202C005900D9281
:1000E000A436B107D9F723E0A4E6B1E001C01D9220
:1000F000AC34B207E1F710E0C2E6D0E004C02197CB
:10010000FE010E94C910C136D107C9F70E943E0EF8
:100110000C940D130C9400002091C601260F332778
:10012000331F21323105ECF420911102FC0190E0E3
:1001300080E0243069F082E00895A091C601219109
:10014000AC014C555E4FA40FB52FB11D2C930196F9
:10015000861798F38091C601680F6093C60180E00E
:10016000089581E00895089508950895E091180292
:1001700080911702E81730F4F0E0E75EFD4F8081D0
:1001800090E008958FEF9FEF08959091180280916D
:1001900017022FEF3FEF981748F4E92FF0E0E75EE2
:1001A000FD4F208130E09F5F90931802C9010895B0
:1001B0008091170290911802891B990B0895CF9294
:1001C000DF92EF92FF920F931F93CF93DF937C0107
:1001D000CB018A0120913C02222389F0EB016B01C3
:1001E000C40ED51ECC15DD0569F06991D701ED91DE
:1001F000FC910190F081E02DC7010995F3CF642FA8
:100200000E948C00C801DF91CF911F910F91FF9048
:10021000EF90DF90CF900895CF93DF931F92CDB7EB
:10022000DEB7698320913C022223F9F02091390244
:10023000203258F021E030E0FC013383228390E04B
:1002400080E00F90DF91CF91089580913A02E82FDE
:10025000F0E0ED57FE4F998190838F5F80933A02D3
:100260008093390281E090E0ECCF61E0CE0101960D
:100270000E948C00F7CFDC01ED91FC910190F081A0
:10028000E02D0994833081F028F4813099F0823098
:10029000A9F008958730A9F08830C9F08430B1F40E
:1002A000809180008F7D03C0809180008F77809344
:1002B0008000089584B58F7784BD089584B58F7DBF
:1002C000FBCF8091B0008F778093B000089580912C
:1002D000B0008F7DF9CFCF93DF93282F30E0F90165
:1002E000E255FF4F8491F901E656FF4FD491F90191
:1002F000EA57FF4FC491CC23A1F081110E94420123
:10030000EC2FF0E0EE0FFF1FE458FF4FA591B491E2
:10031000EC91ED2381E090E009F480E0DF91CF9152
:10032000089580E090E0FACF1F93CF93DF93282FBA
:1003300030E0F901E255FF4F8491F901E656FF4F95
:10034000D491F901EA57FF4FC491CC23A9F0162F9D
:1003500081110E944201EC2FF0E0EE0FFF1FEE58DA
:10036000FF4FA591B4918FB7F894EC91111108C08B
:10037000D095DE23DC938FBFDF91CF911F9108953D
:10038000DE2BF8CF1092110281E0809310021092C0
:100390000B0261E082E10E94940161E083E10E942E
:1003A0009401E9EBF0E080818E7F808380818D7FF6
:1003B000808388E48093B80085E48093BC0008952E
:1003C000CF93DF9391E09093A3018823B9F0C0917C
:1003D000B800D091BA008091BC008A7B8093BC00A9
:1003E00060E082E10E94940160E083E10E94940158
:1003F0000E94C201D093BA00C093B800DF91CF91A0
:100400000895CF93DF9390E0FC01E656FF4F2491CF
:100410008A579F4FFC0184918823C9F090E0880F90
:10042000991FFC01E859FF4FA591B491FC01EE58CA
:10043000FF4FC591D49161110DC09FB7F8948C9175
:10044000209582238C938881282328839FBFDF9166
:10045000CF910895623051F49FB7F8943C91822F68
:10046000809583238C93E8812E2BEFCF8FB7F89460
:10047000EC912E2B2C938FBFEACFCF92DF92EF928D
:10048000FF920F931F93CF93DF93EC01E62E98E03A
:10049000F92E0BE811E061E088810E940102C80199
:1004A0000197F1F7CE2CD12C60E0E0FE61E089816C
:1004B0000E940102C8010197F1F760E088810E9463
:1004C0000102C8010197F1F7D594C794EC2CFA9476
:1004D000F110E1CF61E088810E94010260E0898132
:1004E0000E940102C8010197F1F760E088810E9433
:1004F0000102C8010197F1F789810E946B01F82E72
:10050000811104C061E089810E9401020BE811E0C1
:10051000C8010197F1F761E088810E940102C801DA
:100520000197F1F781E0F11001C080E0DF91CF91F8
:100530001F910F91FF90EF90DF90CF9008950F9350
:100540001F93CF93DF938C0161E0FC0181810E94B6
:100550000102CBE8D1E0CE010197F1F760E0F801AC
:1005600080810E940102CE010197F1F760E0F8015D
:1005700081810E9401022197F1F7DF91CF911F91B4
:100580000F91089561E0FC0181810E9401028BE8D6
:1005900091E00197F1F70895EF92FF920F931F9367
:1005A000CF93DF93EC017B010E94C20260E4CE0195
:1005B0000E943D02CE010E949F02CE010E94C20213
:1005C00060ECCE010E943D02870184E0E80EF11C40
:1005D000F80161918F01CE010E943D020E151F05A9
:1005E000B9F7CE010E949F02CE010E94C2026A8129
:1005F0006F706058CE010E943D02CE01DF91CF9115
:100600001F910F91FF90EF900C949F023FB7F894C9
:1006100080917F0190918001A0918101B091820130
:1006200026B5A89B05C02F3F19F00196A11DB11D4D
:100630003FBFBA2FA92F982F8827BC01CD01620F89
:10064000711D811D911D42E0660F771F881F991F44
:100650004A95D1F70895CF92DF92EF92FF920F93D0
:100660001F93CF93DF93D091390281E0D13208F00C
:100670009CC0C0913B020E9406036B017C018091EB
:10068000110281116CC082E08093110281E080939D
:1006900010028FEF80930F0210920E02D0930D0282
:1006A000A3E8B1E0EBEEF1E080E0D8138DC010924A
:1006B0000C0280910C02CC0FC82BC0930C028091CD
:1006C0000B02813009F084C010920B020E940603D5
:1006D0006B017C0180910C028093BB00809113021E
:1006E00090911402A0911502B0911602892B8A2BC9
:1006F0008B2BA1F00E9406030091130210911402AB
:1007000020911502309116026C197D098E099F09FE
:10071000061717072807390708F442C08091BC0064
:1007200083FDD8CF85EC8093BC000E9406036B014B
:100730007C0180911102823009F44CC080910F023B
:100740008F3F09F469C080910F02803209F466C0BE
:1007500080910F02803309F463C084E026C0809149
:10076000130290911402A0911502B0911602892BE8
:100770008A2B8B2B09F483CF0E940603009113026E
:100780001091140220911502309116026C197D0906
:100790008E099F09061717072807390708F06FCF3A
:1007A000809112020E94E00185E010923A021092BC
:1007B000390210923C02DF91CF911F910F91FF906F
:1007C000EF90DF90CF9008959D9191938F5F6DCFC3
:1007D00085EEA9CF8091130290911402A091150289
:1007E000B0911602892B8A2B8B2B09F4A2CF0E9481
:1007F000060300911302109114022091150230910A
:1008000016026C197D098E099F090617170728071C
:10081000390708F08ECFC4CF80E0C7CF82E0C5CFC4
:1008200083E0C3CFCF92DF92EF92FF921F93CF93DB
:10083000DF93182FC6EED2E078876F832FE931E07F
:10084000DB010E94AE1024EB30E040E050E00E945B
:10085000371069017A018FE5C80ED11CE11CF11C2B
:1008600089819A81288131E030933C0220933B02B8
:1008700010923A0210923902A4E01A9FB00111249A
:100880006A5F7F4FDC01ED91FC910190F081E02DDA
:10089000099570E060E089819A810E943B0170E0D7
:1008A00060E089819A810E943B01B60189819A8129
:1008B0000E943B016D2D70E089819A810E943B016D
:1008C00089819A81DF91CF911F91FF90EF90DF9006
:1008D000CF900C942B031F93CF93DF93162FC6EE6C
:1008E000D2E0A981BA81988121E020933C029093C3
:1008F0003B0210923A0210923902ED91FC9111974D
:100900000190F081E02D682FCD01099589819A81B0
:10091000DC01ED91FC910190F081E02D612F0995B2
:1009200089819A81DF91CF911F910C942B038F9233
:100930009F92AF92BF92CF92DF92EF92FF924B01C4
:100940005C010E9406036B017C010E9406036C1986
:100950007D098E099F09683E734081059105A8F3C2
:1009600021E0821A9108A108B10888EEC80E83E040
:10097000D81EE11CF11C81149104A104B10429F7D3
:10098000FF90EF90DF90CF90BF90AF909F908F90AF
:1009900008952FB7F89460917B0170917C0180914C
:1009A0007D0190917E012FBF089570E060E080E0AE
:1009B0000E94120470E060E081E00E94120470E086
:1009C00060E082E00E94120470E060E083E00E9438
:1009D000120470E060E084E00E94120470E060E0C5
:1009E00085E00E94120470E060E086E00E9412043C
:1009F00070E060E087E00E94120470E060E088E050
:100A00000E94120470E060E089E00E9412048EEB04
:100A100099E0909379018093780108950895AF92B9
:100A2000BF92CF92DF92EF92FF920F931F93CF93DB
:100A3000DF936C017B018B01040F151FEB015E013D
:100A4000AE18BF08C017D10759F06991D601ED91D2
:100A5000FC910190F081E02DC6010995892B79F771
:100A6000C501DF91CF911F910F91FF90EF90DF9023
:100A7000CF90BF90AF90089590E080E00895FC0182
:100A8000538D448D252F30E0842F90E0821B930BF3
:100A9000541710F0CF96089501970895FC01918D99
:100AA000828D981761F0A28DAE0FBF2FB11D5D969C
:100AB0008C91928D9F5F9F73928F90E008958FEF3E
:100AC0009FEF0895FC01918D828D981731F0828DF2
:100AD000E80FF11D858D90E008958FEF9FEF089549
:100AE000FC01918D228D892F90E0805C9F4F821BAD
:100AF00091098F73992708958DE392E00E94700504
:100B000021E0892B09F420E0822F089580E090E015
:100B1000892B29F00E947C0581110C940000089516
:100B2000FC01A48DA80FB92FB11DA35ABF4F2C9162
:100B3000848D90E001968F739927848FA689B78959
:100B40002C93A089B1898C91837080648C93938D50
:100B5000848D981306C00288F389E02D80818F7DF3
:100B600080830895EF92FF920F931F93CF93DF93AB
:100B7000EC0181E0888F9B8D8C8D98131AC0E889D9
:100B8000F989808185FF15C09FB7F894EE89FF89A8
:100B90006083E889F98980818370806480839FBF46
:100BA00081E090E0DF91CF911F910F91FF90EF9046
:100BB0000895F62E0B8D10E00F5F1F4F0F73112756
:100BC000E02E8C8D8E110CC00FB607FCFACFE88991
:100BD000F989808185FFF5CFCE010E949005F1CF84
:100BE000EB8DEC0FFD2FF11DE35AFF4FF0829FB705
:100BF000F8940B8FEA89FB8980818062CFCFCF93F5
:100C0000DF93EC01888D8823B9F0AA89BB89E88934
:100C1000F9898C9185FD03C0808186FD0DC00FB6DA
:100C200007FCF7CF8C9185FFF2CF808185FFEDCF58
:100C3000CE010E949005E9CFDF91CF9108951F93D7
:100C4000CF93DF9300D000D0CDB7DEB719821A82E0
:100C50001B821C82FB019E012F5F3F4FAB014C5F4B
:100C60005F4FB901A191AA2361F00A2E000CBB0BC2
:100C7000A552BF4F1C91D9011D939D01E417F507A3
:100C800089F70E94CC020F900F900F900F90DF9188
:100C9000CF911F910895BF92CF92DF92EF92FF9272
:100CA0000F931F93CF93DF9300D000D0CDB7DEB763
:100CB0008C01DC0113964D935D936D937C93169795
:100CC000CB01BA010E94B311F62FB72E8CE1E82EAA
:100CD00081E0F82E9E012F5F3F4F6901E1E0D701CF
:100CE0007E916E917D018F2F9B2D0E949A10611530
:100CF000710549F4EE2329F08C2D821B40E08330EE
:100D000059F44FE309C06F70E62FF0E0EC5FFE4F3F
:100D10004081F82FB92EE0E0D6014D936D01B4E18A
:100D2000EB16B1E0FB06D9F6B901C8010E94CC026E
:100D30000F900F900F900F90DF91CF911F910F9117
:100D4000FF90EF90DF90CF90BF900895CF93DF9307
:100D500000D000D0CDB7DEB7FC0119821A821B8209
:100D60001C829781977098609283BE016F5F7F4F5E
:100D7000CF010E94CC0290E080E00F900F900F9086
:100D80000F90DF91CF910895CF92DF92EF92FF9273
:100D9000CF93DF93EC016A017B018D819E81892BCA
:100DA00011F588810E946B01892BE9F489819A8170
:100DB000AB81BC814E96A11DB11DC816D906EA06AD
:100DC000FB0688F081E090E09E838D830E94C90439
:100DD00069837A838B839C83DF91CF91FF90EF901F
:100DE000DF90CF9008958D819E810197A1F08D8134
:100DF0009E81029789F789819A81AB81BC818A564D
:100E00009F4FAF4FBF4FC816D906EA06FB0620F327
:100E10001E821D82DBCF88810E946B01019739F70A
:100E200089819A81AB81BC814E96A11DB11DC816E6
:100E3000D906EA06FB06D8F282E090E0C5CFCF9350
:100E4000DF93EC0162E088810E94010219821A821C
:100E50001B821C8290E080E0DF91CF9108956AE5CB
:100E600071E087EF92E00E941F066AE571E08FEE65
:100E700092E00E941F0685ED94E0909379018093A3
:100E800078010895CF93DF9300D000D0CDB7DEB7BF
:100E900019821A821B821C82BE016F5F7F4F87EF0F
:100EA00092E00E94CC026FE571E08FEE92E00E942A
:100EB0001F0685ED94E090937901809378010F905F
:100EC0000F900F900F90DF91CF910895CF93DF9304
:100ED00000D000D0CDB7DEB76FE571E087EF92E0CC
:100EE0000E941F0619821A821B821C82BE016F5F3C
:100EF0007F4F8FEE92E00E94CC0285ED94E09093BC
:100F00007901809378010F900F900F900F90DF91EF
:100F1000CF91089570E060E085E00E94120470E0D7
:100F200060E086E00E94120470E060E087E00E94CA
:100F3000120470E060E088E00E94120470E060E05B
:100F400089E00E9412048AEA97E0909377018093E7
:100F5000760108950E94C90460936E0170936F0139
:100F6000809370019093710189EA9BE090937701DF
:100F70008093760108950F931F930E94C9040091F6
:100F80006E0110916F012091700130917101601B11
:100F9000710B820B930B693E73408105910530F014
:100FA0008AE897E090937701809376011F910F91E3
:100FB000089560916D016F5F60936D0170E090E046
:100FC00080E00E94E911AB01BC0187EF92E00E9432
:100FD0004B068BEB97E09093770180937601089511
:100FE00080910B0390910C03019731F489ED97E008
:100FF00090937701809376010C94BB076AE570E0CB
:1010000089E00E94120480EF97E09093770180932B
:10101000760108958091120390911303019731F4A2
:1010200089ED97E090937701809376010C94BB074C
:101030006AE570E088E00E9412048AE098E09093EC
:1010400077018093760108958091190390911A0396
:10105000019731F489ED97E09093770180937601C1
:101060000C94BB076AE570E087E00E94120484E2FA
:1010700098E0909377018093760108958091200302
:1010800090912103019731F489ED97E090937701D6
:10109000809376010C94BB076AE570E086E00E94BD
:1010A00012048EE398E0909377018093760108957F
:1010B0008091270390912803019731F489ED97E0FF
:1010C00090937701809376010C94BB076AE570E0FA
:1010D00085E00E94120488E598E090937701809360
:1010E0007601089590916C0180916D01891738F413
:1010F00086E697E090937901809378010895981798
:1011000018F482E497E0F6CF8FE297E0F3CF70E037
:1011100060E080E00E94120470E060E081E00E94E4
:10112000120470E060E082E00E94120470E060E06F
:1011300083E00E94120470E060E084E00E941204E8
:1011400087EA98E0909379018093780108950E944E
:10115000C904609368017093690180936A01909358
:101160006B0186E89BE09093790180937801089564
:101170000F931F930E94C9040091680110916901A7
:1011800020916A0130916B01601B710B820B930BF4
:10119000693E73408105910530F087E898E09093AF
:1011A0007901809378010E94C90400916401109133
:1011B00065012091660130916701601B710B820B04
:1011C000930B61367A4E8105910560F082E798E0D5
:1011D00090937901809378018EE095E09093770168
:1011E000809376011F910F91089560916C016F5F5C
:1011F00060936C0170E090E080E00E94E911AB0127
:10120000BC0187EF92E00E944B0688EB98E0909338
:10121000790180937801089580912E0390912F0396
:10122000019731F485EF98E09093790180937801EC
:101230000C94B8086AE570E084E00E9412048CE027
:1012400099E0909379018093780108958091350316
:1012500090913603019731F485EF98E090937901EE
:10126000809378010C94B8086AE570E083E00E94EE
:10127000120486E299E090937901809378010895B1
:1012800080913C0390913D03019731F485EF98E004
:1012900090937901809378010C94B8086AE570E026
:1012A00082E00E94120480E499E090937901809397
:1012B000780108958091430390914403019731F49C
:1012C00085EF98E090937901809378010C94B808A9
:1012D0006AE570E081E00E9412048AE599E090934B
:1012E000790180937801089580914A0390914B038E
:1012F000019731F485EF98E090937901809378011C
:101300000C94B8086AE570E080E00E94120484E75B
:1013100099E0909379018093780108950E94C9041F
:1013200060936401709365018093660190936701F7
:1013300087EA98E090937901809378018AEA97E0B0
:101340009093770180937601089510926C0110922A
:101350006D0140E050E0BA0187EF92E00E944B0639
:1013600040E050E0BA018FEE92E00E944B068EE81A
:1013700099E0909379018093780108958091040316
:1013800090910503019731F485EA99E090937901F2
:101390008093780108958F929F92AF92BF92CF92DF
:1013A000DF92EF92FF920F931F93CF936B017C011B
:1013B00020E030E040E85FE30E943C1187FDE1C09F
:1013C00020E030EC4AE555E4C701B6010E949B12CB
:1013D00018163CF4C12C30ECD32E3AE5E32E35E45C
:1013E000F32E6091E9027091EA028091EB029091F4
:1013F000EC020E94E9114B015C0120E030E040E882
:1014000055E4C701B6010E94A0129B01AC01C501C1
:10141000B4010E94411120E030E040E05FE30E940F
:10142000D01020E030E040E85FE30E94CF106B0175
:101430007C0120E030E040E450E40E943C1187FD54
:10144000A7C020E030E04FE753E4C701B6010E9497
:101450009B12181634F4C12CD12C9FE7E92E93E48B
:10146000F92EC701B6010E94BA11F62E8091E7024B
:101470009091E8022091E60231E030933C02209303
:101480003B0210923A0210923902DC01ED91FC917C
:101490000190F081E02D60E009958091E702909144
:1014A000E8020E942B03C091E6020E9406034B0152
:1014B0005C0180911102811171C081E08093110261
:1014C000809310029FEF90930F0210920E021092E1
:1014D0000D0280930C0280910C02CC0FC82BC0939C
:1014E0000C0280910B02813009F0B2C010920B0205
:1014F0000E9406034B015C0180910C028093BB00AB
:101500008091130290911402A0911502B0911602DD
:10151000892B8A2B8B2BA1F00E94060300911302CA
:101520001091140220911502309116026819790960
:101530008A099B09061717072807390708F44FC0BF
:101540008091BC0083FDD8CF85EC8093BC000E94C5
:1015500006034B015C0180911102813009F47AC0CD
:1015600080910E02811198C080910E02EBEEF1E0A5
:10157000A9E1B2E090E09817B9F121912D939F5F16
:10158000FACFC12CD12C20E8E22E2FE3F22E29CF66
:10159000C12CD12C80E4E82EFE2C63CF8091130265
:1015A00090911402A0911502B0911602892B8A2BFA
:1015B0008B2B09F47ECF0E94060300911302109139
:1015C00014022091150230911602681979098A09CE
:1015D0009B09061717072807390708F06ACF80917B
:1015E00012020E94E00180E010921802809317021C
:1015F0008091E7029091E802DC01ED91FC91028478
:10160000F385E02D0995C82F682F6F76606180E023
:101610000E946B046F2D8EEF0E946B046C2F80E094
:101620000E946B0465E070E080E090E00E94970407
:101630006C2F606A80E0CF911F910F91FF90EF9027
:10164000DF90CF90BF90AF909F908F900C946B04E1
:1016500085EE7BCF8091130290911402A091150228
:10166000B0911602892B8A2B8B2B09F474CF0E9420
:10167000060300911302109114022091150230917B
:101680001602681979098A099B090617170728079E
:10169000390708F060CFA3CF81E068CF85ED809354
:1016A000BC008091130290911402A0911502B09198
:1016B00016020796A11DB11D23E0B695A795979533
:1016C00087952A95D1F72091BC0024FD03C0109284
:1016D0001102089540911302509114026091150275
:1016E00070911602452B462B472B69F30097A105F5
:1016F000B10541F025E32A95F1F700000197A10912
:10170000B109E1CF809112020C94E0010E94DF0F39
:1017100025E030E040E050E00E9437106F5F82E843
:1017200099E0613081F088E699E0623061F08EE402
:1017300099E0633041F084E399E0643021F0653052
:1017400031F48AE199E090937901809378010C94C7
:10175000B8080E94DF0F25E030E040E050E00E9432
:1017600037106F5F86E698E0613081F08CE498E096
:10177000623061F082E398E0633041F088E198E004
:10178000643021F0653031F48EEF97E0909377016B
:10179000809376010C94BB071F920F920FB60F92A5
:1017A00011242F933F934F935F936F937F938F9366
:1017B0009F93AF93BF93EF93FF938091B900887F7E
:1017C000803609F44AC0F0F5883209F4A7C018F54C
:1017D000803109F49BC0B8F4882309F4F9C088303B
:1017E00009F494C0FF91EF91BF91AF919F918F91B8
:1017F0007F916F915F914F913F912F910F900FBE0D
:101800000F901F901895883109F488C0803251F7E5
:1018100080930F0214C0803409F49DC040F48033DB
:10182000B9F38833F9F680930F0285ECB0C08035A8
:1018300009F485C0883509F496C0883499F60E9469
:101840004E0BD0CF883909F48CC038F5883729F091
:1018500050F4883611F0803729F683E08093110226
:101860001092EA0157C0883809F47BC0803919F01A
:10187000803809F0B7CF8091EA01803208F071C05A
:10188000E091EA0181E08E0F8093EA018091BB0034
:10189000F0E0E653FE4F80833DC0803B39F0E0F43A
:1018A000803A09F479C0883A09F09CCF84E08093AB
:1018B00011021092C7011092C601E091C401F0918B
:1018C000C50109958091C60181110FC081E0809307
:1018D000C6011092A40109C0803C09F4A6CF883C3F
:1018E00009F4A3CF883B09F07DCFE091C70181E0E7
:1018F0008E0F8093C701F0E0EC55FE4F80818093FE
:10190000BB009091C7018091C60129C080910C0253
:101910008093BB0085EC8093BC0064CF90910E0255
:1019200080910D02981758F5E0910E0281E08E0F1C
:1019300080930E02F0E0E551FE4F8081E9CFE09107
:101940000E0281E08E0F80930E028091BB00F0E0CA
:10195000E551FE4F808390910E0280910D02981701
:10196000C8F285E8D8CFE0910E0281E08E0F809317
:101970000E028091BB00F0E0E551FE4F8083809124
:10198000100281115CCF81E080930B0284EA809386
:10199000BC001092110226CF85EC8093BC001092FF
:1019A00011028091EA01803230F4E091EA01F0E026
:1019B000E653FE4F10826091EA0170E0E091C801A9
:1019C000F091C9018AEC91E009951092EA010ACFE1
:1019D00010920F0234CF1F920F920FB60F92112464
:1019E0002F933F938F939F93AF93BF9380917B01EE
:1019F00090917C01A0917D01B0917E0130917A019E
:101A000023E0230F2D3758F50196A11DB11D20931A
:101A10007A0180937B0190937C01A0937D01B09328
:101A20007E0180917F0190918001A0918101B09110
:101A300082010196A11DB11D80937F0190938001C9
:101A4000A0938101B0938201BF91AF919F918F913B
:101A50003F912F910F900FBE0F901F90189526E881
:101A6000230F0296A11DB11DD2CF1F920F920FB668
:101A70000F9211242F933F934F935F936F937F9314
:101A80008F939F93AF93BF93EF93FF938DE392E078
:101A90000E949005FF91EF91BF91AF919F918F911F
:101AA0007F916F915F914F913F912F910F900FBE5A
:101AB0000F901F9018951F920F920FB60F9211243E
:101AC0002F938F939F93EF93FF93E0914D02F091AB
:101AD0004E028081E0915302F091540282FD1BC0BE
:101AE0009081809156028F5F8F73209157028217E9
:101AF00041F0E0915602F0E0E35CFD4F958F80935A
:101B00005602FF91EF919F918F912F910F900FBEF1
:101B10000F901F9018958081F4CFCF93DF93EC0145
:101B2000862F6883498360E00E94010260E089811A
:101B30000E94010260E088810E94940160E0898136
:101B40000E9494011B821C821D821E8287E08F836B
:101B5000DF91CF910895CF93DF93CAEDD2E01B823E
:101B60001A8288EE93E0A0E0B0E08C839D83AE8380
:101B7000BF832AE331E039832883EDE3F2E0138267
:101B8000128284839583A683B7838CE491E091834A
:101B9000808385EC90E09587848784EC90E097873C
:101BA000868780EC90E0918B808B81EC90E0938B2A
:101BB000828B82EC90E0958B848B86EC90E0978B07
:101BC000868B118E128E138E148EE5E4F3E082E084
:101BD000808316821582EEE3F3E083E08083168231
:101BE0001582E7E3F3E084E0808316821582E0E368
:101BF000F3E085E0808316821582E9E2F3E086E077
:101C0000808316821582E2E2F3E087E08083168209
:101C10001582EBE1F3E088E0808316821582E4E12F
:101C2000F3E089E0808316821582EDE0F3E08AE03C
:101C3000808316821582E6E0F3E08BE080831682D3
:101C40001582EFEFF2E08CE08083168215824FE080
:101C50006EE087EF92E00E948D0D41E160E18FEE32
:101C600092E00E948D0DE6EEF2E080E48083D28364
:101C7000C18310861782DF91CF910895789484B53F
:101C8000826084BD84B5816084BD85B5826085BD78
:101C900085B5816085BD80916E00816080936E0006
:101CA00010928100809181008260809381008091F8
:101CB00081008160809381008091800081608093A9
:101CC00080008091B10084608093B1008091B00069
:101CD00081608093B00080917A00846080937A0064
:101CE00080917A00826080937A0080917A0081608E
:101CF00080937A0080917A00806880937A001092B5
:101D0000C100E0914D02F0914E0282E08083E091AB
:101D10004902F0914A021082E0914B02F0914C028C
:101D200080E1808310925502E0915102F0915202BD
:101D300086E08083E0914F02F091500280818061C3
:101D40008083E0914F02F09150028081886080830F
:101D5000E0914F02F0915002808180688083E09191
:101D60004F02F091500280818F7D808385E493E063
:101D70000E941F078EE393E00E941F0787E393E012
:101D80000E941F0780E393E00E941F0789E293E00F
:101D90000E941F0782E293E00E941F078BE193E0FD
:101DA0000E941F0784E193E00E941F078DE093E0EB
:101DB0000E941F0786E093E00E941F078FEF92E0CA
:101DC0000E941F0787EF92E00E94A6068FEE92E026
:101DD0000E94A606109218021092170210923A0260
:101DE000109239020E94C20183EB90E09093C501EA
:101DF0008093C40184EB90E09093C9018093C80163
:101E000060E880E00E946B046AE070E080E090E0AF
:101E10000E94970460E070E08AE794E40E94CB0996
:101E200080E498E7ADE7B1E08093E9029093EA029D
:101E3000A093EB02B093EC0260E070E088E492E4DF
:101E40000E94CB0985ED94E090937901809378010D
:101E50008EE095E09093770180937601C0E0D0E02A
:101E60000E94C9046B017C01C0927201D09273017F
:101E7000E0927401F0927501BC01A60185E493E043
:101E80000E94C406B701A6018EE393E00E94C40637
:101E9000B701A60187E393E00E94C406B701A6013B
:101EA00080E393E00E94C406B701A60189E293E0B3
:101EB0000E94C406B701A60182E293E00E94C40614
:101EC000B701A6018BE193E00E94C406B701A60109
:101ED00084E193E00E94C406B701A6018DE093E07F
:101EE0000E94C406B701A60186E093E00E94C406E2
:101EF000B701A6018FEF92E00E94C406E09178013D
:101F0000F09179010995E0917601F09177010995B9
:101F1000209709F4A5CF0E947C05882309F4A0CF5F
:101F20000E9400009DCF8F929F92AF92BF92CF925E
:101F3000DF92EF92FF92CF93DF93EC01688179817A
:101F40008A819B81611571058105910521F464E207
:101F500079ED8BE597E02DE133EF41E050E00E9411
:101F6000371049015A019B01AC01A7EAB1E40E9474
:101F700056106B017C01ACEEB4EFA50194010E94F8
:101F80006410C60ED71EE81EF91EF7FE06C081E0DB
:101F9000C81AD108E10880E8F80AC882D982EA8222
:101FA000FB82C701B6019F77DF91CF91FF90EF9041
:101FB000DF90CF90BF90AF909F908F9008958F92B9
:101FC0009F92AF92BF92CF92DF92EF92FF92609179
:101FD000000170910101809102019091030161154E
:101FE00071058105910521F464E279ED8BE597E0B7
:101FF0002DE133EF41E050E00E94371049015A01D2
:102000009B01AC01A7EAB1E40E9456106B017C0170
:10201000ACEEB4EFA50194010E946410C60ED71E69
:10202000E81EF91EF7FE06C081E0C81AD108E108D3
:1020300080E8F80AC0920001D0920101E09202010A
:10204000F0920301C701B6019F77FF90EF90DF90F8
:10205000CF90BF90AF909F908F90089560930001B4
:102060007093010180930201909303010895052E5E
:1020700097FB1EF400940E944E1057FD07D00E945B
:10208000691007FC03D04EF40C944E105095409507
:10209000309521953F4F4F4F5F4F08959095809514
:1020A000709561957F4F8F4F9F4F08950E948B10C1
:1020B000A59F900DB49F900DA49F800D911D11249C
:1020C0000895B7FF0C9456100E945610821B930B74
:1020D0000895A1E21A2EAA1BBB1BFD010DC0AA1F69
:1020E000BB1FEE1FFF1FA217B307E407F50720F081
:1020F000A21BB30BE40BF50B661F771F881F991FFC
:102100001A9469F760957095809590959B01AC0144
:10211000BD01CF010895A29FB001B39FC001A39F4D
:10212000700D811D1124911DB29F700D811D112410
:10213000911D089597FB072E16F4009407D077FDA4
:1021400009D00E94B51007FC05D03EF4909581950A
:102150009F4F0895709561957F4F08950E948B1051
:10216000B7FF0895821B930B0895AA1BBB1B51E177
:1021700007C0AA1FBB1FA617B70710F0A61BB70BF7
:10218000881F991F5A95A9F780959095BC01CD019C
:102190000895EE0FFF1F0590F491E02D099450581B
:1021A000BB27AA270E94E7100C9461120E945312C9
:1021B00038F00E945A1220F039F49F3F19F426F4A7
:1021C0000C9450120EF4E095E7FB0C944A12E92FA0
:1021D0000E94721258F3BA176207730784079507B3
:1021E00020F079F4A6F50C9494120EF4E0950B2EE1
:1021F000BA2FA02D0B01B90190010C01CA01A00159
:102200001124FF27591B99F0593F50F4503E68F1B3
:102210001A16F040A22F232F342F4427585FF3CFF4
:10222000469537952795A795F0405395C9F77EF4C5
:102230001F16BA0B620B730B840BBAF09150A1F00E
:10224000FF0FBB1F661F771F881FC2F70EC0BA0F94
:10225000621F731F841F48F4879577956795B7951C
:10226000F7959E3F08F0B0CF9395880F08F0992717
:10227000EE0F9795879508950E94261208F481E045
:1022800008950E9455110C9461120E945A1258F040
:102290000E94531240F029F45F3F29F00C944A1237
:1022A00051110C9495120C9450120E94721268F302
:1022B0009923B1F3552391F3951B550BBB27AA27FF
:1022C00062177307840738F09F5F5F4F220F331F39
:1022D000441FAA1FA9F335D00E2E3AF0E0E832D001
:1022E00091505040E695001CCAF72BD0FE2F29D004
:1022F000660F771F881FBB1F261737074807AB07D6
:10230000B0E809F0BB0B802DBF01FF2793585F4F4A
:102310003AF09E3F510578F00C944A120C949512B5
:102320005F3FE4F3983ED4F3869577956795B7952C
:10233000F7959F5FC9F7880F911D9695879597F937
:102340000895E1E0660F771F881FBB1F62177307B0
:102350008407BA0720F0621B730B840BBA0BEE1FC5
:1023600088F7E09508950E94BA116894B1110C9411
:10237000951208950E947A1288F09F5798F0B92F0D
:102380009927B751B0F0E1F0660F771F881F991FAA
:102390001AF0BA95C9F714C0B13091F00E949412A6
:1023A000B1E008950C949412672F782F8827B85FB6
:1023B00039F0B93FCCF3869577956795B395D9F702
:1023C0003EF490958095709561957F4F8F4F9F4F0C
:1023D0000895E89409C097FB3EF490958095709518
:1023E00061957F4F8F4F9F4F9923A9F0F92F96E961
:1023F000BB279395F695879577956795B795F111D6
:10240000F8CFFAF4BB0F11F460FF1BC06F5F7F4F72
:102410008F4F9F4F16C0882311F096E911C0772384
:1024200021F09EE8872F762F05C0662371F096E88D
:10243000862F70E060E02AF09A95660F771F881F5C
:10244000DAF7880F9695879597F90895990F000800
:10245000550FAA0BE0E8FEEF16161706E807F90776
:10246000C0F012161306E407F50798F0621B730B11
:10247000840B950B39F40A2661F0232B242B252B92
:1024800021F408950A2609F4A140A6958FEF811D35
:10249000811D089597F99F6780E870E060E00895D6
:1024A0009FEF80EC089500240A941616170618066C
:1024B0000906089500240A94121613061406050648
:1024C0000895092E0394000C11F4882352F0BB0FD9
:1024D00040F4BF2B11F460FF04C06F5F7F4F8F4F3C
:1024E0009F4F089557FD9058440F551F59F05F3F77
:1024F00071F04795880F97FB991F61F09F3F79F026
:1025000087950895121613061406551FF2CF4695A7
:10251000F1DF08C0161617061806991FF1CF869529
:102520007105610508940895E894BB27662777270D
:10253000CB0197F908950E94261208F48FEF0895B1
:102540000E94B3120C9461120E94531238F00E9440
:102550005A1220F0952311F00C944A120C94501248
:1025600011240C9495120E94721270F3959FC1F37E
:10257000950F50E0551F629FF001729FBB27F00D31
:10258000B11D639FAA27F00DB11DAA1F649F662786
:10259000B00DA11D661F829F2227B00DA11D621FD5
:1025A000739FB00DA11D621F839FA00D611D221F8F
:1025B000749F3327A00D611D231F849F600D211D73
:1025C000822F762F6A2F11249F5750409AF0F1F0F6
:1025D00088234AF0EE0FFF1FBB1F661F771F881F5F
:1025E00091505040A9F79E3F510580F00C944A123B
:1025F0000C9495125F3FE4F3983ED4F3869577955B
:102600006795B795F795E7959F5FC1F7FE2B880F04
:0E261000911D9695879597F90895F894FFCF40
:10261E00010000003F065B4F666D7D077F6F777C84
:10262E00395E797101000A006400E803777C395E37
:10263E0079713D76060E763800543F7367506D788B
:10264E003E3E00766E5B000000000C01DF003C0594
:10265E00B500D800C500B60000000000B2050F0599
:10266E003F05FF0570054E05620544524157005760
:04267E00494E0000C1
:00000001FF
