:100000000C9462000C948A000C948A000C948A0070
:100010000C948A000C948A000C948A000C948A0038
:100020000C948A000C948A000C948A000C948A0028
:100030000C948A000C948A000C948A000C948A0018
:100040000C947E030C948A000C94EE030C94C80369
:100050000C948A000C948A000C948A000C948A00F8
:100060000C948A000C948A000000000024002700F1
:100070002A0000000000250028002B0000000000DE
:1000800023002600290004040404040404040202DA
:100090000202020203030303030301020408102007
:1000A0004080010204081020010204081020000012
:1000B0000008000201000003040700000000000027
:1000C0000000390511241FBECFEFD8E0DEBFCDBF41
:1000D00011E0A0E0B1E0ECEDFAE002C005900D9275
:1000E000A231B107D9F721E0A2E1B1E001C01D9230
:1000F000A43CB207E1F710E0C2E6D0E004C02197CB
:10010000FE010E946605C136D107C9F70E9420048E
:100110000C946C050C940000833081F028F481303D
:1001200099F08230A9F008958730A9F08830C9F09D
:100130008430B1F4809180008F7D03C08091800075
:100140008F7780938000089584B58F7784BD08955C
:1001500084B58F7DFBCF8091B0008F778093B00006
:1001600008958091B0008F7DF9CFCF93DF93282F32
:1001700030E0F901E255FF4F8491F901E656FF4F57
:10018000D491F901EA57FF4FC491CC23A1F081111A
:100190000E948C00EC2FF0E0EE0FFF1FE458FF4FA1
:1001A000A591B491EC91ED2381E090E009F480E019
:1001B000DF91CF91089580E090E0FACF1F93CF9325
:1001C000DF93282F30E0F901E255FF4F8491F901C8
:1001D000E656FF4FD491F901EA57FF4FC491CC2363
:1001E000A9F0162F81110E948C00EC2FF0E0EE0F89
:1001F000FF1FEE58FF4FA591B4918FB7F894EC9183
:10020000111108C0D095DE23DC938FBFDF91CF9111
:100210001F910895DE2BF8CFCF93DF9390E0FC0180
:10022000E656FF4F24918A579F4FFC018491882303
:10023000D1F090E0880F991FFC01E859FF4FA5917C
:10024000B491FC01EE58FF4FC591D491623071F426
:100250009FB7F8943C91822F809583238C93E881FB
:100260002E2B28839FBFDF91CF9108958FB7F894ED
:10027000EC912E2B2C938FBFF6CF1F93CF93DF9350
:10028000182FEB0161E00E940C01209739F460E027
:10029000812FDF91CF911F910C94DE00E12FF0E0D0
:1002A000E255FF4FE491E33011F148F4E130B9F049
:1002B000E23069F784B5806284BDC8BD14C0E73000
:1002C00001F1E83031F1E43011F780918000806273
:1002D00080938000D0938B00C0938A0004C084B5C3
:1002E000806884BDC7BDDF91CF911F910895809133
:1002F0008000806880938000D0938900C09388003C
:10030000F2CF8091B00080688093B000C093B300BA
:10031000EACF8091B00080628093B000C093B400B7
:10032000E2CF2FB7F8946091C0017091C101809124
:10033000C2019091C3012FBF0895AF92BF92CF9297
:10034000DF92EF92FF920F931F93CF93DF936C0195
:100350007B018B01040F151FEB015E01AE18BF0876
:10036000C017D10759F06991D601ED91FC91019028
:10037000F081E02DC6010995892B79F7C501DF9140
:10038000CF911F910F91FF90EF90DF90CF90BF9092
:10039000AF900895FC01538D448D252F30E0842FBC
:1003A00090E0821B930B541710F0CF96089501979D
:1003B0000895FC01918D828D981761F0A28DAE0F8A
:1003C000BF2FB11D5D968C91928D9F5F9F73928F11
:1003D00090E008958FEF9FEF0895FC01918D828D3D
:1003E000981731F0828DE80FF11D858D90E008950A
:1003F0008FEF9FEF0895FC01918D228D892F90E062
:10040000805C9F4F821B91098F739927089582E129
:1004100091E00E94FB0121E0892B09F420E0822F6A
:10042000089580E090E0892B29F00E940702811155
:100430000C9400000895FC01A48DA80FB92FB11DE4
:10044000A35ABF4F2C91848D90E001968F7399270A
:10045000848FA689B7892C93A089B1898C918370E8
:1004600080648C93938D848D981306C00288F389E1
:10047000E02D80818F7D80830895EF92FF920F930E
:100480001F93CF93DF93EC0181E0888F9B8D8C8D40
:1004900098131AC0E889F989808185FF15C09FB734
:1004A000F894EE89FF896083E889F98980818370F7
:1004B000806480839FBF81E090E0DF91CF911F91A6
:1004C0000F91FF90EF900895F62E0B8D10E00F5FC7
:1004D0001F4F0F731127E02E8C8D8E110CC00FB69D
:1004E00007FCFACFE889F989808185FFF5CFCE0135
:1004F0000E941B02F1CFEB8DEC0FFD2FF11DE35A93
:10050000FF4FF0829FB7F8940B8FEA89FB898081B7
:100510008062CFCFCF93DF93EC01888D8823B9F031
:10052000AA89BB89E889F9898C9185FD03C08081FE
:1005300086FD0DC00FB607FCF7CF8C9185FFF2CF7B
:10054000808185FFEDCFCE010E941B02E9CFDF91B4
:10055000CF9108952F923F924F925F926F927F9228
:100560008F92AF92CF92EF920F931F93CF93DF931F
:10057000CDB7DEB7DC01EC91EC3008F077C0882D08
:100580001A012B013D01F0E0E853FD4F0C94660584
:10059000D402EF02FB0202030E03100324034503FF
:1005A0005603630375037B03822F0E94B500892BDA
:1005B00029F486E0F201808381E00EC0802F0E9442
:1005C000B500892B11F487E0F5CF8E2D0E94B50080
:1005D000892B09F04BC088E0F301808347C064E6B3
:1005E00070E08C2D0E943D0170E060E08A2D0E9439
:1005F0003D0182E0F1CF8A890E94B500892BB1F5D7
:1006000083E0EACF70E060E08C2D0E943D0164E65B
:1006100070E08A2D0E943D0184E0DECF8989ECCF15
:1006200070E060E08C2D0E943D0170E060E08A2D5A
:100630000E943D010E949101F101608371838283D8
:100640009383F2018081C8CF0E949101F101008162
:10065000118122813381601B710B820B930B693EE8
:1006600073408105910510F0F3011082DF91CF9165
:100670001F910F91EF90CF90AF908F907F906F90E0
:100680005F904F903F902F9008950E949101F1014B
:100690000081118122813381601B710B820B930BCE
:1006A000613D774081059105F8F6E0CF64E670E0A2
:1006B0000E943D010E949101F10160837183828358
:1006C000938389E089CF0E949101F101008111811A
:1006D00022813381601B710B820B930B613D77404C
:1006E0008105910518F28AE077CF70E060E00E9402
:1006F0003D018BE05FCFFB0110825ECF1F920F9216
:100700000FB60F9211242F933F938F939F93AF9324
:10071000BF938091C0019091C101A091C201B0919D
:10072000C3013091BF0123E0230F2D3758F5019607
:10073000A11DB11D2093BF018093C0019093C10101
:10074000A093C201B093C3018091BB019091BC0101
:10075000A091BD01B091BE010196A11DB11D809374
:10076000BB019093BC01A093BD01B093BE01BF91AA
:10077000AF919F918F913F912F910F900FBE0F904E
:100780001F90189526E8230F0296A11DB11DD2CF08
:100790001F920F920FB60F9211242F933F934F93F6
:1007A0005F936F937F938F939F93AF93BF93EF93D9
:1007B000FF9382E191E00E941B02FF91EF91BF91B4
:1007C000AF919F918F917F916F915F914F913F91E9
:1007D0002F910F900FBE0F901F9018951F920F92A0
:1007E0000FB60F9211242F938F939F93EF93FF9344
:1007F000E0912201F09123018081E0912801F091A4
:10080000290182FD1BC0908180912B018F5F8F7326
:1008100020912C01821741F0E0912B01F0E0EE5E77
:10082000FE4F958F80932B01FF91EF919F918F91B8
:100830002F910F900FBE0F901F9018958081F4CFCD
:10084000789484B5826084BD84B5816084BD85B5AB
:10085000826085BD85B5816085BD80916E008160B7
:1008600080936E001092810080918100826080935D
:10087000810080918100816080938100809180005F
:100880008160809380008091B10084608093B1008A
:100890008091B00081608093B00080917A00846084
:1008A00080937A0080917A00826080937A008091B0
:1008B0007A00816080937A0080917A0080688093CA
:1008C0007A001092C100E0912201F091230182E0B0
:1008D0008083E0911E01F0911F011082E0912001C0
:1008E000F091210180E1808310922A01E09126019C
:1008F000F091270186E08083E0912401F0912501A9
:10090000808180618083E0912401F09125018081C4
:1009100088608083E0912401F091250180818068C6
:100920008083E0912401F091250180818F7D808377
:1009300062E082E00E940C0162E084E00E940C010F
:1009400062E087E00E940C0161E083E00E940C01FC
:1009500070E060E083E00E943D0161E085E00E947C
:100960000C0170E060E085E00E943D0162E088E0FB
:100970000E940C0162E08CE00E940C0161E086E0C4
:100980000E940C0170E060E086E00E943D0162E0A0
:100990008EE00E940C0162E08FE00E940C0162E098
:1009A00080E10E940C0161E089E00E940C0170E08E
:1009B00060E089E00E943D0161E08AE00E940C0154
:1009C00070E060E08AE00E943D0162E081E10E9407
:1009D0000C0162E082E10E940C0161E08BE00E9468
:1009E0000C0170E060E08BE00E943D011092BA01C2
:1009F0001092B401CCE0D8E012E1E1E1FE2EF0E08B
:100A00006F2EF0E07F2ECF93DF9386E0882E95E067
:100A1000A92E23E0C22E37E0E32E04E022E045EBCE
:100A200051E069EB71E08AEB91E00E94AA021F930A
:100A3000FF924BE0842E5AE0A52E69E0C62E70E1AD
:100A4000E72E0FE02EE04FEA51E063EB71E084EB1C
:100A500091E00E94AA020F900F900F900F906114E6
:100A6000710489F20E940702882369F20E94000043
:100A7000CACFE2E1F1E01382128288EE93E0A0E0B7
:100A8000B0E084839583A683B78384E091E091836B
:100A9000808385EC90E09587848784EC90E097874D
:100AA000868780EC90E0918B808B81EC90E0938B3B
:100AB000828B82EC90E0958B848B86EC90E0978B18
:100AC000868B118E128E138E148E0895EE0FFF1FDB
:0C0AD0000590F491E02D0994F894FFCFFC
:100ADC00000000003D029D01CA018A02FB01D90100
:020AEC00ED011A
:00000001FF
