:100000000C945D000C9485000C9485000C94850084
:100010000C9485000C9485000C9485000C9485004C
:100020000C9485000C9485000C9485000C9485003C
:100030000C9485000C9485000C9485000C9485002C
:100040000C940D020C9485000C947D020C945702C4
:100050000C9485000C9485000C9485000C9485000C
:100060000C9485000C9485000000000024002700FB
:100070002A0000000000250028002B0004040404CE
:100080000404040402020202020203030303030342
:10009000010204081020408001020408102001021F
:1000A00004081020000000080002010000030407FB
:1000B0000000000000000000860311241FBECFEFE7
:1000C000D8E0DEBFCDBF11E0A0E0B1E0ECEAFAE09D
:1000D00002C005900D92A231B107D9F721E0A2E14B
:1000E000B1E001C01D92A83BB207E1F710E0CDE5F9
:1000F000D0E004C02197FE010E94B303CC35D107A4
:10010000C9F70E94AF020C9454050C940000EEEA6B
:10011000F0E02491EAE9F0E09491E6E8F0E0E4917F
:10012000EE23C9F0222339F0233001F1A8F4213065
:1001300019F1223029F1F0E0EE0FFF1FEE58FF4FCA
:10014000A591B4912FB7F894EC91811126C09095A8
:100150009E239C932FBF08952730A9F02830C9F023
:10016000243049F7209180002F7D03C0209180002A
:100170002F7720938000DFCF24B52F7724BDDBCFEE
:1001800024B52F7DFBCF2091B0002F772093B000B6
:10019000D2CF2091B0002F7DF9CF9E2BDACFCF9315
:1001A000DF9390E0FC01E057FF4F249184589F4F6C
:1001B000FC0184918823D1F090E0880F991FFC0105
:1001C000E859FF4FA591B491FC01EE58FF4FC5913E
:1001D000D49161110EC09FB7F8948C91E22FE095F5
:1001E0008E238C932881E223E8839FBFDF91CF91F8
:1001F00008958FB7F894EC91E22BEC938FBFF6CF74
:10020000AF92BF92CF92DF92EF92FF920F931F9324
:10021000CF93DF936C017B018B01040F151FEB0162
:100220005E01AE18BF08C017D10759F06991D60119
:10023000ED91FC910190F081E02DC6010995892B8B
:1002400079F7C501DF91CF911F910F91FF90EF904A
:10025000DF90CF90BF90AF900895FC01538D448DF7
:10026000252F30E0842F90E0821B930B541710F061
:10027000CF96089501970895FC01918D828D98176E
:1002800061F0A28DAE0FBF2FB11D5D968C91928D46
:100290009F5F9F73928F90E008958FEF9FEF089577
:1002A000FC01918D828D981731F0828DE80FF11D40
:1002B000858D90E008958FEF9FEF0895FC01918D5B
:1002C000228D892F90E0805C9F4F821B91098F7354
:1002D0009927089582E191E00E945E0121E0892B37
:1002E00009F420E0822F089580E090E0892B29F026
:1002F0000E946A0181110C9400000895FC01A48DF4
:10030000A80FB92FB11DA35ABF4F2C91848D90E037
:1003100001968F739927848FA689B7892C93A0891A
:10032000B1898C91837080648C93938D848D9813A4
:1003300006C00288F389E02D80818F7D8083089537
:10034000EF92FF920F931F93CF93DF93EC0181E025
:10035000888F9B8D8C8D98131AC0E889F9898081CC
:1003600085FF15C09FB7F894EE89FF896083E889FF
:10037000F98980818370806480839FBF81E090E0F1
:10038000DF91CF911F910F91FF90EF900895F62E7E
:100390000B8D10E00F5F1F4F0F731127E02E8C8D18
:1003A0008E110CC00FB607FCFACFE889F98980815D
:1003B00085FFF5CFCE010E947E01F1CFEB8DEC0FD2
:1003C000FD2FF11DE35AFF4FF0829FB7F8940B8F7A
:1003D000EA89FB8980818062CFCFCF93DF93EC01E4
:1003E000888D8823B9F0AA89BB89E889F9898C911D
:1003F00085FD03C0808186FD0DC00FB607FCF7CFD9
:100400008C9185FFF2CF808185FFEDCFCE010E94D8
:100410007E01E9CFDF91CF9108951F920F920FB621
:100420000F9211242F933F938F939F93AF93BF937A
:100430008091B4019091B501A091B601B091B7013E
:100440003091B30123E0230F2D3758F50196A11DFC
:10045000B11D2093B3018093B4019093B501A09393
:10046000B601B093B7018091AF019091B001A09116
:10047000B101B091B2010196A11DB11D8093AF01F0
:100480009093B001A093B101B093B201BF91AF912D
:100490009F918F913F912F910F900FBE0F901F90C2
:1004A000189526E8230F0296A11DB11DD2CF1F92E9
:1004B0000F920FB60F9211242F933F934F935F9398
:1004C0006F937F938F939F93AF93BF93EF93FF931C
:1004D00082E191E00E947E01FF91EF91BF91AF9187
:1004E0009F918F917F916F915F914F913F912F914C
:1004F0000F900FBE0F901F9018951F920F920FB67E
:100500000F9211242F938F939F93EF93FF93E0917A
:100510002201F09123018081E0912801F0912901CD
:1005200082FD1BC0908180912B018F5F8F73209182
:100530002C01821741F0E0912B01F0E0EE5EFE4FBE
:10054000958F80932B01FF91EF919F918F912F9128
:100550000F900FBE0F901F9018958081F4CF789464
:1005600084B5826084BD84B5816084BD85B58260B8
:1005700085BD85B5816085BD80916E008160809369
:100580006E001092810080918100826080938100D2
:1005900080918100816080938100809180008160E2
:1005A000809380008091B10084608093B10080913D
:1005B000B00081608093B00080917A008460809365
:1005C0007A0080917A00826080937A0080917A002C
:1005D000816080937A0080917A00806880937A00AD
:1005E0001092C100E0912201F091230182E080830A
:1005F000E0911E01F0911F011082E0912001F09125
:10060000210180E1808310922A01E0912601F0917E
:10061000270186E08083E0912401F091250180810B
:1006200080618083E0912401F091250180818860C0
:100630008083E0912401F09125018081806880838E
:10064000E0912401F091250180818F7D808361E01C
:100650008AE00E94CF0061E08AE00E94CF0080E043
:100660000E94870060E08EE00E94CF0010E4C0E0AE
:10067000D0E010937C0080917A00806480937A00AF
:1006800080917A0086FDFCCF80917800609179009E
:10069000762F682F072E000C880B990B0E943204CE
:1006A00020E030EC4FE754E40E94BE0320E030E04D
:1006B00048EC52E40E94E7046B017C0120E030E04A
:1006C00048E452E40E94B90387FF10C061E08AE069
:1006D0000E94CF0081E00E948700209751F20E9483
:1006E0006A01882331F20E940000C3CF20E030E08D
:1006F00048E452E4C701B6010E94E20487FDEDCF51
:1007000061E08AE00E94CF0080E0E5CFE2E1F1E025
:100710001382128288EE93E0A0E0B0E08483958398
:10072000A683B78384E091E09183808385EC90E099
:100730009587848784EC90E09787868780EC90E0AB
:10074000918B808B81EC90E0938B828B82EC90E09C
:10075000958B848B86EC90E0978B868B118E128E16
:10076000138E148E0895EE0FFF1F0590F491E02D67
:1007700009940E946D0408F481E008950E94D20358
:100780000C94A8040E94A10458F00E949A0440F01E
:1007900029F45F3F29F00C94910451110C94DC046E
:1007A0000C9497040E94B90468F39923B1F355237C
:1007B00091F3951B550BBB27AA2762177307840774
:1007C00038F09F5F5F4F220F331F441FAA1FA9F30A
:1007D00035D00E2E3AF0E0E832D091505040E695F8
:1007E000001CCAF72BD0FE2F29D0660F771F881F59
:1007F000BB1F261737074807AB07B0E809F0BB0B4C
:10080000802DBF01FF2793585F4F3AF09E3F51055F
:1008100078F00C9491040C94DC045F3FE4F3983E70
:10082000D4F3869577956795B795F7959F5FC9F748
:10083000880F911D9695879597F90895E1E0660FC9
:10084000771F881FBB1F621773078407BA0720F042
:10085000621B730B840BBA0BEE1F88F7E0950895AB
:10086000E89409C097FB3EF490958095709561954A
:100870007F4F8F4F9F4F9923A9F0F92F96E9BB2700
:100880009395F695879577956795B795F111F8CF7C
:10089000FAF4BB0F11F460FF1BC06F5F7F4F8F4FE7
:1008A0009F4F16C0882311F096E911C0772321F0DD
:1008B0009EE8872F762F05C0662371F096E8862F75
:1008C00070E060E02AF09A95660F771F881FDAF7CC
:1008D000880F9695879597F90895990F0008550FF9
:1008E000AA0BE0E8FEEF16161706E807F907C0F0B6
:1008F00012161306E407F50798F0621B730B840BBE
:10090000950B39F40A2661F0232B242B252B21F497
:1009100008950A2609F4A140A6958FEF811D811D37
:10092000089597F99F6780E870E060E008959FEF71
:1009300080EC089500240A94161617061806090676
:10094000089500240A941216130614060506089545
:10095000092E0394000C11F4882352F0BB0F40F4CD
:10096000BF2B11F460FF04C06F5F7F4F8F4F9F4F0D
:10097000089557FD9058440F551F59F05F3F71F08F
:100980004795880F97FB991F61F09F3F79F08795F6
:100990000895121613061406551FF2CF4695F1DF7F
:1009A00008C0161617061806991FF1CF869571050F
:1009B000610508940895E894BB2766277727CB0143
:1009C00097F908950E946D0408F48FEF08950E942E
:1009D000FA040C94A8040E949A0438F00E94A1041E
:1009E00020F0952311F00C9491040C949704112499
:1009F0000C94DC040E94B90470F3959FC1F3950F29
:100A000050E0551F629FF001729FBB27F00DB11D92
:100A1000639FAA27F00DB11DAA1F649F6627B00D22
:100A2000A11D661F829F2227B00DA11D621F739F0B
:100A3000B00DA11D621F839FA00D611D221F749F19
:100A40003327A00D611D231F849F600D211D822F60
:100A5000762F6A2F11249F5750409AF0F1F0882387
:100A60004AF0EE0FFF1FBB1F661F771F881F9150B4
:100A70005040A9F79E3F510580F00C9491040C94CE
:100A8000DC045F3FE4F3983ED4F386957795679551
:100A9000B795F795E7959F5FC1F7FE2B880F911DDE
:0C0AA0009695879597F90895F894FFCF7C
:100AAC0000000000A00100012D01ED015E013C01E0
:020ABC005001E7
:00000001FF
