:100000000C9462000C948A000C948A000C948A0070
:100010000C948A000C948A000C948A000C948A0038
:100020000C948A000C948A000C948A000C948A0028
:100030000C948A000C948A000C948A000C948A0018
:100040000C94D0030C948A000C9440040C941A0471
:100050000C948A000C948A000C948A000C948A00F8
:100060000C948A000C948A000000000024002700F1
:100070002A000000000023002600290000000000E4
:10008000250028002B0004040404040404040202D4
:100090000202020203030303030301020408102007
:1000A0004080010204081020010204081020000012
:1000B0000008000201000003040700000000000027
:1000C0000000AE0411241FBECFEFD8E0DEBFCDBFCD
:1000D00011E0A0E0B1E0E2EDFDE002C005900D927C
:1000E000AA32B107D9F721E0AAE2B1E001C01D921E
:1000F000A93FB207E1F710E0C2E6D0E004C02197C3
:10010000FE010E944506C136D107C9F70E940905C4
:100110000C94E7060C940000FC01538D448D252FB0
:1001200030E0842F90E0821B930B541710F0CF9691
:10013000089501970895FC01918D828D981761F0C3
:10014000A28DAE0FBF2FB11D5D968C91928D9F5FDA
:100150009F73928F90E008958FEF9FEF0895FC01B9
:10016000918D828D981731F0828DE80FF11D858D6C
:1001700090E008958FEF9FEF0895FC01918D228DFF
:10018000892F90E0805C9F4F821B91098F73992784
:100190000895FC01A48DA80FB92FB11DA35ABF4F1C
:1001A0002C91848D90E001968F739927848FA68976
:1001B000B7892C93A089B1898C91837080648C93CA
:1001C000938D848D981306C00288F389E02D808179
:1001D0008F7D80830895EF92FF920F931F93CF93AB
:1001E000DF93EC0181E0888F9B8D8C8D98131AC072
:1001F000E889F989808185FF15C09FB7F894EE8959
:10020000FF896083E889F9898081837080648083B5
:100210009FBF81E090E0DF91CF911F910F91FF9000
:10022000EF900895F62E0B8D10E00F5F1F4F0F73A8
:100230001127E02E8C8D8E110CC00FB607FCFACF63
:10024000E889F989808185FFF5CFCE010E94C90038
:10025000F1CFEB8DEC0FFD2FF11DE35AFF4FF08234
:100260009FB7F8940B8FEA89FB8980818062CFCF9A
:10027000CF93DF93EC01888D8823B9F0AA89BB89DD
:10028000E889F9898C9185FD03C0808186FD0DC0C8
:100290000FB607FCF7CF8C9185FFF2CF808185FFE9
:1002A000EDCFCE010E94C900E9CFDF91CF91089533
:1002B00087E391E00E94BD0021E0892B09F420E052
:1002C000822F089580E090E0892B29F00E94580148
:1002D00081110C9400000895833081F028F481305E
:1002E00099F08230A9F008958730A9F08830C9F0DC
:1002F0008430B1F4809180008F7D03C080918000B4
:100300008F7780938000089584B58F7784BD08959A
:1003100084B58F7DFBCF8091B0008F778093B00044
:1003200008958091B0008F7DF9CFCF93DF93282F70
:1003300030E0F901E255FF4F8491F901E656FF4F95
:10034000D491F901EA57FF4FC491CC23A1F0811158
:100350000E946C01EC2FF0E0EE0FFF1FEE58FF4FF4
:10036000A591B491EC91ED2381E090E009F480E057
:10037000DF91CF91089580E090E0FACFCF93DF93A3
:1003800090E0FC01E656FF4F24918A579F4FFC01F5
:1003900084918823C9F090E0880F991FFC01E859E7
:1003A000FF4FA591B491FC01E458FF4FC591D49142
:1003B00061110DC09FB7F8948C91209582238C9386
:1003C0008881282328839FBFDF91CF9108956230D1
:1003D00051F49FB7F8943C91822F809583238C939E
:1003E000E8812E2BEFCF8FB7F894EC912E2B2C9326
:1003F0008FBFEACFCF92DF92EF92FF920F931F93BE
:10040000CF93DF93EC01E62E98E0F92E0BE811E094
:1004100061E088810E94BE01C8010197F1F7CE2CEE
:10042000D12C60E0E0FE61E089810E94BE01C8013C
:100430000197F1F760E088810E94BE01C801019731
:10044000F1F7D594C794EC2CFA94F110E1CF61E068
:1004500088810E94BE0160E089810E94BE01C801BE
:100460000197F1F760E088810E94BE01C801019701
:10047000F1F789810E949501F82E811104C061E095
:1004800089810E94BE010BE811E0C8010197F1F7D4
:1004900061E088810E94BE01C8010197F1F781E007
:1004A000F11001C080E0DF91CF911F910F91FF907B
:1004B000EF90DF90CF9008950F931F93CF93DF932A
:1004C0008C0161E0FC0181810E94BE01CBE8D1E09A
:1004D000CE010197F1F760E0F80180810E94BE0132
:1004E000CE010197F1F760E0F80181810E94BE0121
:1004F0002197F1F7DF91CF911F910F91089561E05E
:10050000FC0181810E94BE018BE891E00197F1F727
:100510000895EF92FF920F931F93CF93DF93EC0117
:100520007B010E947F0260E4CE010E94FA01CE01AD
:100530000E945C02CE010E947F0260ECCE010E940C
:10054000FA01870184E0E80EF11CF80161918F0146
:10055000CE010E94FA010E151F05B9F7CE010E94C7
:100560005C02CE010E947F026A816F706058CE01EA
:100570000E94FA01CE01DF91CF911F910F91FF9060
:10058000EF900C945C022FB7F89460913301709156
:10059000340180913501909136012FBF0895AF92BB
:1005A000BF92CF92DF92EF92FF920F931F93CF9360
:1005B000DF936C017B018B01040F151FEB015E01C2
:1005C000AE18BF08C017D10759F06991D601ED9157
:1005D000FC910190F081E02DC6010995892B79F7F6
:1005E000C501DF91CF911F910F91FF90EF90DF90A8
:1005F000CF90BF90AF900895BF92CF92DF92EF92CD
:10060000FF920F931F93CF93DF9300D000D0CDB70D
:10061000DEB78C01DC0113964D935D936D937C9353
:100620001697CB01BA010E944B06F62FB72E88E130
:10063000E82E81E0F82E9E012F5F3F4F6901E1E037
:10064000D7017E916E917D018F2F9B2D0E941D06FB
:100650006115710549F4EE2329F08C2D821B40E0D1
:10066000833059F44FE309C06F70E62FF0E0E0509B
:10067000FF4F4081F82FB92EE0E0D6014D936D0178
:10068000B0E1EB16B1E0FB06D9F6B901C8010E9452
:1006900089020F900F900F900F90DF91CF911F91D3
:1006A0000F91FF90EF90DF90CF90BF900895CF9380
:1006B000DF9300D000D0CDB7DEB7FC0119821A82DB
:1006C0001B821C829781977098609283BE016F5F36
:1006D0007F4FCF010E94890290E080E00F900F9041
:1006E0000F900F90DF91CF910895CF92DF92EF920C
:1006F000FF92CF93DF93EC016A017B018D819E8194
:10070000892B11F588810E949501892BE9F4898153
:100710009A81AB81BC814E96A11DB11DC816D90628
:10072000EA06FB0688F081E090E09E838D830E94BC
:10073000C30269837A838B839C83DF91CF91FF907F
:10074000EF90DF90CF9008958D819E810197A1F069
:100750008D819E81029789F789819A81AB81BC81C5
:100760008A569F4FAF4FBF4FC816D906EA06FB0601
:1007700020F31E821D82DBCF88810E9495010197A4
:1007800039F789819A81AB81BC814E96A11DB11D3B
:10079000C816D906EA06FB06D8F282E090E0C5CF7B
:1007A0001F920F920FB60F9211242F933F938F93A6
:1007B0009F93AF93BF938091330190913401A091A7
:1007C0003501B09136013091320123E0230F2D37EE
:1007D00058F50196A11DB11D20933201809333017C
:1007E00090933401A0933501B093360180912E018E
:1007F00090912F01A0913001B09131010196A11D7E
:10080000B11D80932E0190932F01A0933001B093DE
:100810003101BF91AF919F918F913F912F910F9097
:100820000FBE0F901F90189526E8230F0296A11D6A
:10083000B11DD2CF1F920F920FB60F9211242F939A
:100840003F934F935F936F937F938F939F93AF9358
:10085000BF93EF93FF9387E391E00E94C900FF915C
:10086000EF91BF91AF919F918F917F916F915F9128
:100870004F913F912F910F900FBE0F901F901895A1
:100880001F920F920FB60F9211242F938F939F9365
:10089000EF93FF93E0914701F09148018081E0914F
:1008A0004D01F0914E0182FD1BC09081809150015D
:1008B0008F5F8F7320915101821741F0E0915001B9
:1008C000F0E0E95CFE4F958F80935001FF91EF912E
:1008D0009F918F912F910F900FBE0F901F901895A1
:1008E0008081F4CFCF93DF93282F30E0F901E255D8
:1008F000FF4F8491F901E656FF4FD491F901EA5771
:10090000FF4FC491CC2391F081110E946C01EC2F18
:10091000F0E0EE0FFF1FE458FF4FA591B4918FB7A1
:10092000F894EC91D095DE23DC938FBFDF91CF91CB
:100930000895CF93DF93EC01862F6883498360E0AD
:100940000E94BE0160E089810E94BE0188810E94F0
:1009500072048981DF91CF910C947204CF93E7E305
:10096000F1E01382128288EE93E0A0E0B0E084838D
:100970009583A683B7838CE191E09183808385EC96
:1009800090E09587848784EC90E09787868780EC59
:1009900090E0918B808B81EC90E0938B828B82EC4A
:1009A00090E0958B848B86EC90E0978B868B118EF4
:1009B000128E138E148EE2EFF1E082E080831682B5
:1009C0001582EBEEF1E083E0808316821582E4EE7F
:1009D000F1E08083168215824FE06EE08CED91E0AD
:1009E0000E949904ECEDF1E01382148215821682C4
:1009F000C7E0C78341E160E184ED91E00E94990482
:100A0000E4EDF1E01382148215821682C783CF9140
:100A10000895789484B5826084BD84B5816084BD76
:100A200085B5826085BD85B5816085BD80916E008C
:100A3000816080936E0010928100809181008260BD
:100A400080938100809181008160809381008091FA
:100A500080008160809380008091B10084608093E9
:100A6000B1008091B00081608093B00080917A00E5
:100A7000846080937A0080917A00826080937A000B
:100A800080917A00816080937A0080917A008068FA
:100A900080937A001092C10062E08091F2010E947E
:100AA000BE011092F3011092F4011092F501109220
:100AB000F60162E08091EB010E94BE011092EC0110
:100AC0001092ED011092EE011092EF0162E0809120
:100AD000E4010E94BE011092E5011092E60110921D
:100AE000E7011092E8018CED91E00E94570384ED3C
:100AF00091E00E945703C0E0D0E010922D011092C7
:100B00002C0110922B0110922A0140E050E0BA0112
:100B10008CED91E00E94FC0240E050E0BA0184EDCF
:100B200091E00E94FC028091E9019091EA01029714
:100B300009F46AC00E94C302AB01BC0182EF91E0DC
:100B40000E9475030E94C302AB01BC018BEE91E0D1
:100B50000E9475030E94C302AB01BC0184EE91E0C8
:100B60000E9475038091F7019091F801029721F599
:100B70001092F8011092F7010E94C3026093F301F2
:100B80007093F4018093F5019093F60160912C012C
:100B900070912D016F5F7F4F70932D0160932C0139
:100BA000072E000C880B990B0E948306AB01BC0139
:100BB0008CED91E00E94FC028091F0019091F10196
:100BC000029709F0B0CF1092F1011092F0010E944B
:100BD000C3026093EC017093ED018093EE0190935A
:100BE000EF0160912A0170912B016F5F7F4F70932D
:100BF0002B0160932A01072E000C880B990B0E9491
:100C00008306AB01BC018BCF1092EA011092E9017F
:100C10000E94C3026093E5017093E6018093E701AF
:100C20009093E801209709F468CF0E945801882327
:100C300009F463CF0E94000060CF97FB072E16F4E3
:100C4000009407D077FD09D00E94310607FC05D03B
:100C50003EF4909581959F4F0895709561957F4FD3
:100C60000895AA1BBB1B51E107C0AA1FBB1FA617F3
:100C7000B70710F0A61BB70B881F991F5A95A9F745
:100C800080959095BC01CD010895EE0FFF1F059052
:100C9000F491E02D09940E9452066894B1110C94CD
:100CA000E10608950E94C60688F09F5798F0B92F74
:100CB0009927B751B0F0E1F0660F771F881F991F91
:100CC0001AF0BA95C9F714C0B13091F00E94E0064D
:100CD000B1E008950C94E006672F782F8827B85F5D
:100CE00039F0B93FCCF3869577956795B395D9F7E9
:100CF0003EF490958095709561957F4F8F4F9F4FF3
:100D00000895E89409C097FB3EF4909580957095FE
:100D100061957F4F8F4F9F4F9923A9F0F92F96E947
:100D2000BB279395F695879577956795B795F111BC
:100D3000F8CFFAF4BB0F11F460FF1BC06F5F7F4F59
:100D40008F4F9F4F16C0882311F096E911C077236B
:100D500021F09EE8872F762F05C0662371F096E874
:100D6000862F70E060E02AF09A95660F771F881F43
:100D7000DAF7880F9695879597F9089557FD90585B
:100D8000440F551F59F05F3F71F04795880F97FB4F
:100D9000991F61F09F3F79F0879508951216130609
:100DA0001406551FF2CF4695F1DF08C01616170638
:100DB0001806991FF1CF869571056105089408956D
:100DC000E894BB2766277727CB0197F90895F89415
:020DD000FFCF53
:100DD2003F065B4F666D7D077F6F777C395E797169
:100DE20001000A006400E80300000000EB00CF02EB
:0A0DF2008C003801BD009B00AF002B
:00000001FF
