:100000000C9462000C948A000C948A000C948A0070
:100010000C948A000C948A000C948A000C948A0038
:100020000C948A000C948A000C948A000C948A0028
:100030000C948A000C948A000C948A000C948A0018
:100040000C947B040C948A000C94EB040C94C5046F
:100050000C948A000C948A000C948A000C948A00F8
:100060000C948A000C948A000000000024002700F1
:100070002A000000000023002600290000000000E4
:10008000250028002B0004040404040404040202D4
:100090000202020203030303030301020408102007
:1000A0004080010204081020010204081020000012
:1000B0000008000201000003040700000000000027
:1000C0000000590511241FBECFEFD8E0DEBFCDBF21
:1000D00011E0A0E0B1E0E2E6FEE002C005900D9282
:1000E000AA32B107D9F721E0AAE2B1E001C01D921E
:1000F000AF3FB207E1F710E0C2E6D0E004C02197BD
:10010000FE010E948D06C136D107C9F70E94B405D1
:100110000C942F070C940000FC01538D448D252F67
:1001200030E0842F90E0821B930B541710F0CF9691
:10013000089501970895FC01918D828D981761F0C3
:10014000A28DAE0FBF2FB11D5D968C91928D9F5FDA
:100150009F73928F90E008958FEF9FEF0895FC01B9
:10016000918D828D981731F0828DE80FF11D858D6C
:1001700090E008958FEF9FEF0895FC01918D228DFF
:10018000892F90E0805C9F4F821B91098F73992784
:100190000895FC01A48DA80FB92FB11DA35ABF4F1C
:1001A0002C91848D90E001968F739927848FA68976
:1001B000B7892C93A089B1898C91837080648C93CA
:1001C000938D848D981306C00288F389E02D808179
:1001D0008F7D80830895EF92FF920F931F93CF93AB
:1001E000DF93EC0181E0888F9B8D8C8D98131AC072
:1001F000E889F989808185FF15C09FB7F894EE8959
:10020000FF896083E889F9898081837080648083B5
:100210009FBF81E090E0DF91CF911F910F91FF9000
:10022000EF900895F62E0B8D10E00F5F1F4F0F73A8
:100230001127E02E8C8D8E110CC00FB607FCFACF63
:10024000E889F989808185FFF5CFCE010E94C90038
:10025000F1CFEB8DEC0FFD2FF11DE35AFF4FF08234
:100260009FB7F8940B8FEA89FB8980818062CFCF9A
:10027000CF93DF93EC01888D8823B9F0AA89BB89DD
:10028000E889F9898C9185FD03C0808186FD0DC0C8
:100290000FB607FCF7CF8C9185FFF2CF808185FFE9
:1002A000EDCFCE010E94C900E9CFDF91CF91089533
:1002B0008DE391E00E94BD0021E0892B09F420E04C
:1002C000822F089580E090E0892B29F00E94580148
:1002D00081110C9400000895833081F028F481305E
:1002E00099F08230A9F008958730A9F08830C9F0DC
:1002F0008430B1F4809180008F7D03C080918000B4
:100300008F7780938000089584B58F7784BD08959A
:1003100084B58F7DFBCF8091B0008F778093B00044
:1003200008958091B0008F7DF9CFCF93DF93282F70
:1003300030E0F901E255FF4F8491F901E656FF4F95
:10034000D491F901EA57FF4FC491CC23A1F0811158
:100350000E946C01EC2FF0E0EE0FFF1FEE58FF4FF4
:10036000A591B491EC91ED2381E090E009F480E057
:10037000DF91CF91089580E090E0FACFCF93DF93A3
:1003800090E0FC01E656FF4F24918A579F4FFC01F5
:1003900084918823C9F090E0880F991FFC01E859E7
:1003A000FF4FA591B491FC01E458FF4FC591D49142
:1003B00061110DC09FB7F8948C91209582238C9386
:1003C0008881282328839FBFDF91CF9108956230D1
:1003D00051F49FB7F8943C91822F809583238C939E
:1003E000E8812E2BEFCF8FB7F894EC912E2B2C9326
:1003F0008FBFEACFCF92DF92EF92FF920F931F93BE
:10040000CF93DF93EC01E62E98E0F92E0BE811E094
:1004100061E088810E94BE01C8010197F1F7CE2CEE
:10042000D12C60E0E0FE61E089810E94BE01C8013C
:100430000197F1F760E088810E94BE01C801019731
:10044000F1F7D594C794EC2CFA94F110E1CF61E068
:1004500088810E94BE0160E089810E94BE01C801BE
:100460000197F1F760E088810E94BE01C801019701
:10047000F1F789810E949501F82E811104C061E095
:1004800089810E94BE010BE811E0C8010197F1F7D4
:1004900061E088810E94BE01C8010197F1F781E007
:1004A000F11001C080E0DF91CF911F910F91FF907B
:1004B000EF90DF90CF9008950F931F93CF93DF932A
:1004C0008C0161E0FC0181810E94BE01CBE8D1E09A
:1004D000CE010197F1F760E0F80180810E94BE0132
:1004E000CE010197F1F760E0F80181810E94BE0121
:1004F0002197F1F7DF91CF911F910F91089561E05E
:10050000FC0181810E94BE018BE891E00197F1F727
:100510000895EF92FF920F931F93CF93DF93EC0117
:100520007B010E947F0260E4CE010E94FA01CE01AD
:100530000E945C02CE010E947F0260ECCE010E940C
:10054000FA01870184E0E80EF11CF80161918F0146
:10055000CE010E94FA010E151F05B9F7CE010E94C7
:100560005C02CE010E947F026A816F706058CE01EA
:100570000E94FA01CE01DF91CF911F910F91FF9060
:10058000EF900C945C022FB7F89460913901709150
:100590003A0180913B0190913C012FBF0895AF92A9
:1005A000BF92CF92DF92EF92FF920F931F93CF9360
:1005B000DF936C017B018B01040F151FEB015E01C2
:1005C000AE18BF08C017D10759F06991D601ED9157
:1005D000FC910190F081E02DC6010995892B79F7F6
:1005E000C501DF91CF911F910F91FF90EF90DF90A8
:1005F000CF90BF90AF900895BF92CF92DF92EF92CD
:10060000FF920F931F93CF93DF9300D000D0CDB70D
:10061000DEB78C01DC0113964D935D936D937C9353
:100620001697CB01BA010E949306F62FB72E88E1E8
:10063000E82E81E0F82E9E012F5F3F4F6901E1E037
:10064000D7017E916E917D018F2F9B2D0E946506B3
:100650006115710549F4EE2329F08C2D821B40E0D1
:10066000833059F44FE309C06F70E62FF0E0E0509B
:10067000FF4F4081F82FB92EE0E0D6014D936D0178
:10068000B0E1EB16B1E0FB06D9F6B901C8010E9452
:1006900089020F900F900F900F90DF91CF911F91D3
:1006A0000F91FF90EF90DF90CF90BF900895109240
:1006B0002A0140E050E0BA0182EE91E00E94FC0283
:1006C0008EE694E090933301809332010895109266
:1006D0002B0140E050E0BA018AED91E00E94FC025B
:1006E00084E394E090933101809330010895CF9397
:1006F000DF9300D000D0CDB7DEB7FC0119821A829B
:100700001B821C829781977098609283BE016F5FF5
:100710007F4FCF010E94890290E080E00F900F9000
:100720000F900F90DF91CF910895CF93DF93FC014D
:10073000258136812230310569F4EC01168215825B
:100740000E94C30269837A838B839C8381E0DF915B
:10075000CF91089580E0FBCFCF92DF92EF92FF928E
:10076000CF93DF93EC016A017B018D819E81892B00
:1007700011F588810E949501892BE9F489819A817C
:10078000AB81BC814E96A11DB11DC816D906EA06E3
:10079000FB0688F081E090E09E838D830E94C30277
:1007A00069837A838B839C83DF91CF91FF90EF9055
:1007B000DF90CF9008958D819E810197A1F08D816A
:1007C0009E81029789F789819A81AB81BC818A5683
:1007D0009F4FAF4FBF4FC816D906EA06FB0620F35E
:1007E0001E821D82DBCF88810E949501019739F717
:1007F00089819A81AB81BC814E96A11DB11DC8161D
:10080000D906EA06FB06D8F282E090E0C5CF6091F7
:100810002B016F5F60932B0170E090E080E00E94FD
:10082000C906AB01BC018AED91E00E94FC028EE199
:1008300094E09093310180933001089581EF91E02D
:100840000E949503882339F087E094E0909331016A
:100850008093300108958AEE91E00E9495038823E9
:10086000C9F387E693E0F2CF81EF91E00E94950310
:10087000882331F087E094E0909331018093300138
:10088000089560912A016F5F60932A0170E090E003
:1008900080E00E94C906AB01BC0182EE91E00E949B
:1008A000FC0288E594E0909333018093320108952F
:1008B00088EF91E00E949503882339F081E494E069
:1008C000909333018093320108958AEE91E00E9463
:1008D00095038823C9F387E593E0F2CF88EF91E091
:1008E0000E949503882331F081E494E090933301D2
:1008F0008093320108951F920F920FB60F92112428
:100900002F933F938F939F93AF93BF938091390120
:1009100090913A01A0913B01B0913C013091380196
:1009200023E0230F2D3758F50196A11DB11D20930B
:1009300038018093390190933A01A0933B01B09321
:100940003C018091340190913501A0913601B09124
:1009500037010196A11DB11D80933401909335019B
:10096000A0933601B0933701BF91AF919F918F91C2
:100970003F912F910F900FBE0F901F90189526E872
:10098000230F0296A11DB11DD2CF1F920F920FB659
:100990000F9211242F933F934F935F936F937F9305
:1009A0008F939F93AF93BF93EF93FF938DE391E06A
:1009B0000E94C900FF91EF91BF91AF919F918F91DC
:1009C0007F916F915F914F913F912F910F900FBE4B
:1009D0000F901F9018951F920F920FB60F9211242F
:1009E0002F938F939F93EF93FF93E0914D01F0919D
:1009F0004E018081E0915301F091540182FD1BC0B2
:100A00009081809156018F5F8F73209157018217DB
:100A100041F0E0915601F0E0E35CFE4F958F80934A
:100A20005601FF91EF919F918F912F910F900FBEE3
:100A30000F901F9018958081F4CFCF93DF93282FCC
:100A400030E0F901E255FF4F8491F901E656FF4F7E
:100A5000D491F901EA57FF4FC491CC2391F0811151
:100A60000E946C01EC2FF0E0EE0FFF1FE458FF4FE7
:100A7000A591B4918FB7F894EC91D095DE23DC93D7
:100A80008FBFDF91CF910895CF93DF93EC01862F35
:100A90006883498360E00E94BE0160E089810E9412
:100AA000BE0188810E941D058981DF91CF910C9440
:100AB0001D05CF93EDE3F1E01382128288EE93E0FF
:100AC000A0E0B0E084839583A683B7838CE191E0B6
:100AD0009183808385EC90E09587848784EC90E017
:100AE0009787868780EC90E0918B808B81EC90E0FB
:100AF000938B828B82EC90E0958B848B86EC90E0DC
:100B0000978B868B118E128E138E148EE8EFF1E088
:100B100082E0808316821582E1EFF1E083E080833A
:100B200016821582EAEEF1E08083168215824FE08C
:100B30006EE082EE91E00E944405E2EEF1E0138265
:100B4000148215821682C7E0C78341E160E18AED15
:100B500091E00E944405EAEDF1E0138214821582CF
:100B60001682C783CF910895789484B5826084BD3E
:100B700084B5816084BD85B5826085BD85B58160A1
:100B800085BD80916E00816080936E00109281001F
:100B900080918100826080938100809181008160DA
:100BA000809381008091800081608093800080919B
:100BB000B10084608093B1008091B0008160809327
:100BC000B00080917A00846080937A0080917A00EE
:100BD000826080937A0080917A00816080937A00AD
:100BE00080917A00806880937A001092C10062E060
:100BF0008091F8010E94BE011092F9011092FA0151
:100C00001092FB011092FC0162E08091F1010E94C0
:100C1000BE011092F2011092F3011092F4011092B1
:100C2000F50162E08091EA010E94BE011092EB01A1
:100C30001092EC011092ED011092EE0182EE91E023
:100C40000E9477038AED91E00E94770387E593E0A5
:100C5000909333018093320187E693E090933101C2
:100C600080933001C0E0D0E00E94C3026B017C01A0
:100C7000C0922C01D0922D01E0922E01F0922F0112
:100C8000BC01A60188EF91E00E94AC03B701A60168
:100C900081EF91E00E94AC03B701A6018AEE91E0DA
:100CA0000E94AC03E0913201F09133010995E0918B
:100CB0003001F091310109952097B1F20E9458015D
:100CC000882391F20E940000CFCF97FB072E16F4E5
:100CD000009407D077FD09D00E94790607FC05D063
:100CE0003EF4909581959F4F0895709561957F4F43
:100CF0000895AA1BBB1B51E107C0AA1FBB1FA61763
:100D0000B70710F0A61BB70B881F991F5A95A9F7B4
:100D100080959095BC01CD010895EE0FFF1F0590C1
:100D2000F491E02D09940E949A066894B1110C94F4
:100D3000290708950E940E0788F09F5798F0B92F51
:100D40009927B751B0F0E1F0660F771F881F991F00
:100D50001AF0BA95C9F714C0B13091F00E94280773
:100D6000B1E008950C942807672F782F8827B85F83
:100D700039F0B93FCCF3869577956795B395D9F758
:100D80003EF490958095709561957F4F8F4F9F4F62
:100D90000895E89409C097FB3EF49095809570956E
:100DA00061957F4F8F4F9F4F9923A9F0F92F96E9B7
:100DB000BB279395F695879577956795B795F1112C
:100DC000F8CFFAF4BB0F11F460FF1BC06F5F7F4FC9
:100DD0008F4F9F4F16C0882311F096E911C07723DB
:100DE00021F09EE8872F762F05C0662371F096E8E4
:100DF000862F70E060E02AF09A95660F771F881FB3
:100E0000DAF7880F9695879597F9089557FD9058CA
:100E1000440F551F59F05F3F71F04795880F97FBBE
:100E2000991F61F09F3F79F0879508951216130678
:100E30001406551FF2CF4695F1DF08C016161706A7
:100E40001806991FF1CF86957105610508940895DC
:100E5000E894BB2766277727CB0197F90895F89484
:020E6000FFCFC2
:100E62003F065B4F666D7D077F6F777C395E7971D8
:100E720001000A006400E80300000000EB00CF025A
:0A0E82008C003801BD009B00AF009A
:00000001FF
