:100000000C9462000C948A000C948A000C948A0070
:100010000C948A000C948A000C948A000C948A0038
:100020000C948A000C948A000C948A000C948A0028
:100030000C948A000C948A000C948A000C948A0018
:100040000C94E0040C948A000C9450050C942A053E
:100050000C948A000C948A000C948A000C948A00F8
:100060000C948A000C948A000000000024002700F1
:100070002A0000000000250028002B0000000000DE
:1000800023002600290004040404040404040202DA
:100090000202020203030303030301020408102007
:1000A0004080010204081020010204081020000012
:1000B0000008000201000003040700000000000027
:1000C0000000820511241FBECFEFD8E0DEBFCDBFF8
:1000D00011E0A0E0B1E0EAEBFFE002C005900D9274
:1000E000A231B107D9F722E0A2E1B1E001C01D922F
:1000F000A834B207E1F710E0C2E6D0E004C02197CF
:10010000FE010E94D507C136D107C9F70E94FD053F
:100110000C94DB070C940000833081F028F48130CC
:1001200099F08230A9F008958730A9F08830C9F09D
:100130008430B1F4809180008F7D03C08091800075
:100140008F7780938000089584B58F7784BD08955C
:1001500084B58F7DFBCF8091B0008F778093B00006
:1001600008958091B0008F7DF9CFCF93DF93282F32
:1001700030E0F901E255FF4F8491F901E656FF4F57
:10018000D491F901EA57FF4FC491CC23A1F081111A
:100190000E948C00EC2FF0E0EE0FFF1FE458FF4FA1
:1001A000A591B491EC91ED2381E090E009F480E019
:1001B000DF91CF91089580E090E0FACF1F93CF9325
:1001C000DF93282F30E0F901E255FF4F8491F901C8
:1001D000E656FF4FD491F901EA57FF4FC491CC2363
:1001E000A9F0162F81110E948C00EC2FF0E0EE0F89
:1001F000FF1FEE58FF4FA591B4918FB7F894EC9183
:10020000111108C0D095DE23DC938FBFDF91CF9111
:100210001F910895DE2BF8CFCF93DF9390E0FC0180
:10022000E656FF4F24918A579F4FFC018491882303
:10023000D1F090E0880F991FFC01E859FF4FA5917C
:10024000B491FC01EE58FF4FC591D491623071F426
:100250009FB7F8943C91822F809583238C93E881FB
:100260002E2B28839FBFDF91CF9108958FB7F894ED
:10027000EC912E2B2C938FBFF6CF1F93CF93DF9350
:10028000182FEB0161E00E940C01209739F460E027
:10029000812FDF91CF911F910C94DE00CF3FD105CC
:1002A00011F461E0F5CFE12FF0E0E255FF4FE4916A
:1002B000E33031F140F4E130B1F0E230E1F0C03848
:1002C000D1057CF7E4CFE73029F1E83059F1E4308B
:1002D000B1F780918000806280938000D0938B0082
:1002E000C0938A0004C084B5806884BDC7BDDF9117
:1002F000CF911F91089584B5806284BDC8BDF7CFAA
:1003000080918000806880938000D0938900C093A2
:100310008800EDCF8091B00080688093B000C093DA
:10032000B300E5CF8091B00080628093B000C093AD
:10033000B400DDCF2FB7F89460915B0170915C0140
:1003400080915D0190915E012FBF089581E492E05C
:1003500090935501809354018AE392E09093510168
:100360008093500183E392E090934D0180934C0180
:1003700087E192E0909349018093480180E192E007
:10038000909345018093440180E092E09093410175
:10039000809340018DEF91E090933D0180933C016B
:1003A00087E794E090932F0180932E0108958CE2CB
:1003B00092E090932B0180932A0185E292E0909342
:1003C0002901809328018EE192E090932701809388
:1003D000260189E092E0909325018093240182E038
:1003E00092E090932301809322018EEF91E090930D
:1003F0002101809320018CEF91E090931F01809365
:100400001E0187E794E090931701809316010895E9
:10041000AF92BF92CF92DF92EF92FF920F931F9312
:10042000CF93DF936C017B018B01040F151FEB0150
:100430005E01AE18BF08C017D10759F06991D60107
:10044000ED91FC910190F081E02DC6010995892B79
:1004500079F7C501DF91CF911F910F91FF90EF9038
:10046000DF90CF90BF90AF900895FC01538D448DE5
:10047000252F30E0842F90E0821B930B541710F04F
:10048000CF96089501970895FC01918D828D98175C
:1004900061F0A28DAE0FBF2FB11D5D968C91928D34
:1004A0009F5F9F73928F90E008958FEF9FEF089565
:1004B000FC01918D828D981731F0828DE80FF11D2E
:1004C000858D90E008958FEF9FEF0895FC01918D49
:1004D000228D892F90E0805C9F4F821B91098F7342
:1004E000992708958FE591E00E94660221E0892B0B
:1004F00009F420E0822F089580E090E0892B29F014
:100500000E94720281110C9400000895FC01A48DD8
:10051000A80FB92FB11DA35ABF4F2C91848D90E025
:1005200001968F739927848FA689B7892C93A08908
:10053000B1898C91837080648C93938D848D981392
:1005400006C00288F389E02D80818F7D8083089525
:10055000EF92FF920F931F93CF93DF93EC0181E013
:10056000888F9B8D8C8D98131AC0E889F9898081BA
:1005700085FF15C09FB7F894EE89FF896083E889ED
:10058000F98980818370806480839FBF81E090E0DF
:10059000DF91CF911F910F91FF90EF900895F62E6C
:1005A0000B8D10E00F5F1F4F0F731127E02E8C8D06
:1005B0008E110CC00FB607FCFACFE889F98980814B
:1005C00085FFF5CFCE010E948602F1CFEB8DEC0FB7
:1005D000FD2FF11DE35AFF4FF0829FB7F8940B8F68
:1005E000EA89FB8980818062CFCFCF93DF93EC01D2
:1005F000888D8823B9F0AA89BB89E889F9898C910B
:1006000085FD03C0808186FD0DC00FB607FCF7CFC6
:100610008C9185FFF2CF808185FFEDCFCE010E94C6
:100620008602E9CFDF91CF910895CF93DF93EC015C
:1006300061E088810E940C0170E060E088810E9486
:100640003D0161E089810E940C0170E060E08981D8
:100650000E943D0190E080E0DF91CF910895CF921C
:10066000DF92EF92FF92CF93DF93EC016A017B015F
:100670008D819E81892B11F588810E94B500892B7F
:10068000E9F489819A81AB81BC814E96A11DB11D8F
:10069000C816D906EA06FB0688F081E090E09E8342
:1006A0008D830E949A0169837A838B839C83DF9177
:1006B000CF91FF90EF90DF90CF9008958D819E8134
:1006C0000197A1F08D819E81029789F789819A8196
:1006D000AB81BC818A569F4FAF4FBF4FC816D9061A
:1006E000EA06FB0620F31E821D82DBCF88810E9472
:1006F000B500019739F789819A81AB81BC814E960B
:10070000A11DB11DC816D906EA06FB06D8F282E083
:1007100090E0C5CFCF93DF93EC0162E088810E9427
:100720000C0119821A821B821C8290E080E0DF910A
:10073000CF910895E0913A01F0913B0170E060E0C3
:1007400080810E943D018091300190913101909310
:100750002D0180932C0108950F931F930E949A01FD
:10076000E0913801F09139010081118122813381BA
:10077000601B710B820B930B613D774081059105E6
:1007800030F08AE993E090932D0180932C011F9122
:100790000F910895CF93DF93E0913A01F0913B01DF
:1007A00064E670E080810E943D01C0913801D091E3
:1007B00039010E949A01688379838A839B838CEA3A
:1007C00093E090932D0180932C01DF91CF910895B8
:1007D000CF93DF93C0913E01D0913F0170E060E084
:1007E00088810E943D0170E060E089810E943D01A6
:1007F000809130019091310190932D0180932C01D3
:10080000DF91CF910895E0914601F09147018581F4
:100810009681019731F488EE93E090932D018093B7
:100820002C010895E0914201F09143018581968168
:10083000019731F48EEA94E090932D0180932C017E
:10084000089587EC94E090932D0180932C0187E725
:1008500094E09093310180933001089587EC94E007
:1008600090932D0180932C0181E294E090933101CB
:100870008093300108950F931F930E949A01E09195
:100880003801F09139010081118122813381601B8F
:10089000710B820B930B613D77408105910530F020
:1008A00087E794E090932D0180932C011F910F9185
:1008B00008950F931F930E949A01E0913801F091DF
:1008C00039010081118122813381601B710B820B00
:1008D000930B693E73408105910530F087E794E002
:1008E00090932D0180932C011F910F910895E09119
:1008F0005201F091530185819681019769F487EC4B
:1009000094E090932D0180932C0189E594E09093DD
:100910003101809330010895E0914E01F0914F0133
:1009200085819681019749F487EC94E090932D019D
:1009300080932C018BE394E0EACFE0914A01F0919F
:100940004B0185819681019731F78AEC93E0909372
:100950002D0180932C018EE294E0D9CFCF93DF93C9
:10096000C0913E01D0913F0170E060E088810E941B
:100970003D0164E670E089810E943D0183E094E0DE
:1009800090932D0180932C01DF91CF910895CF9307
:10099000DF93C0913E01D0913F0164E670E0888111
:1009A0000E943D0170E060E089810E943D0182E18A
:1009B00094E090932D0180932C01DF91CF910895C5
:1009C0001F920F920FB60F9211242F933F938F9384
:1009D0009F93AF93BF9380915B0190915C01A09135
:1009E0005D01B0915E0130915A0123E0230F2D3754
:1009F00058F50196A11DB11D20935A0180935B010A
:100A000090935C01A0935D01B0935E0180915601CB
:100A100090915701A0915801B09159010196A11DE3
:100A2000B11D8093560190935701A0935801B09344
:100A30005901BF91AF919F918F913F912F910F904D
:100A40000FBE0F901F90189526E8230F0296A11D48
:100A5000B11DD2CF1F920F920FB60F9211242F9378
:100A60003F934F935F936F937F938F939F93AF9336
:100A7000BF93EF93FF938FE591E00E948602FF9171
:100A8000EF91BF91AF919F918F917F916F915F9106
:100A90004F913F912F910F900FBE0F901F9018957F
:100AA0001F920F920FB60F9211242F938F939F9343
:100AB000EF93FF93E0916F01F09170018081E091DD
:100AC0007501F091760182FD1BC0908180917801C3
:100AD0008F5F8F7320917901821741F0E091780147
:100AE000F0E0E15AFE4F958F80937801FF91EF91EE
:100AF0009F918F912F910F900FBE0F901F9018957F
:100B00008081F4CFEFE5F1E01382128288EE93E06A
:100B1000A0E0B0E084839583A683B78384E091E06E
:100B20009183808385EC90E09587848784EC90E0C6
:100B30009787868780EC90E0918B808B81EC90E0AA
:100B4000938B828B82EC90E0958B848B86EC90E08B
:100B5000978B868B118E128E138E148EE1E4F2E049
:100B600082E0808316821582EAE3F2E084E08083EB
:100B700016821582E3E3F2E087E080831682158215
:100B8000ECE2F2E08EE0808316821582E5E2F2E08C
:100B90008FE0808316821582EEE1F2E080E18083AF
:100BA00016821582E7E1F2E088E0808316821582E2
:100BB000E0E1F2E08CE0808316821582E9E0F2E069
:100BC00081E1808316821582E2E0F2E082E1808397
:100BD00016821582E0E0F2E083E0808385E0818385
:100BE000EEEFF1E089E080838AE0818386E0809304
:100BF000FD018BE08093FC010895789484B58260B8
:100C000084BD84B5816084BD85B5826085BD85B5B0
:100C1000816085BD80916E00816080936E0010922E
:100C200081008091810082608093810080918100A9
:100C3000816080938100809180008160809380003A
:100C40008091B10084608093B1008091B000816098
:100C50008093B00080917A00846080937A008091C4
:100C60007A00826080937A0080917A00816080931C
:100C70007A0080917A00806880937A001092C10097
:100C8000E0916F01F091700182E08083E0916B014F
:100C9000F0916C011082E0916D01F0916E0180E1A4
:100CA000808310927701E0917301F091740186E0E6
:100CB0008083E0917101F091720180818061808375
:100CC000E0917101F0917201808188608083E091F0
:100CD0007101F0917201808180688083E0917101DF
:100CE000F091720180818F7D808381E492E00E9487
:100CF0008A038AE392E00E948A0383E392E00E94DF
:100D00008A038CE292E00E948A0385E292E00E94CC
:100D10008A038EE192E00E948A0387E192E00E94BA
:100D20008A0380E192E00E948A0389E092E00E94B7
:100D30008A0382E092E00E948A0380E092E00E94AF
:100D400015038EEF91E00E94150361E08091FD0193
:100D50000E940C0170E060E08091FD010E943D0165
:100D600061E08091FC010E940C0170E060E08091E4
:100D7000FC010E943D0186EA91E090932F0180934F
:100D80002E0187ED91E09093170180931601C4E343
:100D9000D1E00AE111E080E0A82E80E0B82E0E94A8
:100DA0009A016B017C01C0921201D0921301E09272
:100DB0001401F0921501BC01A60181E492E00E94A9
:100DC0002F03B701A6018AE392E00E942F03B70127
:100DD000A60183E392E00E942F03B701A6018CE2F3
:100DE00092E00E942F03B701A60185E292E00E94E3
:100DF0002F03B701A6018EE192E00E942F03B701F5
:100E0000A60187E192E00E942F03B701A60180E1CD
:100E100092E00E942F03B701A60189E092E00E94B0
:100E20002F03B701A60182E092E00E942F03809178
:100E300054019091550190935301809352018091F8
:100E400050019091510190934F0180934E018091F8
:100E50004C0190914D0190934B0180934A018091F8
:100E600048019091490190934701809346018091F8
:100E700044019091450190934301809342018091F8
:100E800040019091410190933F0180933E018091F8
:100E90003C0190913D0190933B0180933A01D093A6
:100EA0003901C093380180913201909133019093C0
:100EB000310180933001E0912E01F0912F010995CD
:100EC00080912C0190912D0190932F0180932E0100
:100ED00080913001909131019093330180933201E0
:100EE00080912A0190912B0190935301809352019C
:100EF000809128019091290190934F0180934E0198
:100F0000809126019091270190934B0180934A0193
:100F1000809124019091250190934701809346018F
:100F2000809122019091230190934301809342018B
:100F3000809120019091210190933F0180933E0187
:100F400080911E0190911F0190933B0180933A0183
:100F50001093390100933801809118019091190183
:100F60009093310180933001E0911601F0911701C7
:100F7000099580912C0190912D01909317018093F8
:100F80001601809130019091310190931901809365
:100F90001801A114B10409F402CF0E94720288233F
:100FA00009F4FDCE0E940000FACEEE0FFF1F05905F
:0A0FB000F491E02D0994F894FFCFAE
:100FBA0000000000A80208023502F5026602440297
:020FCA005802CB
:00000001FF
