:100000000C9462000C948A000C948A000C948A0070
:100010000C948A000C948A000C948A000C948A0038
:100020000C948A000C948A000C948A000C948A0028
:100030000C948A000C948A000C948A000C948A0018
:100040000C940D040C948A000C947D040C945704B9
:100050000C948A000C948A000C948A000C948A00F8
:100060000C948A000C948A000000000024002700F1
:100070002A0000000000250028002B0000000000DE
:1000800023002600290004040404040404040202DA
:100090000202020203030303030301020408102007
:1000A0004080010204081020010204081020000012
:1000B0000008000201000003040700000000000027
:1000C0000000AF0411241FBECFEFD8E0DEBFCDBFCC
:1000D00011E0A0E0B1E0EEE6FEE002C005900D9276
:1000E000A231B107D9F721E0A2E1B1E001C01D9230
:1000F000A13DB207E1F710E0C2E6D0E004C02197CD
:10010000FE010E949905C136D107C9F70E94E80493
:100110000C9435070C940000833081F028F4813072
:1001200099F08230A9F008958730A9F08830C9F09D
:100130008430B1F4809180008F7D03C08091800075
:100140008F7780938000089584B58F7784BD08955C
:1001500084B58F7DFBCF8091B0008F778093B00006
:1001600008958091B0008F7DF9CFCF93DF93282F32
:1001700030E0F901E255FF4F8491F901E656FF4F57
:10018000D491F901EA57FF4FC491CC23A1F081111A
:100190000E948C00EC2FF0E0EE0FFF1FE458FF4FA1
:1001A000A591B491EC91ED2381E090E009F480E019
:1001B000DF91CF91089580E090E0FACF1F93CF9325
:1001C000DF93282F30E0F901E255FF4F8491F901C8
:1001D000E656FF4FD491F901EA57FF4FC491CC2363
:1001E000A9F0162F81110E948C00EC2FF0E0EE0F89
:1001F000FF1FEE58FF4FA591B4918FB7F894EC9183
:10020000111108C0D095DE23DC938FBFDF91CF9111
:100210001F910895DE2BF8CFCF93DF9390E0FC0180
:10022000E656FF4F24918A579F4FFC018491882303
:10023000C9F090E0880F991FFC01E859FF4FA59184
:10024000B491FC01EE58FF4FC591D49161110DC0DE
:100250009FB7F8948C91209582238C9388812823D2
:1002600028839FBFDF91CF910895623051F49FB7EB
:10027000F8943C91822F809583238C93E8812E2BD8
:10028000EFCF8FB7F894EC912E2B2C938FBFEACF42
:10029000CF9384E690E09093C9018093C801C09108
:1002A000C701C33041F08BEF8C0F823020F087EF15
:1002B0008C0F833020F461E08C2F0E940C0161E0F0
:1002C0008C2FCF910C94DE002FB7F8946091210110
:1002D0007091220180912301909124012FBF0895F4
:1002E0008091CF019091D001029781F41092D001BA
:1002F0001092CF010E9464016093CB017093CC01F6
:100300008093CD019093CE0181E0089580E008951F
:100310008DEE93E090931B0180931A010895AF92A4
:10032000BF92CF92DF92EF92FF920F931F93CF93E2
:10033000DF936C017B018B01040F151FEB015E0144
:10034000AE18BF08C017D10759F06991D601ED91D9
:10035000FC910190F081E02DC6010995892B79F778
:10036000C501DF91CF911F910F91FF90EF90DF902A
:10037000CF90BF90AF900895FC01538D448D252FF1
:1003800030E0842F90E0821B930B541710F0CF962F
:10039000089501970895FC01918D828D981761F061
:1003A000A28DAE0FBF2FB11D5D968C91928D9F5F78
:1003B0009F73928F90E008958FEF9FEF0895FC0157
:1003C000918D828D981731F0828DE80FF11D858D0A
:1003D00090E008958FEF9FEF0895FC01918D228D9D
:1003E000892F90E0805C9F4F821B91098F73992722
:1003F000089585E291E00E94ED0121E0892B09F446
:1004000020E0822F089580E090E0892B29F00E945F
:10041000F90181110C9400000895FC01A48DA80F2E
:10042000B92FB11DA35ABF4F2C91848D90E0019636
:100430008F739927848FA689B7892C93A089B18956
:100440008C91837080648C93938D848D981306C0F7
:100450000288F389E02D80818F7D80830895EF925B
:10046000FF920F931F93CF93DF93EC0181E0888F6E
:100470009B8D8C8D98131AC0E889F989808185FF3E
:1004800015C09FB7F894EE89FF896083E889F989E0
:1004900080818370806480839FBF81E090E0DF91E2
:1004A000CF911F910F91FF90EF900895F62E0B8D35
:1004B00010E00F5F1F4F0F731127E02E8C8D8E11F0
:1004C0000CC00FB607FCFACFE889F989808185FF57
:1004D000F5CFCE010E940D02F1CFEB8DEC0FFD2F79
:1004E000F11DE35AFF4FF0829FB7F8940B8FEA8912
:1004F000FB8980818062CFCFCF93DF93EC01888D21
:100500008823B9F0AA89BB89E889F9898C9185FD8E
:1005100003C0808186FD0DC00FB607FCF7CF8C911C
:1005200085FFF2CF808185FFEDCFCE010E940D02C5
:10053000E9CFDF91CF910895CF92DF92EF92FF92B2
:100540000E9464016B017C01C0921201D0921301E0
:10055000E0921401F09215018091CF019091D001A9
:10056000892B09F05FC08091CA010E94B500892BD8
:1005700009F058C08091CB019091CC01A091CD01A0
:10058000B091CE014E96A11DB11DC816D906EA063E
:10059000FB0608F447C081E090E09093D00180937F
:1005A000CF010E9464016093CB017093CC018093D2
:1005B000CD019093CE018091C2018E3008F08E5013
:1005C0008770806480937C0080917A00806480933F
:1005D0007A0080917A0086FDFCCF8091780060914E
:1005E0007900762F682F072E000C880B990B0E943C
:1005F000180620E030EC4FE754E40E94A40520E008
:1006000030E048EC52E40E94C8066093C301709346
:10061000C4018093C5019093C601FF90EF90DF90D5
:10062000CF9008958091CF019091D0010197F1F082
:100630008091CF019091D001029709F0BCCF8091B9
:10064000CB019091CC01A091CD01B091CE018A5601
:100650009F4FAF4FBF4FC816D906EA06FB0608F4F6
:10066000AACF1092D0011092CF019BCF8091CA01E6
:100670000E94B5000197E1F68091CB019091CC01E9
:10068000A091CD01B091CE014E96A11DB11DC8160D
:10069000D906EA06FB0660F282E090E07ECF0E9477
:1006A0009C020E947001882331F08DEE93E09093BC
:1006B0001B0180931A0108950E949C020E94480128
:1006C0008FE493E090931B0180931A0108950F9398
:1006D0001F930E949C020E947001882349F08CE5C0
:1006E00093E090931B0180931A011F910F9108953D
:1006F0000E946401009116011091170120911801C8
:1007000030911901601B710B820B930B61317742A1
:100710008105910550F38EE893E0E3CF0E949C029F
:100720000E947001882339F08CE593E090931B01BF
:1007300080931A01089520E030E048E452E460918B
:10074000C3017091C4018091C5019091C6010E94BE
:100750009F0587FF03C081EB93E0E8CF88EF93E02C
:10076000E5CF0E949C020E9448010E9464016093B0
:10077000160170931701809318019093190187E671
:1007800093E090931B0180931A0108950E949C02AC
:100790000E947001882331F08EE893E090931B0152
:1007A00080931A010895CF931092C9011092C80145
:1007B000C091C701C33041F08BEF8C0F823020F025
:1007C00087EF8C0F833020F461E08C2F0E940C01A6
:1007D00060E08C2FCF910C94DE000E949C020E945E
:1007E000D30386EC93E090931B0180931A01089544
:1007F0000E949C020E94D3030E9464016093160130
:1008000070931701809318019093190187E693E084
:1008100090931B0180931A0108951F920F920FB6B7
:100820000F9211242F933F938F939F93AF93BF9376
:100830008091210190912201A0912301B091240186
:100840003091200123E0230F2D3758F50196A11D8B
:10085000B11D209320018093210190932201A09348
:100860002301B093240180911C0190911D01A0915E
:100870001E01B0911F010196A11DB11D80931C01A5
:1008800090931D01A0931E01B0931F01BF91AF91E2
:100890009F918F913F912F910F900FBE0F901F90BE
:1008A000189526E8230F0296A11DB11DD2CF1F92E5
:1008B0000F920FB60F9211242F933F934F935F9394
:1008C0006F937F938F939F93AF93BF93EF93FF9318
:1008D00085E291E00E940D02FF91EF91BF91AF91EF
:1008E0009F918F917F916F915F914F913F912F9148
:1008F0000F900FBE0F901F9018951F920F920FB67A
:100900000F9211242F938F939F93EF93FF93E09176
:100910003501F09136018081E0913B01F0913C017D
:1009200082FD1BC0908180913E018F5F8F7320916B
:100930003F01821741F0E0913E01F0E0EB5DFE4F98
:10094000958F80933E01FF91EF919F918F912F9111
:100950000F900FBE0F901F9018958081F4CFE5E2A5
:10096000F1E01382128288EE93E0A0E0B0E084838D
:100970009583A683B78384E091E09183808385EC9F
:1009800090E09587848784EC90E09787868780EC59
:1009900090E0918B808B81EC90E0938B828B82EC4A
:1009A00090E0958B848B86EC90E0978B868B118EF4
:1009B000128E138E148EEAECF1E082E080831682B0
:1009C00015828AE08093C7018EE08093C20108956A
:1009D000789484B5826084BD84B5816084BD85B51A
:1009E000826085BD85B5816085BD80916E00816026
:1009F00080936E00109281008091810082608093CC
:100A000081008091810081608093810080918000CD
:100A10008160809380008091B10084608093B100F8
:100A20008091B00081608093B00080917A008460F2
:100A300080937A0080917A00826080937A0080911E
:100A40007A00816080937A0080917A008068809338
:100A50007A001092C100E0913501F091360182E0F8
:100A60008083E0913101F09132011082E0913301F5
:100A7000F091340180E1808310923D01E0913901D1
:100A8000F0913A0186E08083E0913701F0913801DE
:100A9000808180618083E0913701F091380180810D
:100AA00088608083E0913701F0913801808180680F
:100AB0008083E0913701F091380180818F7D8083C0
:100AC00062E08091CA010E940C011092CB01109249
:100AD000CC011092CD011092CE0161E08091C7014E
:100AE0000E940C01C091C70161E08C2F0E940C0193
:100AF00060E08C2F0E94DE0060E08091C2010E94C5
:100B00000C0188E891E090931B0180931A01C0E0EA
:100B1000D0E00E949C02E0911A01F0911B0109951E
:100B20002097B9F30E94F901882399F30E940000ED
:100B3000F0CFEE0FFF1F0590F491E02D09940E9475
:100B4000530608F481E008950E94B8050C948E06BF
:100B50000E94870658F00E94800640F029F45F3F0B
:100B600029F00C94770651110C94C2060C947D0662
:100B70000E949F0668F39923B1F3552391F3951BC7
:100B8000550BBB27AA2762177307840738F09F5FAE
:100B90005F4F220F331F441FAA1FA9F335D00E2E1B
:100BA0003AF0E0E832D091505040E695001CCAF788
:100BB0002BD0FE2F29D0660F771F881FBB1F26174B
:100BC00037074807AB07B0E809F0BB0B802DBF0122
:100BD000FF2793585F4F3AF09E3F510578F00C94F1
:100BE00077060C94C2065F3FE4F3983ED4F38695F3
:100BF00077956795B795F7959F5FC9F7880F911D12
:100C00009695879597F90895E1E0660F771F881FFD
:100C1000BB1F621773078407BA0720F0621B730BB0
:100C2000840BBA0BEE1F88F7E0950895E89409C08D
:100C300097FB3EF490958095709561957F4F8F4F0F
:100C40009F4F9923A9F0F92F96E9BB279395F69525
:100C5000879577956795B795F111F8CFFAF4BB0FA3
:100C600011F460FF1BC06F5F7F4F8F4F9F4F16C007
:100C7000882311F096E911C0772321F09EE8872F91
:100C8000762F05C0662371F096E8862F70E060E04D
:100C90002AF09A95660F771F881FDAF7880F9695C6
:100CA000879597F90895990F0008550FAA0BE0E86A
:100CB000FEEF16161706E807F907C0F0121613061E
:100CC000E407F50798F0621B730B840B950B39F45E
:100CD0000A2661F0232B242B252B21F408950A26C4
:100CE00009F4A140A6958FEF811D811D089597F904
:100CF0009F6780E870E060E008959FEF80EC0895C2
:100D000000240A94161617061806090608950024EA
:100D10000A9412161306140605060895092E039464
:100D2000000C11F4882352F0BB0F40F4BF2B11F4D8
:100D300060FF04C06F5F7F4F8F4F9F4F089557FD37
:100D40009058440F551F59F05F3F71F04795880F39
:100D500097FB991F61F09F3F79F0879508951216D0
:100D600013061406551FF2CF4695F1DF08C016167C
:100D700017061806991FF1CF86957105610508942D
:100D80000895E894BB2766277727CB0197F9089544
:100D90000E94DB060C948E060E94800638F00E94AA
:100DA000870620F0952311F00C9477060C947D06AD
:100DB00011240C94C2060E949F0670F3959FC1F304
:100DC000950F50E0551F629FF001729FBB27F00DF9
:100DD000B11D639FAA27F00DB11DAA1F649F66274E
:100DE000B00DA11D661F829F2227B00DA11D621F9D
:100DF000739FB00DA11D621F839FA00D611D221F57
:100E0000749F3327A00D611D231F849F600D211D3A
:100E1000822F762F6A2F11249F5750409AF0F1F0BD
:100E200088234AF0EE0FFF1FBB1F661F771F881F26
:100E300091505040A9F79E3F510580F00C947706E1
:100E40000C94C2065F3FE4F3983ED4F38695779501
:100E50006795B795F795E7959F5FC1F7FE2B880FCC
:0E0E6000911D9695879597F90895F894FFCF08
:100E6E00000000002F028F01BC017C02ED01CB01BE
:020E7E00DF0192
:00000001FF
