:100000000C9462000C948A000C948A000C948A0070
:100010000C948A000C948A000C948A000C948A0038
:100020000C948A000C948A000C948A000C948A0028
:100030000C948A000C948A000C948A000C948A0018
:100040000C9421030C948A000C9491030C946B0380
:100050000C948A000C948A000C948A000C948A00F8
:100060000C948A000C948A000000000024002700F1
:100070002A0000000000250028002B0000000000DE
:1000800023002600290004040404040404040202DA
:100090000202020203030303030301020408102007
:1000A0004080010204081020010204081020000012
:1000B0000008000201000003040700000000000027
:1000C0000000C30311241FBECFEFD8E0DEBFCDBFB9
:1000D00011E0A0E0B1E0E8E6FDE002C005900D927D
:1000E000A231B107D9F721E0A2E1B1E001C01D9230
:1000F000A73CB207E1F710E0C2E6D0E004C02197C8
:10010000FE010E941605C136D107C9F70E94FC0303
:100110000C94B2060C940000833081F028F48130F6
:1001200099F08230A9F008958730A9F08830C9F09D
:100130008430B1F4809180008F7D03C08091800075
:100140008F7780938000089584B58F7784BD08955C
:1001500084B58F7DFBCF8091B0008F778093B00006
:1001600008958091B0008F7DF9CFCF93DF93282F32
:1001700030E0F901E255FF4F8491F901E656FF4F57
:10018000D491F901EA57FF4FC491CC23A1F081111A
:100190000E948C00EC2FF0E0EE0FFF1FE458FF4FA1
:1001A000A591B491EC91ED2381E090E009F480E019
:1001B000DF91CF91089580E090E0FACF1F93CF9325
:1001C000DF93282F30E0F901E255FF4F8491F901C8
:1001D000E656FF4FD491F901EA57FF4FC491CC2363
:1001E000A9F0162F81110E948C00EC2FF0E0EE0F89
:1001F000FF1FEE58FF4FA591B4918FB7F894EC9183
:10020000111108C0D095DE23DC938FBFDF91CF9111
:100210001F910895DE2BF8CFCF93DF9390E0FC0180
:10022000E656FF4F24918A579F4FFC018491882303
:10023000C9F090E0880F991FFC01E859FF4FA59184
:10024000B491FC01EE58FF4FC591D49161110DC0DE
:100250009FB7F8948C91209582238C9388812823D2
:1002600028839FBFDF91CF910895623051F49FB7EB
:10027000F8943C91822F809583238C93E8812E2BD8
:10028000EFCF8FB7F894EC912E2B2C938FBFEACF42
:10029000CF9384E690E09093BF018093BE01C0911C
:1002A000BD01C33041F08BEF8C0F823020F087EF1F
:1002B0008C0F833020F461E08C2F0E940C0161E0F0
:1002C0008C2FCF910C94DE002FB7F894609117011A
:1002D000709118018091190190911A012FBF089512
:1002E000CF92DF92EF92FF926B017C018091C5016A
:1002F0009091C601892B59F58091C0010E94B500EB
:10030000892B29F58091C1019091C201A091C3016F
:10031000B091C4014E96A11DB11DC816D906EA06BA
:10032000FB06A8F081E090E09093C6018093C501A0
:100330000E9464016093C1017093C2018093C30164
:100340009093C401FF90EF90DF90CF90089580913B
:10035000C5019091C6010197E1F08091C50190918E
:10036000C601029779F78091C1019091C201A091D5
:10037000C301B091C4018A569F4FAF4FBF4FC816FB
:10038000D906EA06FB06F0F21092C6011092C501EA
:10039000CFCF8091C0010E94B5000197F1F6809106
:1003A000C1019091C201A091C301B091C4014E96C8
:1003B000A11DB11DC816D906EA06FB0670F282E03F
:1003C00090E0B2CF8091C5019091C601029781F46F
:1003D0001092C6011092C5010E9464016093C10190
:1003E0007093C2018093C3019093C40181E008958A
:1003F00080E00895AF92BF92CF92DF92EF92FF928A
:100400000F931F93CF93DF936C017B018B01040F3C
:10041000151FEB015E01AE18BF08C017D10759F0D8
:100420006991D601ED91FC910190F081E02DC6011A
:100430000995892B79F7C501DF91CF911F910F9114
:10044000FF90EF90DF90CF90BF90AF900895FC01A8
:10045000538D448D252F30E0842F90E0821B930B29
:10046000541710F0CF96089501970895FC01918DCF
:10047000828D981761F0A28DAE0FBF2FB11D5D96D2
:100480008C91928D9F5F9F73928F90E008958FEF74
:100490009FEF0895FC01918D828D981731F0828D28
:1004A000E80FF11D858D90E008958FEF9FEF08957F
:1004B000FC01918D228D892F90E0805C9F4F821BE3
:1004C00091098F73992708958BE191E00E9458025A
:1004D00021E0892B09F420E0822F089580E090E04C
:1004E000892B29F00E94640281110C940000089568
:1004F000FC01A48DA80FB92FB11DA35ABF4F2C9199
:10050000848D90E001968F739927848FA689B7898F
:100510002C93A089B1898C91837080648C93938D86
:10052000848D981306C00288F389E02D80818F7D29
:1005300080830895EF92FF920F931F93CF93DF93E1
:10054000EC0181E0888F9B8D8C8D98131AC0E8890F
:10055000F989808185FF15C09FB7F894EE89FF89DE
:100560006083E889F98980818370806480839FBF7C
:1005700081E090E0DF91CF911F910F91FF90EF907C
:100580000895F62E0B8D10E00F5F1F4F0F7311278C
:10059000E02E8C8D8E110CC00FB607FCFACFE889C7
:1005A000F989808185FFF5CFCE010E947802F1CFD5
:1005B000EB8DEC0FFD2FF11DE35AFF4FF0829FB73B
:1005C000F8940B8FEA89FB8980818062CFCFCF932B
:1005D000DF93EC01888D8823B9F0AA89BB89E8896B
:1005E000F9898C9185FD03C0808186FD0DC00FB611
:1005F00007FCF7CF8C9185FFF2CF808185FFEDCF8F
:10060000CE010E947802E9CFDF91CF910895CF9378
:100610001092BF011092BE01C091BD01C33041F0E4
:100620008BEF8C0F823020F087EF8C0F833020F41B
:1006300061E08C2F0E940C0160E08C2FCF910C9414
:10064000DE001F920F920FB60F9211242F933F934B
:100650008F939F93AF93BF9380911701909118014F
:10066000A0911901B0911A013091160123E0230FD6
:100670002D3758F50196A11DB11D209316018093C9
:10068000170190931801A0931901B0931A0180915A
:10069000120190911301A0911401B09115010196DE
:1006A000A11DB11D8093120190931301A093140119
:1006B000B0931501BF91AF919F918F913F912F9171
:1006C0000F900FBE0F901F90189526E8230F0296EB
:1006D000A11DB11DD2CF1F920F920FB60F92112400
:1006E0002F933F934F935F936F937F938F939F933A
:1006F000AF93BF93EF93FF938BE191E00E94780259
:10070000FF91EF91BF91AF919F918F917F916F91E9
:100710005F914F913F912F910F900FBE0F901F90BF
:1007200018951F920F920FB60F9211242F938F934B
:100730009F93EF93FF93E0912B01F0912C01808127
:10074000E0913101F091320182FD1BC090818091D6
:1007500034018F5F8F7320913501821741F0E09152
:100760003401F0E0E55EFE4F958F80933401FF91F8
:10077000EF919F918F912F910F900FBE0F901F902F
:1007800018958081F4CFEBE1F1E01382128288EEBC
:1007900093E0A0E0B0E084839583A683B78384E0F0
:1007A00091E09183808385EC90E09587848784EC49
:1007B00090E09787868780EC90E0918B808B81EC2E
:1007C00090E0938B828B82EC90E0958B848B86EC0F
:1007D00090E0978B868B118E128E138E148EE0EC28
:1007E000F1E082E08083168215828AE08093BD0169
:1007F0008EE08093B8010895789484B5826084BDBA
:1008000084B5816084BD85B5826085BD85B5816014
:1008100085BD80916E00816080936E001092810092
:10082000809181008260809381008091810081604D
:10083000809381008091800081608093800080910E
:10084000B10084608093B1008091B000816080939A
:10085000B00080917A00846080937A0080917A0061
:10086000826080937A0080917A00816080937A0020
:1008700080917A00806880937A001092C100E091A4
:100880002B01F0912C0182E08083E0912701F0910F
:1008900028011082E0912901F0912A0180E18083F2
:1008A00010923301E0912F01F091300186E08083B6
:1008B000E0912D01F0912E01808180618083E09193
:1008C0002D01F0912E01808188608083E0912D01BF
:1008D000F0912E01808180688083E0912D01F0915C
:1008E0002E0180818F7D808362E08091C0010E9413
:1008F0000C011092C1011092C2011092C30110921A
:10090000C40161E08091BD010E940C01C091BD0154
:1009100061E08C2F0E940C0160E08C2F0E94DE00B1
:1009200060E08091B8010E940C01C0E0D0E00E941C
:1009300007030E94E201811105C00E9464010E9428
:100940007001F7CF0E94E20181115AC00E94640138
:100950008091B8018E3008F08E508770806480934B
:100960007C0080917A00806480937A0080917A0084
:1009700086FDFCCF8091780060917900762F682FFA
:10098000072E000C880B990B0E94950520E030EC97
:100990004FE754E40E94210520E030E048EC52E4A7
:1009A0000E9445066093B9017093BA018093BB0120
:1009B0009093BC0120E030E048E452E40E941C0522
:1009C00087FF1BC00E9448010E9464016B017C01EB
:1009D0000E9464016C197D098E099F09603177427C
:1009E0008105910508F0AECF0E94E2018111AACFE6
:1009F0000E9464010E947001EBCF0E940703E4CFC4
:100A00000E9448010E94E201811105C00E94640118
:100A10000E947001F7CF209709F489CF0E946402E9
:100A2000882309F484CF0E94000081CFEE0FFF1FBE
:100A30000590F491E02D09940E94D00508F481E01E
:100A400008950E9435050C940B060E94040658F088
:100A50000E94FD0540F029F45F3F29F00C94F40555
:100A600051110C943F060C94FA050E941C0668F381
:100A70009923B1F3552391F3951B550BBB27AA2757
:100A800062177307840738F09F5F5F4F220F331F91
:100A9000441FAA1FA9F335D00E2E3AF0E0E832D059
:100AA00091505040E695001CCAF72BD0FE2F29D05C
:100AB000660F771F881FBB1F261737074807AB072E
:100AC000B0E809F0BB0B802DBF01FF2793585F4FA3
:100AD0003AF09E3F510578F00C94F4050C943F06D3
:100AE0005F3FE4F3983ED4F3869577956795B79585
:100AF000F7959F5FC9F7880F911D9695879597F990
:100B00000895E1E0660F771F881FBB1F6217730708
:100B10008407BA0720F0621B730B840BBA0BEE1F1D
:100B200088F7E0950895E89409C097FB3EF4909506
:100B30008095709561957F4F8F4F9F4F9923A9F0B6
:100B4000F92F96E9BB279395F69587957795679545
:100B5000B795F111F8CFFAF4BB0F11F460FF1BC089
:100B60006F5F7F4F8F4F9F4F16C0882311F096E91C
:100B700011C0772321F09EE8872F762F05C06623CA
:100B800071F096E8862F70E060E02AF09A95660F83
:100B9000771F881FDAF7880F9695879597F908953C
:100BA000990F0008550FAA0BE0E8FEEF161617067E
:100BB000E807F907C0F012161306E407F50798F0E6
:100BC000621B730B840B950B39F40A2661F0232BFF
:100BD000242B252B21F408950A2609F4A140A6957B
:100BE0008FEF811D811D089597F99F6780E870E060
:100BF00060E008959FEF80EC089500240A94161693
:100C0000170618060906089500240A9412161306FA
:100C1000140605060895092E0394000C11F4882388
:100C200052F0BB0F40F4BF2B11F460FF04C06F5FA4
:100C30007F4F8F4F9F4F089557FD9058440F551F7A
:100C400059F05F3F71F04795880F97FB991F61F04E
:100C50009F3F79F087950895121613061406551FC5
:100C6000F2CF4695F1DF08C0161617061806991F31
:100C7000F1CF86957105610508940895E894BB2726
:100C800066277727CB0197F908950E9458060C94A0
:100C90000B060E94FD0538F00E94040620F0952303
:100CA00011F00C94F4050C94FA0511240C943F06F1
:100CB0000E941C0670F3959FC1F3950F50E0551FDD
:100CC000629FF001729FBB27F00DB11D639FAA27A1
:100CD000F00DB11DAA1F649F6627B00DA11D661FF0
:100CE000829F2227B00DA11D621F739FB00DA11D11
:100CF000621F839FA00D611D221F749F3327A00DCB
:100D0000611D231F849F600D211D822F762F6A2F66
:100D100011249F5750409AF0F1F088234AF0EE0FCB
:100D2000FF1FBB1F661F771F881F91505040A9F7F8
:100D30009E3F510580F00C94F4050C943F065F3FF4
:100D4000E4F3983ED4F3869577956795B795F79534
:100D5000E7959F5FC1F7FE2B880F911D96958795AC
:080D600097F90895F894FFCF04
:100D6800000000009A02FA012702E7025802360240
:020D78004A022D
:00000001FF
