:100000000C9462000C948A000C948A000C948A0070
:100010000C948A000C948A000C948A000C948A0038
:100020000C948A000C948A000C948A000C948A0028
:100030000C948A000C948A000C948A000C948A0018
:100040000C94B3020C948A000C9423030C94FD02CC
:100050000C948A000C948A000C948A000C948A00F8
:100060000C948A000C948A000000000024002700F1
:100070002A000000000023002600290000000000E4
:10008000250028002B0004040404040404040202D4
:100090000202020203030303030301020408102007
:1000A0004080010204081020010204081020000012
:1000B0000008000201000003040700000000000027
:1000C0000000630411241FBECFEFD8E0DEBFCDBF18
:1000D00011E0A0E0B1E0ECE5FCE002C005900D927B
:1000E000A231B107D9F721E0A2E1B1E001C01D9230
:1000F000A83BB207E1F710E0C2E6D0E004C02197C8
:10010000FE010E949004C136D107C9F70E94550331
:100110000C942C060C940000833081F028F481307C
:1001200099F08230A9F008958730A9F08830C9F09D
:100130008430B1F4809180008F7D03C08091800075
:100140008F7780938000089584B58F7784BD08955C
:1001500084B58F7DFBCF8091B0008F778093B00006
:1001600008958091B0008F7DF9CF1F93CF93DF93D7
:10017000E8EBF0E09491E4EAF0E0D491E0E9F0E01B
:10018000C491CC23B9F0182F992319F0892F0E941C
:100190008C00EC2FF0E0EE0FFF1FE458FF4FA5910D
:1001A000B4918FB7F894EC91111108C0D095DE236B
:1001B000DC938FBFDF91CF911F910895DE2BF8CF95
:1001C000CF93DF93E0EBF0E08491ECE9F0E0D491A1
:1001D000E8E8F0E0C491CC23A1F081110E948C00EA
:1001E000EC2FF0E0EE0FFF1FEE58FF4FA591B491FA
:1001F000EC91ED2381E090E009F480E0DF91CF9174
:10020000089580E090E0FACFCF93DF9390E0FC0177
:10021000E656FF4F24918A579F4FFC018491882313
:10022000C9F090E0880F991FFC01E859FF4FA59194
:10023000B491FC01E458FF4FC591D49161110DC0F8
:100240009FB7F8948C91209582238C9388812823E2
:1002500028839FBFDF91CF910895623051F49FB7FB
:10026000F8943C91822F809583238C93E8812E2BE8
:10027000EFCF8FB7F894EC912E2B2C938FBFEACF52
:100280003FB7F8948091B4019091B501A091B60167
:10029000B091B70126B5A89B05C02F3F19F0019674
:1002A000A11DB11D3FBFBA2FA92F982F8827BC01D0
:1002B000CD01620F711D811D911D42E0660F771FF8
:1002C000881F991F4A95D1F708958F929F92AF92F8
:1002D000BF92CF92DF92EF92FF920E9440014B01BA
:1002E0005C018EE1C82ED12CE12CF12C0E94400142
:1002F000681979098A099B09683E7340810591054F
:10030000A8F321E0C21AD108E108F10888EE880EAE
:1003100083E0981EA11CB11CC114D104E104F104B6
:1003200029F7FF90EF90DF90CF90BF90AF909F9014
:100330008F900895AF92BF92CF92DF92EF92FF928B
:100340000F931F93CF93DF936C017B018B01040FFD
:10035000151FEB015E01AE18BF08C017D10759F099
:100360006991D601ED91FC910190F081E02DC601DB
:100370000995892B79F7C501DF91CF911F910F91D5
:10038000FF90EF90DF90CF90BF90AF900895FC0169
:10039000538D448D252F30E0842F90E0821B930BEA
:1003A000541710F0CF96089501970895FC01918D90
:1003B000828D981761F0A28DAE0FBF2FB11D5D9693
:1003C0008C91928D9F5F9F73928F90E008958FEF35
:1003D0009FEF0895FC01918D828D981731F0828DE9
:1003E000E80FF11D858D90E008958FEF9FEF089540
:1003F000FC01918D228D892F90E0805C9F4F821BA4
:1004000091098F739927089582E191E00E94F80184
:1004100021E0892B09F420E0822F089580E090E00C
:10042000892B29F00E94040281110C940000089588
:10043000FC01A48DA80FB92FB11DA35ABF4F2C9159
:10044000848D90E001968F739927848FA689B78950
:100450002C93A089B1898C91837080648C93938D47
:10046000848D981306C00288F389E02D80818F7DEA
:1004700080830895EF92FF920F931F93CF93DF93A2
:10048000EC0181E0888F9B8D8C8D98131AC0E889D0
:10049000F989808185FF15C09FB7F894EE89FF899F
:1004A0006083E889F98980818370806480839FBF3D
:1004B00081E090E0DF91CF911F910F91FF90EF903D
:1004C0000895F62E0B8D10E00F5F1F4F0F7311274D
:1004D000E02E8C8D8E110CC00FB607FCFACFE88988
:1004E000F989808185FFF5CFCE010E941802F1CFF6
:1004F000EB8DEC0FFD2FF11DE35AFF4FF0829FB7FC
:10050000F8940B8FEA89FB8980818062CFCFCF93EB
:10051000DF93EC01888D8823B9F0AA89BB89E8892B
:10052000F9898C9185FD03C0808186FD0DC00FB6D1
:1005300007FCF7CF8C9185FFF2CF808185FFEDCF4F
:10054000CE010E941802E9CFDF91CF9108950E9459
:10055000E000892BE1F70E9465010E94E000892BF1
:10056000E1F30C9465011F920F920FB60F921124C4
:100570002F933F938F939F93AF93BF938091B0013D
:100580009091B101A091B201B091B3013091AF014E
:1005900023E0230F2D3758F50196A11DB11D20939F
:1005A000AF018093B0019093B101A093B201B093D9
:1005B000B3018091B4019091B501A091B601B091C1
:1005C000B7010196A11DB11D8093B4019093B501AF
:1005D000A093B601B093B701BF91AF919F918F9156
:1005E0003F912F910F900FBE0F901F90189526E806
:1005F000230F0296A11DB11DD2CF1F920F920FB6ED
:100600000F9211242F933F934F935F936F937F9398
:100610008F939F93AF93BF93EF93FF9382E191E00A
:100620000E941802FF91EF91BF91AF919F918F911E
:100630007F916F915F914F913F912F910F900FBEDE
:100640000F901F9018951F920F920FB60F921124C2
:100650002F938F939F93EF93FF93E0912201F0915B
:1006600023018081E0912801F091290182FD1BC0C6
:10067000908180912B018F5F8F7320912C018217C5
:1006800041F0E0912B01F0E0EE5EFE4F958F8093FC
:100690002B01FF91EF919F918F912F910F900FBEA2
:1006A0000F901F9018958081F4CF789484B5826064
:1006B00084BD84B5816084BD85B5826085BD85B506
:1006C000816085BD80916E00816080936E00109284
:1006D00081008091810082608093810080918100FF
:1006E0008160809381008091800081608093800090
:1006F0008091B10084608093B1008091B0008160EE
:100700008093B00080917A00846080937A00809119
:100710007A00826080937A0080917A008160809371
:100720007A0080917A00806880937A001092C100EC
:10073000E0912201F091230182E08083E0911E018B
:10074000F0911F011082E0912001F091210180E1E0
:10075000808310922A01E0912601F091270186E022
:100760008083E0912401F091250180818061808364
:10077000E0912401F0912501808188608083E091DF
:100780002401F0912501808180688083E09124011B
:10079000F091250180818F7D808362E082E00E945C
:1007A000040161E08AE00E94040161E08AE00E94A5
:1007B000040180E00E94B50060E08EE00E94040128
:1007C00010E4C0E0D0E061E08AE00E94040180E033
:1007D0000E94B5000E94A7020E94E000892B09F444
:1007E0005CC010937C0080917A00806480937A00D2
:1007F00080917A0086FDFCCF80917800609179002D
:10080000762F682F072E000C880B990B0E940F057E
:1008100020E030EC4FE754E40E949B0420E030E0FD
:1008200048EC52E40E94BF0520E030E048E452E486
:100830000E94960461E087FF2BC08AE00E940401B9
:1008400081E00E94B5008FB7F894C090B001D090BD
:10085000B101E090B201F090B3018FBF2FB7F894CF
:100860008091B0019091B101A091B201B091B3011A
:100870002FBF8C199D09AE09BF0980319742A10590
:10088000B10508F0A9CF0E94E000892B39F7A4CF69
:100890008AE00E94040180E0D4CF0E94A70261E0B8
:1008A0008AE00E94040181E00E94B5000E94A70234
:1008B000209709F488CF0E940402882309F483CF8B
:1008C0000E94000080CFE2E1F1E01382128288EE04
:1008D00093E0A0E0B0E084839583A683B78384E0AF
:1008E00091E09183808385EC90E09587848784EC08
:1008F00090E09787868780EC90E0918B808B81ECED
:1009000090E0938B828B82EC90E0958B848B86ECCD
:1009100090E0978B868B118E128E138E148E089515
:10092000EE0FFF1F0590F491E02D09940E944A05F7
:1009300008F481E008950E94AF040C9485050E949C
:100940007E0558F00E94770540F029F45F3F29F0BA
:100950000C946E0551110C94B9050C9474050E9409
:10096000960568F39923B1F3552391F3951B550B25
:10097000BB27AA2762177307840738F09F5F5F4F72
:10098000220F331F441FAA1FA9F335D00E2E3AF0B1
:10099000E0E832D091505040E695001CCAF72BD0C9
:1009A000FE2F29D0660F771F881FBB1F261737071A
:1009B0004807AB07B0E809F0BB0B802DBF01FF274C
:1009C00093585F4F3AF09E3F510578F00C946E05B6
:1009D0000C94B9055F3FE4F3983ED4F38695779580
:1009E0006795B795F7959F5FC9F7880F911D969505
:1009F000879597F90895E1E0660F771F881FBB1F61
:100A0000621773078407BA0720F0621B730B840B0D
:100A1000BA0BEE1F88F7E0950895E89409C097FB9C
:100A20003EF490958095709561957F4F8F4F9F4FC5
:100A30009923A9F0F92F96E9BB279395F695879509
:100A400077956795B795F111F8CFFAF4BB0F11F4CC
:100A500060FF1BC06F5F7F4F8F4F9F4F16C0882373
:100A600011F096E911C0772321F09EE8872F762FA9
:100A700005C0662371F096E8862F70E060E02AF0EA
:100A80009A95660F771F881FDAF7880F96958795D6
:100A900097F90895990F0008550FAA0BE0E8FEEFAB
:100AA00016161706E807F907C0F012161306E40732
:100AB000F50798F0621B730B840B950B39F40A262B
:100AC00061F0232B242B252B21F408950A2609F409
:100AD000A140A6958FEF811D811D089597F99F670D
:100AE00080E870E060E008959FEF80EC08950024B6
:100AF0000A941616170618060906089500240A9483
:100B000012161306140605060895092E0394000C08
:100B100011F4882352F0BB0F40F4BF2B11F460FF97
:100B200004C06F5F7F4F8F4F9F4F089557FD9058C0
:100B3000440F551F59F05F3F71F04795880F97FBA1
:100B4000991F61F09F3F79F087950895121613065B
:100B50001406551FF2CF4695F1DF08C0161617068A
:100B60001806991FF1CF86957105610508940895BF
:100B7000E894BB2766277727CB0197F908950E9451
:100B8000D2050C9485050E94770538F00E947E05F9
:100B900020F0952311F00C946E050C94740511242B
:100BA0000C94B9050E94960570F3959FC1F3950FBB
:100BB00050E0551F629FF001729FBB27F00DB11DE1
:100BC000639FAA27F00DB11DAA1F649F6627B00D71
:100BD000A11D661F829F2227B00DA11D621F739F5A
:100BE000B00DA11D621F839FA00D611D221F749F68
:100BF0003327A00D611D231F849F600D211D822FAF
:100C0000762F6A2F11249F5750409AF0F1F08823D5
:100C10004AF0EE0FFF1FBB1F661F771F881F915002
:100C20005040A9F79E3F510580F00C946E050C943E
:100C3000B9055F3FE4F3983ED4F3869577956795C1
:100C4000B795F795E7959F5FC1F7FE2B880F911D2C
:0C0C50009695879597F90895F894FFCFCA
:100C5C00000000003A029A01C7018702F801D60190
:020C6C00EA019B
:00000001FF
