:100000000C945D000C9485000C9485000C94850084
:100010000C9485000C9485000C9485000C9485004C
:100020000C9485000C9485000C9485000C9485003C
:100030000C9485000C9485000C9485000C9485002C
:100040000C94E0020C9485000C9450030C942A0349
:100050000C9485000C9485000C9485000C9485000C
:100060000C9485000C9485000000000024002700FB
:100070002A0000000000250028002B0004040404CE
:100080000404040402020202020203030303030342
:10009000010204081020408001020408102001021F
:1000A00004081020000000080002010000030407FB
:1000B0000000000000000000820311241FBECFEFEB
:1000C000D8E0DEBFCDBF11E0A0E0B1E0E8EFFBE09B
:1000D00002C005900D92A231B107D9F721E0A2E14B
:1000E000B1E001C01D92A63CB207E1F710E0CDE5FA
:1000F000D0E004C02197FE010E945904CC35D107FD
:10010000C9F70E94B5030C94FA050C94000090E026
:10011000FC01EC55FF4F2491FC01E057FF4F349157
:10012000FC01E458FF4FE491EE23C9F0222339F09B
:10013000233001F1A8F4213019F1223029F1F0E047
:10014000EE0FFF1FEE58FF4FA591B4918FB7F894B3
:10015000EC91611126C030953E233C938FBF0895EA
:100160002730A9F02830C9F0243049F78091800069
:100170008F7D03C0809180008F7780938000DFCFD8
:1001800084B58F7784BDDBCF84B58F7DFBCF809125
:10019000B0008F778093B000D2CF8091B0008F7D78
:1001A000F9CF3E2BDACFCF93DF9390E0FC01E057FD
:1001B000FF4F249184589F4FFC0184918823D1F0F4
:1001C00090E0880F991FFC01E859FF4FA591B49169
:1001D000FC01EE58FF4FC591D49161110EC09FB73D
:1001E000F8948C91E22FE0958E238C932881E22362
:1001F000E8839FBFDF91CF9108958FB7F894EC917A
:10020000E22BEC938FBFF6CF2FB7F89460911D01CE
:1002100070911E0180911F01909120012FBF0895C0
:1002200081E692E090931701809316010895AF92B2
:10023000BF92CF92DF92EF92FF920F931F93CF93D3
:10024000DF936C017B018B01040F151FEB015E0135
:10025000AE18BF08C017D10759F06991D601ED91CA
:10026000FC910190F081E02DC6010995892B79F769
:10027000C501DF91CF911F910F91FF90EF90DF901B
:10028000CF90BF90AF900895FC01538D448D252FE2
:1002900030E0842F90E0821B930B541710F0CF9620
:1002A000089501970895FC01918D828D981761F052
:1002B000A28DAE0FBF2FB11D5D968C91928D9F5F69
:1002C0009F73928F90E008958FEF9FEF0895FC0148
:1002D000918D828D981731F0828DE80FF11D858DFB
:1002E00090E008958FEF9FEF0895FC01918D228D8E
:1002F000892F90E0805C9F4F821B91098F73992713
:10030000089581E291E00E94750121E0892B09F4B2
:1003100020E0822F089580E090E0892B29F00E9450
:10032000810181110C9400000895FC01A48DA80F97
:10033000B92FB11DA35ABF4F2C91848D90E0019627
:100340008F739927848FA689B7892C93A089B18947
:100350008C91837080648C93938D848D981306C0E8
:100360000288F389E02D80818F7D80830895EF924C
:10037000FF920F931F93CF93DF93EC0181E0888F5F
:100380009B8D8C8D98131AC0E889F989808185FF2F
:1003900015C09FB7F894EE89FF896083E889F989D1
:1003A00080818370806480839FBF81E090E0DF91D3
:1003B000CF911F910F91FF90EF900895F62E0B8D26
:1003C00010E00F5F1F4F0F731127E02E8C8D8E11E1
:1003D0000CC00FB607FCFACFE889F989808185FF48
:1003E000F5CFCE010E949501F1CFEB8DEC0FFD2FE3
:1003F000F11DE35AFF4FF0829FB7F8940B8FEA8903
:10040000FB8980818062CFCFCF93DF93EC01888D11
:100410008823B9F0AA89BB89E889F9898C9185FD7F
:1004200003C0808186FD0DC00FB607FCF7CF8C910D
:1004300085FFF2CF808185FFEDCFCE010E9495012F
:10044000E9CFDF91CF9108950E94040160931201DA
:100450007093130180931401909315018091BE0154
:100460008E3008F08E508770806480937C0080917D
:100470007A00806480937A0080917A0086FDFCCFB8
:100480008091780060917900762F682F072E000CFC
:10049000880B990B0E94D80420E030EC4FE754E41D
:1004A0000E94640420E030E048EC52E40E948D0594
:1004B0006093BF017093C0018093C1019093C2010A
:1004C00008950E94240220E030E048E452E4609164
:1004D000BF017091C0018091C1019091C2010E9441
:1004E0005F0487FF08C00E94040184E992E09093B2
:1004F00017018093160120E030E048E452E4609157
:10050000BF017091C0018091C1019091C2010E9410
:10051000880587FD08C00E9404018BEB92E0909350
:100520001701809316010895CF930E94240284E658
:1005300090E09093C5018093C401C091C301C33082
:1005400041F08BEF8C0F823020F087EF8C0F8330DF
:1005500020F461E08C2F0E94D30061E08C2F0E9478
:1005600087000E94040180E191E09093170180933D
:100570001601CF910895CF930E9424021092C501D5
:100580001092C401C091C301C33041F08BEF8C0FB6
:10059000823020F087EF8C0F833020F461E08C2FC5
:1005A0000E94D30060E08C2F0E9487000E9404010B
:1005B00080E191E09093170180931601CF91089507
:1005C0001F920F920FB60F9211242F933F938F9388
:1005D0009F93AF93BF9380911D0190911E01A091B5
:1005E0001F01B091200130911C0123E0230F2D3712
:1005F00058F50196A11DB11D20931C0180931D018A
:1006000090931E01A0931F01B093200180911801C7
:1006100090911901A0911A01B0911B010196A11DA1
:10062000B11D8093180190931901A0931A01B09302
:100630001B01BF91AF919F918F913F912F910F908F
:100640000FBE0F901F90189526E8230F0296A11D4C
:10065000B11DD2CF1F920F920FB60F9211242F937C
:100660003F934F935F936F937F938F939F93AF933A
:10067000BF93EF93FF9381E291E00E949501FF9178
:10068000EF91BF91AF919F918F917F916F915F910A
:100690004F913F912F910F900FBE0F901F90189583
:1006A0001F920F920FB60F9211242F938F939F9347
:1006B000EF93FF93E0913101F09132018081E0915D
:1006C0003701F091380182FD1BC0908180913A0181
:1006D0008F5F8F7320913B01821741F0E0913A01C7
:1006E000F0E0EF5DFE4F958F80933A01FF91EF911F
:1006F0009F918F912F910F900FBE0F901F90189583
:100700008081F4CFE1E2F1E01382128288EE93E07F
:10071000A0E0B0E084839583A683B78384E091E072
:100720009183808385EC90E09587848784EC90E0CA
:100730009787868780EC90E0918B808B81EC90E0AE
:10074000938B828B82EC90E0958B848B86EC90E08F
:10075000978B868B118E128E138E148E8AE0809367
:10076000C3018EE08093BE010895789484B58260C1
:1007700084BD84B5816084BD85B5826085BD85B545
:10078000816085BD80916E00816080936E001092C3
:10079000810080918100826080938100809181003E
:1007A00081608093810080918000816080938000CF
:1007B0008091B10084608093B1008091B00081602D
:1007C0008093B00080917A00846080937A00809159
:1007D0007A00826080937A0080917A0081608093B1
:1007E0007A0080917A00806880937A001092C1002C
:1007F000E0913101F091320182E08083E0912D019E
:10080000F0912E011082E0912F01F091300180E1F2
:10081000808310923901E0913501F091360186E034
:100820008083E0913301F091340180818061808385
:10083000E0913301F0913401808188608083E09100
:100840003301F0913401808180688083E09133012D
:10085000F091340180818F7D808361E08091C301BC
:100860000E94D300C091C30161E08C2F0E94D3008D
:1008700060E08C2F0E94870060E08091BE010E94A2
:10088000D30080E191E09093170180931601C0E0BE
:10089000D0E00E942402E0911601F0911701099521
:1008A0002097B9F30E948101882399F30E940000E8
:1008B000F0CFEE0FFF1F0590F491E02D09940E94F8
:1008C000130508F481E008950E9478040C944E0505
:1008D0000E94470558F00E94400540F029F45F3F10
:1008E00029F00C94370551110C9482050C943D05A8
:1008F0000E945F0568F39923B1F3552391F3951B8B
:10090000550BBB27AA2762177307840738F09F5F30
:100910005F4F220F331F441FAA1FA9F335D00E2E9D
:100920003AF0E0E832D091505040E695001CCAF70A
:100930002BD0FE2F29D0660F771F881FBB1F2617CD
:1009400037074807AB07B0E809F0BB0B802DBF01A4
:10095000FF2793585F4F3AF09E3F510578F00C9473
:1009600037050C9482055F3FE4F3983ED4F38695F7
:1009700077956795B795F7959F5FC9F7880F911D94
:100980009695879597F90895E1E0660F771F881F80
:10099000BB1F621773078407BA0720F0621B730B33
:1009A000840BBA0BEE1F88F7E0950895E89409C010
:1009B00097FB3EF490958095709561957F4F8F4F92
:1009C0009F4F9923A9F0F92F96E9BB279395F695A8
:1009D000879577956795B795F111F8CFFAF4BB0F26
:1009E00011F460FF1BC06F5F7F4F8F4F9F4F16C08A
:1009F000882311F096E911C0772321F09EE8872F14
:100A0000762F05C0662371F096E8862F70E060E0CF
:100A10002AF09A95660F771F881FDAF7880F969548
:100A2000879597F90895990F0008550FAA0BE0E8EC
:100A3000FEEF16161706E807F907C0F012161306A0
:100A4000E407F50798F0621B730B840B950B39F4E0
:100A50000A2661F0232B242B252B21F408950A2646
:100A600009F4A140A6958FEF811D811D089597F986
:100A70009F6780E870E060E008959FEF80EC089544
:100A800000240A941616170618060906089500246D
:100A90000A9412161306140605060895092E0394E7
:100AA000000C11F4882352F0BB0F40F4BF2B11F45B
:100AB00060FF04C06F5F7F4F8F4F9F4F089557FDBA
:100AC0009058440F551F59F05F3F71F04795880FBC
:100AD00097FB991F61F09F3F79F087950895121653
:100AE00013061406551FF2CF4695F1DF08C01616FF
:100AF00017061806991FF1CF8695710561050894B0
:100B00000895E894BB2766277727CB0197F90895C6
:100B10000E94130508F48FEF08950E94A0050C941D
:100B20004E050E94400538F00E94470520F09523AD
:100B300011F00C9437050C943D0511240C9482059A
:100B40000E945F0570F3959FC1F3950F50E0551F0C
:100B5000629FF001729FBB27F00DB11D639FAA2712
:100B6000F00DB11DAA1F649F6627B00DA11D661F61
:100B7000829F2227B00DA11D621F739FB00DA11D82
:100B8000621F839FA00D611D221F749F3327A00D3C
:100B9000611D231F849F600D211D822F762F6A2FD8
:100BA00011249F5750409AF0F1F088234AF0EE0F3D
:100BB000FF1FBB1F661F771F881F91505040A9F76A
:100BC0009E3F510580F00C9437050C9482055F3FE1
:100BD000E4F3983ED4F3869577956795B795F795A6
:100BE000E7959F5FC1F7FE2B880F911D969587951E
:080BF00097F90895F894FFCF76
:100BF80000000000B7011701440104027501530108
:020C0800670182
:00000001FF
